S12300000000000000000000000000000000000000000000000000000000000000000000DC
S12300200000000000000000000000000000000000000000000000000000000000000000BC
S123004000000000000000000000000000000000000000000000000000000000000000009C
S1230060000000000000000000000000000000000000000000000000000000000C842602C4
S12300800C83B600007E8243000000000000000000000000000000000000000000000000D4
S12300A000000000000000000000000000000000000000000000000000000000000000003C
S12300C000000000000000000000000000000000000000000000000000000000000000001C
S12300E00000000000000000000000000000000000000000000000000000000000000000FC
S12301000000000000000000000000000000000000000000000000000000000000000000DB
S12301200000000000000000000000000000000000000000000000000000000000000000BB
S123014000000000000000000000000000000000000000000000000000000000000000009B
S123016000000000000000000000000000000000000000000000000000000000000000007B
S123018000000000000000000000000000000000000000000000000000000000000000005B
S12301A000000000000000000000000000000000000000000000000000000000000000003B
S12301C000000000000000000000000000000000000000000000000000000000000000001B
S12301E00000000000000000000000000000000000000000000000000000000000000000FB
S10B02000000000000000000F2
S1238000C8821A504F1F8B7E808B347F10DF6FBE7FF0CC801AFD7FF06E8410DE6F35FFFC97
S12380200205272634303406BDB4563262C11A2611FC02053406BDB3B732627F02057F02DE
S1238040075F35301F98847F26048D0327FC398DB93404BDEDE61F98847F358434060D6E4B
S1238060271434361F893406FC02053406BDB574326435362003BDEDE9810D27080C7996C3
S123808079917825020F798D813586FE7FF08E02086F83300126FA8E02076F809F198E7C52
S12380A0FFFF7FF09F719F279F233089FF389F211F148E80E4CE0076C612BD81DF86399753
S12380C0DEBD856C8E00A39F8D0F6E7F02057F0207CE8C7DC60AEF815A26FB8E8113BD9126
S12380E0A97E84CE104050008C7D0C8426020C83B600007E82437E8C7D804FC75259398297
S1238100A183C81D835B825200000000000000000000000036383039204449534B204558C1
S12381205420434F4C4F522042415349430D2843292031393832204259204D4943524F5389
S12381404F46540D0D0034169E76DC789F6AD76C976D35960F738E00E2C601BD801F8108AD
S123816026075A27EF301F20348115260A5A27E48608BD805C20F681031A012705810D26D4
S12381800D4F3401BD916A6F848E00E13581812025C9817B24C5C1FA24C1A7805CBD805C4A
S12381A020B92705BD8F6E9F7A6E9F007A7E8653BD8C171083027F10220AC2340458495862
S12381C04958493504C41FBDEE113996732603BD804F0F73975310260CE797567E8ECDA6E1
S12381E080A7C05A26F9399D8227FB7E8AB08D193406BD8F695D2704C1072302C602BD8AD0
S1238200A035043502BDEE1139BD8AA3BD8F3C3404BD8F69350239270ABD8F3C5D2704C184
S1238220072302C602BDEDFB39BD8AA6BD8F3C5D261032617E8C7D8DF334048DEC3502BD21
S1238240EE0239813A240A812026020E7C803080D039948794FB94A0009B972C97818F8118
S12382608EB38D308F478ED28EBE982F97F99801997099A298C59B2A98FF9FF98EDD8EF903
S12382808F0081CB8D219B329BF29BC27991D27991C97B92D97B939E7F9908508B08468B85
S12382A007464FD247CF5245CDA7454C53C549C6444154C15052494ED44FCE494E5055D49F
S12382C0454EC44E4558D44449CD524541C45255CE524553544F52C55245545552CE53546E
S12382E04FD0504F4BC5434F4ED44C4953D4434C4541D24E45D75345D4434CD3534F554ED8
S1238300C4455845C34445CC454449D454524FCE54524F46C64445C64C494EC552454E5500
S1238320CD4449D24B494CCC4C4F41C4534156C5544142A854CF5355C2544845CE4E4FD4E6
S1238340535445D04F46C6ABADAAAFDE414EC44FD2BEBDBC46CE5553494EC75347CE494EAF
S1238360D44142D35553D2524EC45349CE504545CB4C45CE535452A45641CC4153C34348A1
S123838052A44154CE434FD35441CE4558D04649D84C4FC7504FD35351D2484558A44C4580
S12383A04654A45249474854A44D4944A4494E4B4559A44D45CD5641525054D2494E5354BB
S12383C0D2535452494E47A4859A86E38740874087408771873D911B879F884C866A893163
S12383E08B81888686D8864C871D866E8F8886938F8F86A4856A81EE8217823781A29D9E11
S123840099B19B259B269CE4A48C9E28A495A4A0A4ABA4B74E46534E52474F4446434F5661
S12384204F4D554C425344442F304944544D4F534C535354434E4644414F444E494F464D01
S12384404E4F4945445355464E45204552524F520020494E20000D4F4B0D000D42524541CC
S12384604B003064C6129F0FA68480802615AE019F119E3B27099C1127099E0F3A20E59E5F
S1238480119F3B9E0F4D398D17DE4133419E433001A68236029C4726F8DF45394F58D31F1A
S12384A0C3003A250810DF1710931725EEC60CBD8586BD916EBD91BC8E84143A8D378D3575
S12384C08E8449BD91A996684C2703BD95D2BD916EBDEDF58E8456BD91A9BD8154CEFFFF96
S12384E0DF6825F69F839D7C27F0250EBDEDF8BD90487E8621A6807E91BEBD87C49E2B9FD2
S1238500DFBD9048D7038D4C2512DC47A384D31BDD1BEE843702A7809C1B26F896E1271C68
S1238520DC1BDD43DB038900DD41BD8487CE00DD3702A7809C4526F89E419F1B8D368D02DE
S123854020989E19EC8427213304A6C026FCEF84AE8420F0DC2B9E19EE84270910A3022344
S123856006AE8420F31A019F473926FB9E196F806F809F1B9E19BD87189E279F23BD864CD9
S12385809E1B9F1D9F1F8E00B79F0BAEE410DE216FE20F2D0F2E0F086E8486809708BD8758
S12385A0E6BD8462326226049E0F3285C609BD849CBD8745DC683416C6A7BD8AA8BD897C2B
S12385C0BD897AD654CA7FD450D750108E85D27E8A238E92D2BD94219D8281AB26059D7C06
S12385E0BD897ABD947ABD8A1FDC3B3406868034028D609E839F2FA6802707813A27227E47
S12386008AB0A68197002772EC80DD689F83968C270F865BBD805C9668BD95D9865DBD80D7
S12386205C9D7C8D0220CA27294D102A01B881FF270F81A522C9BE8101481F893A9D7C6E00
S1238640949D7C8197102715017E8AB09E19301F9F3339BD804F270A810327128113270303
S1238660977339BD804F27FB20EE9D8220021A0126319E839F2F060032629E688CFFFF2704
S1238680069F299E2F9F2D8E845A0D00102AFE3E7E84C3260EC6209E2D1027FE129F839ECF
S12386A0299F6839272CBD8C1934069E279D82270CBD8AA6BD8F6E301F9C7122181F10A338
S12386C0E125121F0383003A250B931B2507DF219F277E85797E84AD9D821027FE96BD8578
S12386E07920191F899D7CC1A72716C1A82645C603BD849CDE839E6886A834528D037E8536
S1238700F19D82BD87C48D403001DC2B10936822029E19BD85582517301F9F833926FD8629
S1238720FF973BBD84621F148128270BC6048CC60E7E84AF7E8AB035529F68DF838D068C11
S12387408D069F8339C63A865FD7015F9E831F98D6019701A68427EC3404A1E027E6300190
S1238760812227EA4C26023001818626E70C0420E3BD897A9D8281812705C6A9BD8AA89674
S12387804F26130F048DB64D27BA9D7C818426F50A042AF19D7C9D821025FF657E8627BDAE
S12387A08F3CC681BD8AA8340281A8270481A726830A53260535047E86E59D7C8D06812C56
S12387C027EF35849E749F2B246180309701DC2B811822DB58495849D32B5849DB0189003A
S12387E0DD2B9D7C20E2BD8B8A9F3BC6B5BD8AA896063402BD898F350246BD898110270C0E
S12388003F9E52DC2110A30224119C1B250DE684BD8D409E4DBD8E758E00569F4DBD8EA7F4
S1238820DE4D9E3B3726A78410AF02393F5245444F0D007E84AF960927079E319F687E8ADC
S1238840B08E882BBD91A99E2F9F8339C6169E68300127DF8D01398122260BBD8A7DC63B8B
S1238860BD8AA8BD91AC8E00E16F848D06C62CE7842016BD91BCBD91B9BD81542405326421
S12388807E8676C62E399E33864F97099F35BD8B8A9F3B9E839F2B9E35A68426099609268B
S12388A051BD91BC8DCD9F839D7CD60627239E8397018122270E301F4F9701BD8146863A93
S12388C09701862C9702BD8D51BD8A82BD88012006BD951FBD94409D822706812C1026FFB1
S12388E0529E839F359E2B9F839D822721BD8AA6209C9F83BD874530014D260AC606EE819E
S12389002741EC81DD31A684818626E620989E35D6091026FD3AA68427068E89207E91A916
S1238920393F45585452412049474E4F5245440D0026049E742003BD8B8A9F3BBD8462272D
S123894004C60020471F143003BD9421A66897549E3BBD91CFBD94403069BD94A3E068278E
S12389600CAE6E9F68AEE8109F837E85F132E8129D82812C26F49D7C8DBD8D131CFE7D1A42
S1238980010D0625032A998C2B96C6187E84AF8D6E4F8C34043402C601BD849CBD8A5C0F5E
S12389A03F9D8280B425138103240F810149983F913F2564973F9D7C20E9D63F263310249D
S12389C0006B8B07246799061027047589FF340248ABE08E828C30863502A18424558D9CDB
S12389E034028D299E3D3502261D4D1027006A204B0806598D098E8A04D73F0F0620D99EFE
S1238A00837E8718648B27A184243120D3EC0134068D08D63F7E89937E8AB0D654A6843583
S1238A20203404D64F9E50DE5234546EA49E74A6E0272681642703BD897C9F3D3504815A57
S1238A402719817D271554D70A3552975C9F5DDF5F3504D761D854D762D64F39BD9CB90F5A
S1238A60069D7C24037E951FBD8BD52450812E27F481AE274081AD27E38122260A9E83BDA0
S1238A808D4B9E649F833981AA260D865ABD8993BD8C2043537E8D274C272E8D06BD898F4C
S1238AA0C6298CC6288CC62CE19F008326020E7CC6027E84AF867DBD89937E96F6BD8B8AE5
S1238AC09F52960626957E94219D7C1F89589D7CC138230220DA3404C12A251EC130241C36
S1238AE08DC1A6E4BD898F8DBDBD897F3502DE523442BD8F3C350234068E8D9F3504BE81AE
S1238B00063AAD947E897C864F9703BD8C20DD01BD9457BD8C200D0326069401D4022004BB
S1238B209A01DA027E8D27BD8981261096618A7F945D975D8E005CBD94A320360F060A3F14
S1238B40BD8E89D7569F589E5FBD8E8B96563404A0E0270786012403D656409754DE585CDD
S1238B605A2604D654200BA680A1C027F3C6FF240150CB0159D40A2702C6FF7E9489BD8A6A
S1238B80A6C6018D089D8226F5395F9D82D70597379D828D401025FF175FD7069D7C25047F
S1238BA08D33250A1F899D7C25FC8D2924F8812426060306CB809D7CD7389A088028102740
S1238BC000750F089E1BDC379C1D271210A381273E300520F381412504805B80A5398E00B4
S1238BE074EEE411838AC02728DC1FDD43C30007DD419E1D9F47BD84879E419F1F9E459F73
S1238C001D9E47DC37ED814F5FED84ED02A7049F393990800000009D7CBD897A96542B5DA8
S1238C20BD897C964F819025088E8C12BD94A3264CBD94D5DC5239DC053406125F9E373497
S1238C40148DD435349F37DE5234605C9D82812C27EBD703BD8AA03506DD059E1D9C1F27E3
S1238C6021DC3710A3842706EC02308B20EFC6129605260BD603E1042759C6108CC6087E10
S1238C8084AFCC0005DD64DC37ED84D603E704BD849C9F41C60B4F0D0527053506C3000129
S1238CA0ED058D5DDD6430020A0326E89F0FD30F1025F7F91F01BD84A0830035DD1F4F305D
S1238CC01FA7059C0F26F89E41961F9341ED029605262DE604D7034F5FDD643506DD52108A
S1238CE0A305243ADE6427048D17D35230020A0326E7EDE358495849E3E1308B30059F394A
S1238D003986109745EC05DD174F5F5849250F086509642404D31725050A4526EE397E8C80
S1238D207A1F40931F214F0F06DD50C6907E948FBD897CCE01DEBD95E932628E01DD200B26
S1238D409F4D8D5C9F58D75639301F86229701970230019F629F58C6FF5CA680270C910180
S1238D602704910226F381222702301F9F64D756DE62118301DE22078DC69E62BD8E779E3E
S1238D800B8C00DF2605C61E7E84AF9656A700DC58ED0286FF97069F0D9F5230059F0B390C
S1238DA00F074F3406DC23A3E0109321250ADD239E2330019F253584C61A030727CA8D04C0
S1238DC0350420DE9E279F234F5FDD4B9E219F478E00B79C0B27048D3220F89E1B9C1D27CF
S1238DE0048D2220F89F419E419C1F2735EC02D341DD41A6012AF0E60458CB053A9C41279D
S1238E00E88D0820F8A60130022A14E6842710EC02109323220910934723049F4BDD4730D3
S1238E2005399E4B27FB4FE6845AD347DD439E239F41BD84899E4BDC45ED029E45301F20E2
S1238E4085DC523406BD8A5CBD897F35109F62E6849E52EB842405C61C7E84AFBD8D409EC6
S1238E6062E6848D109E4D8D228D0C9E628D1CBD8D7F7E89A1AE02DE255C2004A680A7C078
S1238E805A26F9DF2539BD897F9E52E6848D182613AE07301F9C2326083404D323DD2335C7
S1238EA004300139AE02399C0D26079F0B301B9F0D4F398D037E8D268DCC0F065D39BD8F47
S1238EC03FC601BD8DA09653BD8D44A78432627E8D7F8D0220DF8DE0275DE684398D474F99
S1238EE0E1842303E6844F3406BD8D429E4D8D9B35043A35048D8020D68D2BA0844020E086
S1238F00C6FFD7539D8281292705BD8AA68D2D8D1527245F4AA18424CE1F89E08450D15395
S1238F2023C5D65320C1BD8AA0EEE4AE659F4DA664E66432671F357E8C7D9D7CBD897ABD25
S1238F408C1C4D26F20E82BD8EB8102702F8DE839F833AA68434526F849D82BD951F3552C5
S1238F60A784DF83398D079F2BBD8AA620CEBD897A96542BC2964F819022BCBD94D59E526D
S1238F80398DEEE6847E8D268DDB9E2BE784393401BD87C4BD85549F66350127129D82271C
S1238FA01381AE26099D7C2706BD87C4270639CEFFFFDF2B9E66BD916EBD81ADEC84260968
S1238FC00D6E26EA32627E84CE9F66EC0210932B22EEBD95D9BD91B99E668D10AE9F006647
S1238FE0CE00E2A6C027CFBD91BE20F73004108E00E2A68027512B15813A260DE684C1840F
S123900027F0C18327EC8C86218D3020E5CE80F481FF2604A6803345847F334A6DC427E7A0
S1239020A0C42AF6ABC4EE414A2B066DC02AFC20F7A6C48D066DC02AF820B7108C01DB2466
S123904006847FA7A06FA4399E83CE00E10F430F44A68027210D43270FBD8BD524188130FD
S12390602504813923100F438120270A9742812227380D442719A7C02706813A27CF20D110
S12390806FC06FC01F308300DF8E00E09F8339813F2604868720DF81272613CC3A83EDC1E6
S12390A00F42A68027D0914227CCA7C020F481302504813C25C0301F34500F41CE80F40F0D
S12390C042334AA6C4273110AE41AEE4E6A0E08027FAC180263832623540DA4296412606AC
S12390E0C1842606863AEDC12094E7C0C18626020C44C18227AA2086CE80F9034126C03513
S123910050A680A7C0BD8BD525EC034320E80C424A27AE313FE6A02AFC20AF274D8D01395F
S123912081402605BD81B02004812326079D822739BD8AA6BDA08D273E81A62753812C272C
S123914037813B2760BD898F960634022606BD95E6BD8D498D563504BD81465D26089D82A9
S1239160812C27148D539D8226CF860D2050BD814627F7966C26F339BD8146270AD66CD14E
S12391806B25068DE5201ED66CD06A24FC502010BD8F3A81291026F917BD8146D06C23050B
S12391A08D175A26FB9D7C208EBD8D4BBD8E895C5A27C4A6808D0720F786208C863F7E80F5
S12391C05C8E96CD2009BD933C035403622003BD933C5D102702808E005C1F895D276CD0B6
S12391E04F2769250A974F966197548E004F50C1F82F594F6401BD92C7D6622A0B63016329
S1239200026303630443890097639653996097539652995F97529651995E97519650995D7E
S123922097505D2A4425028D5D5F9650262E965197509652975196539752966397530F6309
S1239240CB08C1282DE44F974F9754398D6D5F20A85C086309530952095109502AF3964F90
S12392603404A0E0974F23DE8C2508086386009763200C0C4F27280650065106520653244F
S1239280048D0D27EE39035403500351035203539E5230019F5226069E5030019F5039C6EA
S12392A00A7E84AF8E0012A6049763A603A704A602A703A601A702965BA701CB082FE8969C
S12392C063C008270C6701660266036604465C26F43981000000008D6327608D788600977A
S12392E013971497159716D6538D22D663D78BD6528D1AD663D78AD6518D12D663D789D642
S1239300508D0CD663D788BD94187E92292795439613562726241696169B60971696159909
S12393205F97159614995E97149613995D46971306140615061606634F20D539EC01976127
S12393408A80DD5DD661D854D762EC03DD5FA684975CD64F394D27169B4F464928108B803D
S1239360974F270C966297543996544320023262102AFED27E929FBD946C270D8B0225F481
S12393800F62BD91DA0C4F27EB398420000000BD946C8E938A5FD762BD94218C8D9E277323
S12393A0004F8DB10C4F27CC8E0013C604D703C6019650915D26139651915E260D96529133
S12393C05F2607965391602601431FA859240AE7800A032B34272EC6011F8A250E0860092F
S12393E05F095E095D25E32BC820DF966090539760965F9252975F965E9251975E965D9253
S123940050975D20D8C64020D0565656D7638D087E9229C6147E84AF9E139F509E159F523D
S1239420393402EC0197548A80DD500F63E684AE039F52D74F35828E004520068E00408CFC
S12394409E3B964FA78496548A7F9450A7019651A702DE52EF0339966197549E5C9F4F0FDC
S123946063965E975196549E5F9F5239DC4FDD5C9E519F5E9E539F604D39D64F2708D65454
S123948059C6FF250150398DF1D7500F51C68896508080D74FDC74DD52976397547E922503
S12394A00F5439E68427D3E601D8542BD1D64FE184261DE601CA7FD450E1012613D651E155
S12394C002260DD652E1032607D653E00426013956D85420ABD64F273DC0A096542A05035B
S12394E05BBD92888E004FC1F82E06BD92BB0F5B390F5B96544906507E92C7D64FC1A0244B
S12395001D8DD2D7639654D754808086A0974F965397017E9225D750D751D752D753399E41
S1239520749F549F4F9F519F529F479F452564BD9C58812D260403552004812B26049D7CAA
S12395402551812E2728814526289D7C256481AE270E812D270A81AD2708812B2704200640
S123956003489D7C254C0D48270800472004034626CC96479045974727122A09BD938F0C01
S12395804726F92007BD93770A4726F996552A8E7E96F6D645D046D7453402BD93773504D3
S12395A0C0308D022098BD943CBD94898E00407E91CFD6475858DB475880303404ABE0970C
S12395C047209F9B3EBC1FFD9E6E6B27FD9E6E6B28008E84508D0CDC68DD50C69043BD9440
S12395E0938D037E91A9CE01DF8620D6542A02862DA7C0DF6497548630D64F102700C64F73
S1239600C18022088E95CDBD92D786F797458E95C8BD94AD2E0F8E95C3BD94AD2E0EBD93D6
S1239620770A4520F1BD938F0C4520E2BD91C1BD94D5C60196458B0A2B09810B24054A1F5F
S12396408986024A4A9747D7452E0DDE64862EA7C05D27048630A7C08E96D2C6809653AB5A
S12396600397539652A90297529651A90197519650A98497505C565928E32403C00B50CBE7
S12396802F30041F98847FA7C00A452604862EA7C053C4808C96F626C4A6C2813027FA815A
S12396A02E2602335F862BD647271C2A03862D50A7428645A741862F4CC00A24FBCB3AED05
S12396C0436F452004A7C46F418E01DF398000000000FA0A1F0000989680FFF0BDC00001EB
S12396E086A0FFFFD8F0000003E8FFFFFF9C0000000AFFFFFFFF964F27020354399F64BD92
S1239700943C8D058D088E00407E92D79F64BD94379E64E680D7559F648DEE9E6430059F26
S123972064BD91CF8E00450A5526EE39BD947A2B1F27158D10BD943C8D0E8E00408DCA8E5C
S123974092D2BD91CF7E94FB9E9F9F509EA19F52BE977D9F5DBE977F9F5FBD92DDDC8AC326
S1239760658BDDA1DD52DC88C9B08905DD9FDD500F548680974F961597637E922940E64D94
S1239780ABBD946C8E97C6D661BD9396BD946C8DB40F62965CD64FBD91C98E97CBBD91C6B4
S12397A0965434022A09BD91C196542B05030ABD96F68E97CBBD91CF35024D2A03BD96F6CC
S12397C08E97D07E96FD83490FDAA27F000000000584E61A2D1B862807FBF887996889011E
S12397E0872335DFE186A55DE72883490FDAA2A154468F138F524389CD8E982ABD91CF20F4
S123980080BD943C0F0A8DF78E004ABD94428E0040BD94210F54960A8D0C0D4F1027FA7F47
S12398208E004A7E939C3402208581490FDAA2965434022A028D24964F3402818125058E9D
S123984092D28DDF8E985FBD96FD3502818125068E982ABD91C635024D2A037E96F6390B98
S123986076B383BDD3791EF4A6F57B83FCB0107C0C1F67CA7CDE53CBC17D1464704C7DB7D2
S1239880EA517A7D6330887E7E9244993A7E4CCC91C77FAAAAAA138100000000037F5E569D
S12398A0CB7980139B0B6480763893168238AA3B20803504F334813504F33480800000006C
S12398C080317217F8BD947A102FF3B18E98B1964F808034028680974FBD91CF8E98B6BD10
S12398E0939C8E92D2BD91C68E989CBD96FD8E98BBBD91CF3504BD95A68E98C07E92D7BD64
S1239900946C8E96CDBD942127664D26037E92478E004ABD94425F96612A10BD94FB8E00B1
S12399204A9661BD94AD260343D601BD945934048D938E004ABD92D78D363502461025FD2F
S1239940B5398138AA3B29077134583E5674167EB31B772FEEE3857A1D841C2A7C635958F3
S12399600A7E75FDE7C6803172181081000000008E9942BD92D7BD943C964F818825037EC0
S12399809369BD94FB96018B8127F44A34028E0040BD91C68E9947BD970C0F623502BD9395
S12399A05539BD947A2B037E94FB03548DF97E96F6BD9DDC326286019798BD85541025EDF0
S12399C06EBD8FEC1F208300E3D797DC2BBD95D9BD91B98E00E2D69826255FBD9B05BDA24D
S12399E0A7250B80303402860A3DEBE020EDC001C90181412605BD916A20BB814C260B8D6B
S1239A00310F98BD916A20C33262810D260D8D22BD916A8E00E29F837E84FD814527F18123
S1239A20512606BD916A7E84CE8D0220AD812026108CC6F9A6842708BD805C30015A26F408
S1239A4039814426486D8427F78D045A26F7390A97311F3121A621A7A426F8398149271396
S1239A608158270D8148265C6F841F108300E3D7978DBFBD9B05810D278E811B2725810837
S1239A8026228C00E227EC8D458DC420E6814326CB6D84270EBD9B05250220F5A7808D3771
S1239AA05A26EE39D697C1F9260220C734106D8026FCE682E701ACE426F83262A7808D1715
S1239AC00C9720AF810826128D045A26FB398C00E227D0301F86087E805C814B27058053A3
S1239AE027013934028D1E3402A68427166D6126068DE430012003BD9A4FA684A1E426E960
S1239B005A26E635A0BD801F817F24F9815F2602861B810D270E811B270A810827068120FD
S1239B2025E31A0139864F978C398600D6791D7E8D27BD8AA3DC1F3406BD8B8ABD8AA03563
S1239B40061E109C1F26517E8D279D7CBD8AA3BD8B8A3410EC02109321230493272312E6A2
S1239B6084BD8DA03410AE62BD8E753550AF423440BD8F6934045D271FC6FF81292703BD8F
S1239B808F693404BD8AA0C6B5BD8AA88D2E1F13AE62A684A06124037E8C7D4CA1E4240273
S1239BA0A7E4A6611E89AE025A3A4D270DA1E42302A6E41F891E31BD81DF3596BD898F7E3D
S1239BC08E86BD8AA3BD8F3C3404BD8AA6BD898FBD8AA096062605BD8F3F2003BD8ED63450
S1239BE004E661BD8D4235062705A7805A26FB7E8ECDBD8AA3BD898FC60134049606261018
S1239C00BD8F3FE7E42791BD8AA6BD898FBD897F9E523410BD8AA68DA33414BD8AA0AE631A
S1239C20BD8E8B3404E1662523A661271CE6665A3A3184EE62E661A6E4A0664CA161250CFE
S1239C40A680A1C0260C5A26F7E666215F32677E8D266C66302120D98126265C32620F5200
S1239C600F538E00529D7C814F2712814827239D82200C81381022EE37C6038D2A9D7C2550
S1239C80F20F500F510F060F630F54C6A0D74F7E92299D7C250BBD8BD525E6814724E280A1
S1239CA007C6048D0220EB680169841025F5F05A26F58030AB01A7013935400F069E839DCB
S1239CC07C8126279981B7275C81FF26089D7C8183102700A99F836EC49E68300126D9C6E7
S1239CE0167E84AFAE9F00838CFF8327748D238DE8BD8AA3C680D708BD8B8A8D25BD8AA081
S1239D00C6B5BD8AA89E4BDC83ED84DC39ED027E873DC6B7BD8AA8C680D7088A80BD8B8F64
S1239D209F4B7E897C8DEB3410BD8A9B8DF43540C632AE4227AB109E83EEC4DF83A6043441
S1239D4002EC84EE023476BD9442BD897A3576ED84EF023502A7049D821026ED53109F83EA
S1239D60399D7C8D0934108D2D3540AFC4395F9D7C240680301F899D7C9E8D583A398DEE54
S1239D80AE843410BD8A9B8E004F96062707BD8E899E52960639C6B5BD8AA87E8F6E10270B
S1239DA0EEDBBD87C4BD85549F939D82271081AE263B9D7C27048D24200486FF972BDE934F
S1239DC08CEEC4ECC42706EC42932B23F49E938D15BD85749E93BD85447E84CEBD87C47ECB
S1239DE081E7A6C0A78011931B26F79F1B39BD9CD99D7C8122260BBD8A7DC63BBD8AA8BD0B
S1239E0091AC327EBD88793262BD8B8A9F3BBD897F8E00E14FBD8D4F7E8801BD87C49E2B5F
S1239E20399E919F2B7E8554BD8579CC000ADD95DD8F5FDD919D8224068DE09F959D822729
S1239E401BBD8AA624068DD39F919D82270EBD8AA624068DC69F8F2749BD81E78DC39F9339
S1239E609E958DBF9C93253A8D1CBD9EFCBD85428DAF9F938D3A8D0F8D36BD9F97BD85790B
S1239E80BD85427E84CE864F97989E93DC958D150D982602ED02AE848D0BD38F250481FA96
S1239EA025EE7E8C7D3406EC84350626023262399E19301F30018DED30033001A68427F4D0
S1239EC09F0F4A270C4A272A4A26EF8603A78020E7EC016A0227014FE6036A0427015FED07
S1239EE001DD2BBD85549E0F25E1DC476C80ED8420C66F84AE01AE029F4720EA9E19200489
S1239F009E8330018D9F300230019F839D7C4D27EF2AF99E8381FF27EF81A9271281842755
S1239F200E818126E79D7C81A7270481A826DB9D7C25049D8220D79E833410BD87C49E8384
S1239F40A682BDA2A725F930011F10E061C0052720250A3384503085BD9DE620149F479E21
S1239F601B9F435030859F419F1BBD84879E459F8335108601A784A702A704D62B2604C638
S1239F80016C02E701D62C2604C6016C04E7039D82812C279A209C9E19301F3001EC02DDCE
S1239FA068BD9EA530033001A68427EF4A271B800226F334108E9FF4BD91A9AEE4EC01BDD2
S1239FC095D9BD95D2BD916A35103410EC01DD52BD9C81BD95E63540C6053001A6842705B5
S1239FE05AA7C020F530C45D27BE31C433C5BD9DE630A420B3554C2000BD8F718E01DEC6CC
S123A0000434045F860408530952594A26F85D260AA6E44A27058C01DE270CCB30C139235D
S123A02002CB07E7806F8435045A26D532628E01DD7E8D4B860197995ABDA1D59D82102770
S123A0400093D793BD898FBD897F9E529F4DD699BD8EDFBD91AC9E52D699E0845A102B019D
S123A0604FBD91B920F6D7939F0F86029799A684812527C4812026070C9930015A26EF9E34
S123A0800FD6938625BDA1D5BD805C202981B82701393262BD8991BD897FC63BBD8AA89E2C
S123A0A0529F952006969727089E950F97E68426037E8C7DAE020F9A0F99A68081211027A1
S123A0C0FF728123275B5A2616BDA1D5BD805C9D8226D296972603BD916A9E957E8E8B8113
S123A0E02B2609BDA1D58608979A20CC812E274E81251027FF70A184268B81242719812A4E
S123A10026F6969A8A20979AC1022511A6018124260B5A30010C99969A8A10979A30010C36
S123A120990F980C995A2749A680812E271E812327F1812C2621969A8A40979A20E5A68448
S123A14081231026FF3F8601979830010C985A2720A680812327F5815E2616A1842612A1B8
S123A16001260EA102260AC1042506C00430040C9A301F0C99969A850826180A995D27131C
S123A180A684802D270681FE260986088A049A9A979A5A9D821027FF3CD793BD897A969944
S123A1A09B9881111022EAD5BDA1E2301FBD91A90F979D82270D9797813B2705BD8AA62043
S123A1C0029D7C9E95E684D093AE023AD6931026FEE47EA0CF3402862B0D9A2703BD805CB7
S123A1E03582CE01E0C620969A85082702C62B0D542A040F54C62DE7C0C630E7C08401107A
S123A2002601078E95CDBD94AD2B15BD95E6A68026FCA682A7018C01DF26F78625A78439F6
S123A220964F97472703BDA3CA9647102B0081409B998009BDA2E7BDA460BDA3FF9647BD6D
S123A240A47E9647BDA44696982602335F4ABDA2E7BDA3824D2706C12A2702E7C06FC48E04
S123A26001DF30019F0F963A901090992738A684812027EE812A27EA4F3402A680812D2707
S123A280F8812B27F4812427F08130260EA6018D1625083502A78226FA20C735024D26FBD7
S123A2A09E0F8625A7823981302504803A80C639969827014A9B472B014F34022A0A340230
S123A2C0BD938F35024C20F49647A0E097478B092B199699800990478D0DBDA460201D3496
S123A2E0028630A7C035024A2AF53996998DF8BDA44A86F790478DEF0F450F97BDA3FF9644
S123A300982602DE399B477EA24D964F34022703BDA3CA969827014A9B997F01DFD69AC43D
S123A3200426037301DFBB01DF800934022A0A3402BD938F35024C20F4A6E42B014F409B7F
S123A340994CBB01DF97450F97BDA3FF3502BDA47E96982602335FE6E02709D647CB09D0E3
S123A36099F001DF862B5D2A03862D50A7418645A7C1862F4CC00A24FBCB3AEDC16FC47EC9
S123A380A2518E01E0E68434048620D69AC52035042708862AC12026021F893404A780E6AC
S123A3A0842710C145270CC13027F2C12C27EEC12E26048630A782969A85102704C624E7E0
S123A3C082840435042602E7823934404F9747D64FC18022118E95CDBD92D7964780092096
S123A3E0ECBD938F0C478E95C8BD94AD2EF38E95C3BD94AD2E07BD93770A4720F135C034C6
S123A40040BD91C1BD94D535408E96D2C6808D369653AB0397539652A90297529651A901C1
S123A42097519650A98497505C565928E32403C00B50CB2F30041F98847FA7C053C4808C6C
S123A44096F626CA6FC40A452609DF39862EA7C00F97390A97260886039797862CA7C039E1
S123A46096478B0A97454C800324FC8B059797969A8440260297973934028DCA35024A2B21
S123A4800A34028630A7C0A6E026ED3981891027F95C7E8AB0BDA49CBDA4EC399D825F3901
S123A4A03273BDA4C6BDA5B9326D393273BDA4C6BDA5CD326D39393273BDA4C6BDA5F43279
S123A4C06D32627E84CE34403364C60D34449D7C35448122270BA7C05A1027000434442056
S123A4E0ED4FA7C05A26FA9D7C354039347033E432E8EEBDA64E102600BB30C8EE3410BD28
S123A500BC563262830009102700AA860DBD805CE652C1082619308D00022010564F4C5583
S123A5204D45204E414D452049532000BD9A323053BD9A328620BD805CE652C1082773E613
S123A54052C110276DECC8EE27451083000F1023001C44564456445644563440BD95D93505
S123A560408620BD805C864DBD805C201F12ECC8EEC40F1F98E650445644563440BD95D966
S123A58035408620BD805C864BBD805C200F12EC503440BD95D935408620BD805C308D000C
S123A5A002200862797465287329003410BD9A3232627EA4FA32C435F0347033E4BDA64EF1
S123A5C0260930483410BDB3CE326235F0347033E4BDA64E10260018327F305F34104F5FA9
S123A5E0340630483410BDAF7C32662703FD020532C435F0347033E4BDA64E1026004B3279
S123A6007D305D3410CC0002340630483410BDAF7C3266ED5EEC5E2603202F12EC5EFD023C
S123A620050C6E34604FBD8F8F35600F6E7F02057F0207CC001A3406EC5E3406BDB57432FD
S123A64064EC5E3406BDB3B7326232C435F0347033E4327EBDAA84305E3410BDACBB326258
S123A660E75FE65F1027005AC1012624308D0002201753442063617264206E6F742064650D
S123A680746563746564210A003410BDFA893262E65FC102265C308D0002201D43617264FA
S123A6A020496E697469616C697A6174696F6E206661696C6564210A003410BDFA893262E6
S123A6C02630BDBE9EE75FC1032627308D0002201A496E76616C6964204641542066696C9A
S123A6E0652073797374656D210A003410BDFA893262E65F4F32C435F0344033E4AE46ECCF
S123A700023406AE44EC02A4E0E4E0AE48ED02ECD8063406ECD804A4E0E4E0EDD80835C016
S123A720344033E4ECD804EDD808AE44EC02AE48ED02EC468300011023004FCC00013406F1
S123A740AE48EC023510BDECC4AE48ED02ECD8088400C4018300001027000FEC48C30002A3
S123A7601F01EC848A80CA00ED84CC00013406ECD8083510BDECC4EDD808CC00013406ECBB
S123A780463510BDECC4ED4620A835C0344033E43272E6454FED5CE6444FED5AAE46E6033E
S123A7A04FED58AE46E6024FED56AE46E6014FED54AE46E6844FED52EC5C3406EC58351031
S123A7C0BDECAAED5EEC5E8400C4FFAE48ED02E65E4FED5EEC5C3406EC563510BDECAA34F3
S123A7E006EC5A3406EC583510BDECAAE3E13406EC5EE3E1ED5EA65F5F3406EC48C3000205
S123A8001F01EC84E3E1ED84E65E4FED5EEC5C3406EC543510BDECAA3406EC5A3406EC563B
S123A8203510BDECAAE3E13406EC5EE3E1ED5EEC5E8400C4FFEDD808E65E4FED5EEC5C346D
S123A84006EC523510BDECAA3406EC5A3406EC543510BDECAAE3E13406EC5EE3E1ED5EA689
S123A8605F5F3406AE48EC84E3E1ED8432C435C0344033E4ECD8063406ECD804A3E1EDD8B6
S123A88008AE46EC023406AE44EC02A3E1AE48ED02AE46EC023406AE44EC02A3E110240093
S123A8A009AE48EC84830001ED8435C0344033E4EC44C300021F01EC84C3FFFFED8483FF77
S123A8C0FFAE44EC0283FFFF1026000CAE44EC84C3FFFFED8483FFFF35C0344033E4ECD879
S123A8E0063406ECD804E3E1EDD808AE46EC023406AE44EC02E3E1AE48ED02AE44EC023402
S123A90006AE48EC02A3E110250010AE46EC023406AE48EC02A3E11024000CAE48EC84C393
S123A9200001ED8483000135C0344033E4EC44C300021F01EC84C30001ED84830001AE446D
S123A940EC028300001026000CAE44EC84C30001ED8483000135C0344033E4ECD8063406A1
S123A960ECD804A3E11025001EECD8063406ECD804A3E110260015AE46EC023406AE44EC9F
S123A98002A3E110240005CC000135C04F5F35C0344033E4ECD8063406ECD804A3E110267E
S123A9A00015AE46EC023406AE44EC02A3E110260005CC000135C04F5F35C0344033E4ECE7
S123A9C0D8063406ECD804A3E11022001EECD8063406ECD804A3E110260015AE46EC02340E
S123A9E006AE44EC02A3E110230005CC000135C04F5F35C0344033E4327F4F5FE75FE65FD7
S123AA004FAE44E68B4F83000010270013E65F4F8300FF10220009305FE6846C844F20DEDD
S123AA20E65F4F32C435C0344033E4327FAE46E680AF461DE75FE65F1DAE44E780AF44E611
S123AA405F1D83000026E635C2344033E4E6D8041D83000010270028E6D8061D8300001030
S123AA6027001DAE46E680AF461D3406AE44E680AF441DA3E110270005CC000135C020CD11
S123AA804F5F35C0344033E4CC000B3406CCD8023406BDF0793264BDAAA2BDAAB4BDAAD874
S123AAA035C0F6D802CA01F7D80239F6D802C4FEF7D80239F6D802CA02F7D80239F6D802E6
S123AAC0C4FDF7D80239F6D802C40454544F39F6D802CA08F7D80239F6D802C4F7F7D802D7
S123AAE039344033E4327F8D9B4F5FE75FE65F4F8300501024000D8DD68DDD305FE6846CE7
S123AB00841D20E935C28608A7628DCC6863102400058DA02003128DA48DB46A6226EB8D5E
S123AB20B739344033E4327DCC00FFE75FCC07D0ED5D8D80EC5DC3FFFFED5D8300001026CF
S123AB4000032023128D88685FBDAAC6EA5FE75F8D86E6454F3406E6454F3406E65F4FAA48
S123AB60E0EAE0A3E126CDE65F4F32C435C0344033E4327E4F5FE75EBDAAB4C608E75FBD17
S123AB80AACFBDAAC6685EEA5EE75EBDAAD86A5F26EDE65E4F35D0344033E4BDAAAB35C073
S123ABA0344033E4BDAAA235C0344033E4327BCC00FFE75FECD806ED5BAE46EC02ED5DCCB5
S123ABC000FF3406BDAB2232628300FF102600AAE63F4F8300001026003FE6454F8300113E
S123ABE01027001EE6454F83001210270014E6454F8300181027000AE6454F830019102600
S123AC0000174FE65E58493402A65CE65D5849EBE0ED5BA65E485FED5DE6454FCA40340603
S123AC20BDAB063262E65B4F3406BDAB063262E65C4F3406BDAB063262E65D4F3406BDAB41
S123AC40063262E65E4F3406BDAB063262E6454F8300081026000DCC00873406BDAB063212
S123AC6062200B12CC00953406BDAB063262CC007F3406BDAB223262E75FE65F4F83000094
S123AC801026002DE6454F83003A10260023BDAB6E8400C44083000010270008CC0001E7E9
S123ACA03F2005124F5FE73FBDAB6EBDAB6EBDAB6EBDAB6EE65F4F32C435C0344033E432B2
S123ACC078108E7FBDBDAAE14F5FE73FBDAB97CC07D0ED5C4F5FED5AED58305834104F5F63
S123ACE03406BDABA93264E75FEC5CC3FFFFED5C83000010260007CC000132C435C0E65F1A
S123AD004F83000126D4CC07D0ED5CCC0001E7D804CC0002E75E4F5FED58CC01AAED5A30F2
S123AD20583410CC00083406BDABA93264E75FBDAB6EBDAB6EBDAB6EBDAB6EEC5CC3FFFF17
S123AD40ED5C83000010260008CC0001E75E200912E65F4F83000126C6CC07D0ED5C4F5FFA
S123AD60ED5AED5830583410CC00373406BDABA93264CC4000ED584F5FED5A30583410CCB5
S123AD8000293406BDABA93264E75FEC5CC3FFFFED5C83000010260007CC000232C435C094
S123ADA0E65F4F83000026B6E65E4F83000210260052CC07D0ED5C4F5FED5AED583058341A
S123ADC010CC003A3406BDABA93264E75FEC5CC3FFFFED5C830000102600084F5FE7D804AE
S123ADE0200912E65F4F83000026D2EC4483000010270010E63F4F83000110260006CC000B
S123AE0002E7D804BDABA04F5F32C435C0344033E4327DBDAB97CC07D0ED5DEC463406CC6A
S123AE2000113406BDABA93264E75FEC5DC3FFFFED5D83000010260007E65F4F32C435C043
S123AE40E65F4F83000026D3CC00FE3406BDAB2232628300FE1027000ABDABA0CC000132F3
S123AE60C435C04F5FED5DEC5D8302001024001BBDAB6E3406EC5DAE44308B3506E784EC68
S123AE805DC30001ED5D83000120DCBDAB6EBDAB6EBDABA0E65F4F32C435C0344033E432D3
S123AEA07DBDAB97CC07D0ED5DEC463406CC00183406BDABA93264E75FEC5DC3FFFFED5D5A
S123AEC083000010260007E65F4F32C435C0E65F4F83000026D3CC00FF3406BDAB06326218
S123AEE0CC00FE3406BDAB0632624F5FED5DEC5D8302001024001AEC5DAE44E68B1D340631
S123AF00BDAB063262EC5DC30001ED5D83000120DDCC00FF3406BDAB063262CC00FF340647
S123AF20BDAB063262BDAB6EE75FE65F4F8400C41F8300051027000ABDABA0E65F4F32C499
S123AF4035C0CC07D0ED5D4F5FE75FBDAB6E83000010260018EC5DC3FFFFED5D8300001089
S123AF60260008CCFFFFE75F20031220DEBDABA0E65F4F32C435C0108E7FBD39344033E437
S123AF8032E8EE8DF24F5FED5EEC443406BDA9F4326283000D102D000CCC0004E7D8084F16
S123AFA05F32C435C0E6A8D54F8300001026040130A9FDAE1F10ED5EEC443406EC5EC3025C
S123AFC02C3406BDAA273264E6474FAE5EE78902264F5FAE5EED02EDD8FEEC5EC30004C383
S123AFE000021F014F5FED84AE5EED04EC5EC3001AC300021F014F5FED84AE5EED881AEC5D
S123B0005EC3000CC300021F014F5FED84AE5EED0C4F5FAE5EED8810EC5EC30012C30002D3
S123B0201F014F5FED84AE5EED8812EC5EC30016C300021F014F5FED84AE5EED8816EC5E32
S123B040C3001EC300021F014F5FED84AE5EED881E4F5FAE5EED88224F5FAE5EED88244F75
S123B0605FAE5EE78902294F5FAE5EE78902284F5FAE5EE789022BE6474F830000102600E6
S123B08024EC5E34064F5F3406BDE6A83264E7D808E6D8084F830000102700064F5F32C4FB
S123B0A035C07EB3A2E6474F8300021027000AE6474F830003102602E9EC5E3406CC00010E
S123B0C03406BDE6A83264E7D808E6D8084F83000010260179CC0001AE5EE7890229AE5EC2
S123B0E0EC881EAE5EED04EC5EC3001E3406CC00023510EC8B3406EC5EC30004C300021F9F
S123B100013506ED844F5FED58ED564F5FED54ED52305A3410305234104F5F3406EC5EC391
S123B12000043406EC5EC300263406BDE1D8326ACC0FFFED52CCFFFFED5430523410305ADA
S123B1403410BDA990326483000010270003202012EC5AAE5EED04EC5EC30004C300021FD4
S123B16001EC5CED8430563410BDA9293262209B3052341030563410ECA8EF3406BDA78C2C
S123B180326630C8EE341030523410EC313406BDA78C32663052341030C8EE3410EC5EC347
S123B1A000123406BDA870326630C8EE3410EC31340630523410BDA7203266EC50AE5EED3A
S123B1C08822EC5EC3001A3406EC5EC300043406BDE1913264AE5EEC881AED52EC5EC3006A
S123B1E01A3406CC00023510EC8BED544F5FEDC8EEAE5EEC8822ED50EC5EC3001A3406306B
S123B200C8EE341030523410BDA8DA3266EC5EC3001A3406EC5EC300263406BDAE0D3264B7
S123B220830000102700064F5F32C435C0EC318300013406EC5EC300123406CC000235106A
S123B240EC8BA4E0E4E0AE5EED88247EB3A2E6D8084F830001102601454F5FE7D808EC5EDF
S123B260C3000434064F5F34064F5F3406CC00023406EC5EC300263406BDE2DF326AAE5E5E
S123B280EC0483FFFF1026001BEC5EC300043406CC00023510EC8B83FFFF102600064F5FA8
S123B2A032C435C030333410EC5EC300043406BDA9BB326483000010270014EC37AE5EED0C
S123B2C004EC5EC30004C300021F01EC39ED84EC5EC300043406EC5EC300043406EC5EC337
S123B2E000263406BDE3FC3266AE5EEC0483000010260021EC5EC300043406CC0002351082
S123B300EC8B8300001026000CCC0005E7D8084F5F32C435C0CC0FFFED52CCFFFFED543068
S123B320C8EE341030523410CC00013406EC5EC300043406EC5EC300263406BDE1D8326A78
S123B340AE5EEC04AE5EED881EEC5EC300043406CC00023510EC8B3406EC5EC3001EC30051
S123B360021F013506ED84EC5EC30012C300021F014F5FED84AE5EED8812EC5EC3001A34EA
S123B38006EC5EC300043406BDE19132644F5FAE5EED88244F5FAE5EED88222005124F5F0A
S123B3A0ED5EEC5E83000010270006CC0001E7A8D5EC5E32C435C0344033E4EC4483000090
S123B3C0102700084F5FAE44E789022735C0344033E43272BDAF77EC443406BDA9F4326292
S123B3E083000D102D0008CC0004E75F201912EC44340630523410BDAA27326430523410F9
S123B400BDE53C3262E75FE65F4F8300031026003E4F5FE75FE6A8D54F8300011026001A68
S123B42030A8DA341030523410BDAA49326483000010260005CC0006E75FE65F4F83000019
S123B4401026000B30523410BDE9EE3262E75FE65F4F32C435C0344033E43277BDAF77ECF1
S123B46044C300163406EC44C300123406BDA9BB3264830000102700EFAE44E68902274FF9
S123B480830001102600E1AE44EC882483000010260048AE44EC882283000010260010EC45
S123B4A0443406EC44C300043406BDE19132644F5FED5BAE44EC8822ED5D30573410305BF6
S123B4C03410EC443406BDA8DA326630573410EC44C300263406BDAE0D3264EC44C300269E
S123B4E03406EC44C300241F01EC84C30001ED848300013510E68B1DE75FEC44C300163458
S123B50006BDA9293262AE44EC882483020010260053EC44C300221F01EC84C30001ED848C
S123B5208300014F5FAE44ED8824AE44EC8822A3A8EF1026002F4F5FAE44ED88224F5FED51
S123B5405DED5BEC44C300043406305B34104F5F3406EC44C300043406EC44C300263406D6
S123B560BDE1D8326A200612CC001AE75FE65F1D32C435C0344033E43275BDAF77AE44E617
S123B5808902274F830001102606C4AE44E689022B1D83000010260231E6471D83001A1094
S123B5A0270227AE44E689022A4F83000110260035EC44C300241F01EC84C30001ED84830D
S123B5C000013406EC44C30026E3E11F01CC000AE784EC44C300123406BDA92932624F5FDE
S123B5E0AE44E789022AE6471D8300081026002CAE44EC88248300001027001DEC44C3002E
S123B600241F01EC84C3FFFFED8483FFFFEC44C300123406BDA8AC3262202E12EC44C30088
S123B620241F01EC84C30001ED848300013406EC44C30026E3E11F01E6474FE784EC44C388
S123B64000123406BDA9293262E6471D83000D10260045AE44EC88248302001026000CCC05
S123B6600001AE44E789022A202E12EC44C300241F01EC84C30001ED848300013406EC440D
S123B680C30026E3E11F01CC000AE784EC44C300123406BDA9293262AE44EC882483020027
S123B6A0102501234F5FAE44ED8824EC44C3001A3406EC44C300263406BDAE9B326483003B
S123B6C00010270007CCFFFF32C435C0EC44C300221F01EC84C30001ED84830001AE44EC37
S123B6E08822A3A8EF102600D24F5FAE44ED8822AE44EC04AE44ED08EC44C300043406CC5D
S123B70000023510EC8B3406EC44C30008C300021F013506ED84EC44C300043406EC44C37D
S123B72000083406EC44C300263406BDE3FC32664F5FED5BED5930593410EC44C300043408
S123B74006BDA990326483000010270007CCFFFF32C435C030593410EC44C300043406CC13
S123B76000013406EC44C300083406EC44C300263406BDE1D8326ACC0FFFED59CCFFFFED19
S123B7805B3055341030593410CC00013406EC44C300043406EC44C300263406BDE1D83281
S123B7A06AEC44C3001A3406EC44C300043406BDE19132644F5FAE44ED8824EC44C3001A98
S123B7C03406BDA92932627EBC4CAE44E689022B4F83000010260474CC0001AE44E7890243
S123B7E02BAE44EC882483020010240027AE44EC88243406EC44C30026E3E11F014F5FE75A
S123B80084EC44C300241F01EC84C30001ED8483000120CDEC44C3001A3406EC44C30026F3
S123B8203406BDAE9B326483000010270007CCFFFF32C435C030593410EC44C300043406BA
S123B840CC00013406CC00023406EC44C300263406BDE2DF326AAE44E68902294F83000109
S123B860102600A4EC44C3000C3406EC44C300263406BDAE0D326483000010270007CCFFC4
S123B880FF32C435C0AE44EC88103406EC44C30026E3E1ED5D30593410EC5DC3001C3406B4
S123B8A0BDE17C32643055341030593410EC44C300123406BDA8703266EC5DC3001C340630
S123B8C0EC44C300123406BDE17C3264EC44C3000C3406EC44C300263406BDAE9B326483CA
S123B8E0000010270007CCFFFF32C435C030553410CC00013406EC44C300263406BDE90187
S123B90032664F5F32C435C0EC37AE44ED08EC44C30008C300021F01EC39ED84EC44340608
S123B920EC44C300083406BDE19132644F5FAE44ED8822AE44EC8822A3A8EF102401EF4F9D
S123B9405FED59AE44EC8822ED5B3055341030593410EC443406BDA8DA326630553410ECE2
S123B96044C300263406BDAE0D326483000010270007CCFFFF32C435C04F5FAE44ED88249F
S123B980AE44EC8824A3311024018FAE44EC88243406EC44C30026E3E1ED5DAE44E6890233
S123B9A0284F8300001027000C4F5FAE5DE7844F5F32C435C0AE5DE6844F8300001027000B
S123B9C00CAE5DE6844F8300E51026013C4F5FE75FE65F4F83000B10240025EC44C3022C28
S123B9E03406E65F4F3510E68B4F3406E65F4FAE5D308B3506E784305FE6846C844F20D10D
S123BA00CC0020AE5DE70B4F5FAE5DE70C4F5FAE5DE70D4F5FED5BEC5DC3000E3406EC5B4F
S123BA203406BDE1743264EC5DC300163406EC5B3406BDE1743264CC5821ED5BEC5DC30002
S123BA40103406EC5B3406BDE1743264EC5DC300123406EC5B3406BDE1743264EC5DC300E2
S123BA60183406EC5B3406BDE1743264EC5DC300143406AE44EC881E3406BDE1743264EC9B
S123BA805DC3001A3406EC44C3001E3406CC00023510EC8B3406BDE1743264EC5DC3001C4F
S123BAA03406EC44C300123406BDE17C32644F5FED59AE44EC8822ED5B305534103059340F
S123BAC010EC443406BDA8DA326630553410EC44C300263406BDAE9B32648300001027009F
S123BAE007CCFFFF32C435C0CC0001AE44E7890228EC44C300123406CC00013406EC44C3F4
S123BB0000263406BDE9013266EC44C300241F01EC84C30020ED847EB980EC44C300221F9C
S123BB2001EC84C30001ED848300017EB9334F5FED5BED59EC44C300043406305934104FE4
S123BB405F3406EC44C300083406EC44C300263406BDE1D8326ACC0FFFED59CCFFF6ED5B85
S123BB6030593410EC44C300043406BDA9BB326483000010270088CC0FFFED59CCFFFFEDF3
S123BB805B30593410EC44C300043406BDA990326483000010270060EC44C300043406EC85
S123BBA044C300083406EC44C300263406BDE3FC326630553410EC44C300043406CC0001EA
S123BBC03406EC44C300083406EC44C300263406BDE1D8326A3055341030593410CC00012A
S123BBE03406EC44C300043406EC44C300263406BDE1D8326A200812CCFFFF32C435C04F33
S123BC005FED5BED5930593410EC44C300043406BDA990326483000010270007CCFFFF32EC
S123BC20C435C0AE44EC04AE44ED08EC44C300043406CC00023510EC8B3406EC44C300088E
S123BC40C300021F013506ED847EB91C200112CCFFFF32C435C0344033E43278BDAF77E616
S123BC60A8E74F83000010260059EC37EDA9FDAAEC39EDA9FDAC4F5FEDA9FDA64F5FEDA9E1
S123BC80FDA84F5FEDA9FDA030A9FDA2341030A9FDAA3410BDE19132643058341030A9FD33
S123BCA0A6341030A9FDA23410BDA8DA32663058341030A9FDD43410BDAE0D3264CC00016E
S123BCC0E7A8E74F5FE75C30A9FDD41F10E3A9FDA0ED5EAE5EE6844F8300001026000C4FD3
S123BCE05FE7A8E7CC000932C435C0AE5EE6844F8300E510270097AE5EE60B4F83000F10C2
S123BD0027008B4F5FE75DE65D4F83000B10240052E65D4FAE5EE68B4F83000A1026001A9A
S123BD20305CE6846C841D3406EC44C30005E3E11F01CC000DE784202112E65D1DAE5EE6FD
S123BD408B1D3406305CE6846C841D3406EC44C30005E3E11F013506E784305DE6846C8457
S123BD601D20A4E65C1D3406EC44C30005E3E11F014F5FE784AE5EE60B4FAE44E704EC44F7
S123BD803406EC5EC3001C3406BDE17C3264ECA9FDA0C30020EDA9FDA0ECA9FDA0A33110F4
S123BDA02500EA4F5FEDA9FDA030A9FDA63410BDA92932624F5FED58ECA8EFED5A30583433
S123BDC01030A9FDA63410BDA9903264830000102700964F5FEDA9FDA8EDA9FDA64F5FEDF6
S123BDE05AED5830A9FDAA3410305834104F5F340630A9FDAA341030A9FDD43410BDE1D800
S123BE00326ACC0FFFED58CCFFF6ED5A3058341030A9FDAA3410BDA9BB326483000010275A
S123BE20000C4F5FE7A8E7CC000932C435C04F5FED584F5FED5A3058341030A9FDAA341096
S123BE40BDA99032648300001027000C4F5FE7A8E7CC000932C435C030A9FDA2341030A913
S123BE60FDAA3410BDE19132643058341030A9FDA6341030A9FDA23410BDA8DA3266305867
S123BE80341030A9FDD43410BDAE0D3264E65C4F8300001027FE30CC000832C435C03440B2
S123BEA033E432E8E84F5FE7A8E74F5FEDA8EBEDA8E94F5FE7A8D530A8E9341030A9FDD4D4
S123BEC03410BDAE0D326483000010270007CC000332C435C030A9FDD41F10ED5EAE5EE67B
S123BEE0844F8300E910270082AE5EE6844F8300EB1027007630A9FDD41F10ED5CEC5CC339
S123BF0001FE3406BDE16E326283AA5510270007CC000332C435C030A8E9341030A89A341F
S123BF2010BDE17C326430A8E9341030A9FDD43410BDAE0D326483000010270007CC0002AD
S123BF4032C435C030A9FDD41F10ED5EAE5EE6844F8300E910270013AE5EE6844F8300EB20
S123BF6010270007CC000332C435C0EC5EC3000B3406BDE16E3262ED314F5FE7C8EBEC3150
S123BF80EDC8E84F5FE7C8EAE6C8EA4F83001010240030ECC8E88400C4018300001027003C
S123BFA00830C8EBE6846C844FCC00013406ECC8E83510BDECC4EDC8E830C8EAE6846C84BB
S123BFC04F20C5E6C8EB4F83000110270007CC000432C435C0AE5EE60D4FEDA8EF4F5FE75D
S10EBFE0C8EBECA8EFEDC8E87EE00021
S123E0004F5FE7C8EAE6C8EA4F83001010240030ECC8E88400C4018300001027000830C838
S123E020EBE6846C844FCC00013406ECC8E83510BDECC4EDC8E830C8EAE6846C844F20C5E6
S123E040E6C8EB4F83000110270007CC000432C435C0EC5EC3000E3406BDE16E3262EDA8CD
S123E060ED30373410EC5EC3002C3406BDE17C326430503410EC5EC300243406BDE17C3266
S123E080643058341030503410AE5EE688101D3406BDA78C3266303B3410EC5EC3001C3413
S123E0A006BDE17C32644F5FED50ECA8EDED5230C8EC341030503410303B3410BDA8DA32EF
S123E0C066303B34103058341030C8EC3410BDA8DA326630543410EC5EC300203406BDE18F
S123E0E07C32644F5FED50ECA8EDED5230C8EC34103050341030543410BDA87032663054BA
S123E10034103058341030C8EC3410BDA870326630333410ECA8EF340630543410BDA720A6
S123E12032664F5FED52ED5030C8EC3410305034104F5F3406CC0001340630A9FDD4341050
S123E140BDE2DF326A3033341030C8EC3410BDA9BB3264830000102700084F5FE7A8E82014
S123E1600712CC0001E7A8E84F5F32C435C0ECF8021E8939EC621E89EDF80439342010AEB6
S123E18064AE66ECA4A703E702EC22A701E78435A0344033E432784F5FED5CCC0002ED5EA5
S123E1A030583410305C3410EC443406BDA8703266305C341030583410ECA8EF3406BDA72B
S123E1C08C3266EC463406303B3410305C3410BDA8DA326632C435C0344033E432713055B7
S123E1E03410EC463406CC00043406BDA78C326630513410EC31340630553410BDA720323E
S123E200664F5FED5AECA8EDED5C30553410305A341030513410BDA8DA3266305A341030A4
S123E220A8E9341030553410BDA8DA3266EC318300013406AE46EC0258495849A4E0E4E01E
S123E240ED5E4F5FE759E6594F83000A1024002E305A3410EC443406BDAE0D32648300003B
S123E260102700044F5F2003CC000183000010270003200A123059E6846C844F20C8E6497F
S123E2804F8300001026002E30553410EC5EE3443406BDE17C3264CC0FFFED51CCFFFFED51
S123E2A053EC4C34063051341030553410BDA6F9326632C435C0EC5EE3443406EC4A34060D
S123E2C0BDE17C3264305A3410EC443406BDAE9B32644F5FAE4CED02EDD80C32C435C0342F
S123E2E04033E43276EC44ED5EECA8E9ED5AECA8EBED5C305A3410BDA9293262305A341055
S123E300EC443406BDAE0D3264CCFFFFAE4CED02EDD80C30563410EC5E3406BDE17C3264FF
S123E320EC5683416110260009EC588352521027000432C435C030563410EC5EC301E434B2
S123E34006BDE17C3264EC5683614110260009EC588372721027000432C435C030563410C2
S123E360EC5EC301FC3406BDE17C3264EC5683AA5510260009EC588300001027000432C4AA
S123E38035C0E6494F83000010260032E6474F83000110260014EC4C3406EC5EC301E83435
S123E3A006BDE17C326432C435C0EC4C3406EC5EC301EC3406BDE17C326432C435C0E6474A
S123E3C04F83000110260013EC5EC301E83406EC4A3406BDE17C3264201112EC5EC301EC90
S123E3E03406EC4A3406BDE17C3264305A3410EC443406BDAE9B326432C435C0344033E475
S123E40032E8EFECD806ED5CAE46EC0284FFC480ED5E305C341030333410BDA9BB32648337
S123E42000001027010930C8EF3410305C3410CC00043406BDA78C326630533410EC3134F2
S123E4400630C8EF3410BDA72032664F5FED58ECA8EDED5A30C8EF34103058341030533402
S123E46010BDA8DA32663058341030A8E9341030C8EF3410BDA8DA326630583410EC4434AE
S123E48006BDAE0D32644F5FE757E6574F8300801024007430533410E6571D58495849E3FB
S123E4A0443406BDE17C3264CC0FFFEDC8EFCCFFFFED513053341030C8EF341030533410EB
S123E4C0BDA6F932664F5FED51EDC8EF30C8EF341030533410BDA99032648300001027007C
S123E4E01E4F5FED53E6574FED55EC48340630533410305C3410BDA8DA326632C435C03047
S123E50057E6846C841D20824F5FED53CC0080ED5530C8EF341030533410305C3410BDA8E4
S123E520DA3266ECC8EFED5CEC51ED5E7EE4124F5FAE48ED02EDD80832C435C0344033E4A7
S123E54032734F5FE754E6544F83000C1024001BE6541DAE44E68B1D83002E1026000320E1
S123E5600A123054E6846C841D20DBE6544F83000810230007CC000432C435C04F5FE75394
S123E580E6544F3406E6534FA3E11024001EE6534FAE44E68B4F3406E6534F3055308B35E5
S123E5A006E7843053E6846C844F20D4E6544FE753E6534F83000710220015E6534F30559D
S123E5C0308BCC0020E7843053E6846C844F20E13054E6846C844FCC0008E753E6534F83B2
S123E5E0000B10240050E6541DAE44E68B1D8300001027001C3054E6846C844FAE44E68B4B
S123E6004F3406E6534F3055308B3506E784201D12E6534F83000B102400123053E6846CFB
S123E620844F3055308BCC0020E78420E43053E6846C844F20A64F5FE754E6544F83000B76
S123E64010240057E6544F3055E68B4F8300611025002AE6544F3055E68B4F83007A10221D
S123E660001BE6541D3055E68B1D8300203406E6541DAE44308B3506E784201612E6541DEB
S123E6803055E68B1D3406E6541DAE44308B3506E7843054E6846C841D209F4F5FAE44E73E
S123E6A00BCC000332C435C0344033E432E8E6EC37ED5BEC39ED5DEC46C3022C3406BDE52D
S123E6C03C3262E75FE65F4F8300031026022BCC0055E75F30533410305B3410BDE1913245
S123E6E0644F5FED574F5FED59EC59A3A8EF10240140E65F4F8300551026013630C8ED34E6
S123E700103057341030533410BDA8DA326630C8ED3410EC46C300263406BDAE0D32644FA1
S123E7205FEDC8E7ECC8E7A331102400F8E65F4F830055102600EEEC46C30026E3C8E7ED15
S123E74051AE51E6844F83000010260008CC0001E75F7EE825AE51E6844F8300E5102700F6
S123E760B8AE51E60B4F83000F102700AC4F5FE7C8E6E6C8E64F83000B1024002EEC46C31E
S123E780022C3406E6C8E61D3510E68B1D3406E6C8E61DAE51E68B1DA3E110270003200B28
S123E7A01230C8E6E6846C841D20C7E6C8E64F83000B10260063EC46C3000C340630573407
S123E7C01030533410BDA8DA3266ECC8E7AE46ED8810EC51C300143406BDE16E3262AE4691
S123E7E0ED881EEC51C3001A3406BDE16E32623406EC46C3001EC300021F013506ED84ECC4
S123E80046C300123406EC51C3001C3406BDE17C32644F5FE75F200D12ECC8E7C30020EDFB
S123E820C8E77EE724EC59C30001ED598300017EE6E9E65F4F83005510260061305B3410AA
S123E8404F5F34064F5F3406305B3410EC46C300263406BDE1D8326ACC0FFFEDC8EDCCFF67
S123E860F6EDC8EF4F5FEDC8E94F5FEDC8EB30C8ED3410305B3410BDA9BB3264830000101E
S123E88026001530C8E93410305B3410BDA990326483000010270005CC0005E75FE65F4F4F
S123E8A08300551027FE2DE65F4F83000010260049E6454F8300001026003FEC51C30014FE
S123E8C03406BDE16E3262AE46ED04EC51C3001A3406BDE16E32623406EC46C30004C3008B
S123E8E0021F013506ED84EC46C300123406EC51C3001C3406BDE17C3264E65F4F32C43540
S123E900C0344033E43278ECD808ED58AE48EC02ED5AEC483406CC0200340630583410BDC3
S123E920A7203266EC5A8401C4FF83000010270009EC483406BDA9293262ECD808ED58AED3
S123E94048EC02ED5AEC483406CC0008340630583410BDA7203266EC5A8400C407830000BA
S123E96010270009EC483406BDA9293262E6A8E84F830000102700724F5FED5AED58305C0B
S123E9803410305834104F5F3406CC00013406EC443406BDE2DF326AEC5CED58EC5EED5AD2
S123E9A0E6474F83000010260014305C3410EC48340630583410BDA8DA3266201212305C59
S123E9C03410EC48340630583410BDA870326630583410305C3410CC00013406CC000134A4
S123E9E006EC443406BDE2DF326A32C435C0344033E432E8DEEC37ED58EC39ED5A30C8EC63
S123EA00341030583410BDE19132644F5FED5C4F5FED5EEC5EA3A8EF1024021C30C8E83443
S123EA2010305C341030C8EC3410BDA8DA326630C8E8341030A9FDD43410BDAE0D32648350
S123EA40000010270007CCFFFF32C435C04F5FEDC8E0ECC8E0A331102401D030A9FDD41F46
S123EA6010E3C8E0EDC8E2AEC8E2E6844F83000010260007CC000132C435C0AEC8E2E68415
S123EA804F8300E510270197AEC8E2E60B4F83000F1027018A4F5FEDC8DEECC8DE83000B9F
S123EAA01024002AECC8DEAE44E68B1D3406ECC8DEAEC8E2E68B1DA3E110270003200F1231
S123EAC0ECC8DEC30001EDC8DE83000120CCECC8DE83000B10260147ECC8E2C30014340694
S123EAE0BDE16E3262ED54ECC8E2C3001A3406BDE16E3262ED56CC00E5AEC8E2E78430C835
S123EB00E83410305C341030C8EC3410BDA8DA326630C8E8341030A9FDD43410BDAE9B32AC
S123EB206483000010270007CCFFFF32C435C030C8E83410ECC8E2C3001C3406BDE17C32D8
S123EB406430C8E834104F5F340630A9FDD43410BDE90132664F5FEDC8EAEDC8E83058346E
S123EB601030C8E834104F5F3406CC0002340630A9FDD43410BDE2DF326A30543410305815
S123EB803410BDA9BB32648300001027001E30C8E8341030543410CC00013406CC000234A9
S123EBA00630A9FDD43410BDE2DF326A4F5FEDC8EAEDC8E83050341030C8E834104F5F348F
S123EBC0063054341030A9FDD43410BDE1D8326A30C8E8341030C8E83410CC0001340630E4
S123EBE054341030A9FDD43410BDE1D8326ACC0FFFEDC8E8CCFFF6EDC8EA30C8E83410304E
S123EC00503410BDA9BB3264830000102700064F5F32C435C0EC50ED54EC52ED56208DECB5
S123EC20C8E0C30020EDC8E07EEA52EC5EC30001ED5E8300017EEA134F5FEDC8EAEDC8E8B4
S123EC403058341030C8E834104F5F34063058341030A9FDD43410BDE1D8326ACC0FFFED45
S123EC60C8E8CCFFF6EDC8EA4F5FEDC8E44F5FEDC8E630C8E8341030583410BDA9BB326449
S123EC808300001026001530C8E4341030583410BDA990326483000010270007CC0001326A
S123ECA0C435C07EE9FD32C435C03436A6E4E6633DE764EC613DE765A661E6633DAB64AB66
S123ECC0653266398C00002B08270E4456301F20F827065849300120F8394050820039F773
S123ECE0C800390D76657273696F6E20322E312E302E330D323031342D323032332C205226
S123ED006574726F2036383039205342430D68747470733A2F2F6769746875622E636F6D7E
S123ED202F616B756E642F726574726F2D363830392D5342430D0D00C8821A5010CE7D5DA3
S123ED408E7FF24F5FED81ED81ED81ED81ED81ED81ED818EECE3BDF91C8EE0003410308966
S123ED60200034104F5FB3FFF03406BDFA6432668EFFF0BDFA2DBDF924BDF2EDFC8000108B
S123ED80B3ED3826268E800034103089400034104F5FB380003406BDFA6432668E8000BD23
S123EDA0FA2D5D2606BDEE1EBDAA84327F327E33E4BDF357BDEE9C8130260CA1422708A789
S123EDC0428EEDDABDF91CECC48300012608C62EF7C800CC1FFFEDC420D70D41504C2072A3
S123EDE0657365740D007EEF3CB7C8001F893406BDEF6135867EEF817EEF853406BDEFA415
S123EE00358634045F340434023404BDF00532643934024F34023406BDEFC1326439341000
S123EE207F7FF07F7FF18639B77FE37F7FE47F7FE5BDF0AC8EFFFF301F2742BDEEBCC1315E
S123EE4026F58EEE80BDF91CC6203406BDFACDC60D3406BDFAEDBDFAED32645FBDEFA48EF9
S123EE60ECF4E68027114F3406BDEF613262BDEEBCC13126F920EBCC8002FD7FF03510392B
S123EE800D7374617274696E672042415349432070726F6365737320494420008D1EC131EA
S123EEA026193447BE7FF0271010FF7FEECCEEB5FD7FF06E8410FE7FEE35473934108E00E5
S123EEC0018D514D2748C15526448EFFFF8D454D273CC161261B8D3C4D273334048D354DEB
S123EEE0270BC10D26073504F77FE320213261201DC16B26198D1D4D27148D184D270F3445
S123EF00048D114D27E7C10D26E335048D114FF67FE33590BDF0CB4D2604301F26F639340F
S123EF20108E7FE6B67FE430864C810825014FB17FE52705B77FE4E784351039BDEF595D0B
S123EF40271634108E7FE6B67FE5E68635104C810825014FB77FE54F39F67FE4F07FE54F85
S123EF6039BDF0E2BDF0EAC644F7D000C666F7D000C631F7D000E663F7D000C60DF7D00002
S123EF80398662200286303402BDF0E2BDF0EA3502C644F7D000C663F7D000B7D000C60DC6
S123EFA0F7D00039BDF0E2BDF0EAC644F7D000C66CF7D000E663CB30F7D000C60DF7D000B8
S123EFC039BDF0E2BDF0EAC644F7D000C670F7D000E663CB30F7D000E665CB30F7D000C622
S123EFE00DF7D00039BDF0E2BDF0EAC644F7D000C674F7D000C631F7D000E663F7D000C674
S123F0000DF7D00039BDF0E2BDF0EAC644F7D000C66FF7D000E663F7D000E665F7D000C604
S123F0200DF7D00039BDF0E2BDF0EAC644F7D000C673F7D000E663CB30F7D000C60DF7D023
S123F0400039BDF0E2BDF0EA3410C644F7D000C664F7D000C650F7D000E665CB30F7D0005D
S123F060AE66C620A680B7D000BDF0E2BDF0EA5A26F2C60DF7D0003590AE62C630E701E61A
S123F08065E784C634E7015FE78439E665E7F80239E6F8024F39AE62E601CA08AE62E70129
S123F0A039AE62E601C4F7AE62E701398680B7D0038611B7D0008600B7D0018601B7D00264
S123F0C08603B7D0038601B7D00139B6D00584012703F6D000395F5A2707B6D0058401277A
S123F0E0F639B6D005842027F939B6D006841027F939302E392E302E30000D73746172744E
S123F100696E67206D6F6E69746F722070726F6365737320494420000D4D6F6E69746F72A4
S123F12020666F72203638303920436F6D70757465722076000D636F6D6D616E64206D658A
S123F1406E750D72205B666972737420616464725D20286F7074696F6E616C205B6E207265
S123F16065706561745D2920726561647320746865206164647265737365730D77205B6128
S123F1806464725D205B646174615D2C206F7074696F6E616C205B6E207265706561745DC9
S123F1A02077726974657320746F20746865206164647265737365730D65205B7372635DB9
S123F1C0205B6473745D205B6C656E6774685D20286F7074696F6E616C205B70726F74655B
S123F1E06374696F6E5D2920636F7069657320746F20666C617368206D656D6F72790D6C62
S123F200206F72206C205B6F66667365745D206C6F61647320612053526563206461746103
S123F2200D67205B616464725D206578656375746573206174207468652061646472657374
S123F240730D73205B70726F636573732049445D2073746F7073207468652070726F636540
S123F26073730D62205B616464725D207365747320646562756767696E67206D6F64652032
S123F2806120627265616B706F696E742061742074686520616464726573730D71207175DA
S123F2A069747320646562756767696E67206D6F64650D42205B4241534943206C696E6575
S123F2C020656E7472795D0D4C206C6F61647320612042415349432070726F6772616D0DC7
S123F2E0682074686973206D656E750D00CC0000FD7FBDBDF3221CEF8EF0FABDF91CC610E6
S123F3003406BDFACDC60D3406BDFAED3264398EF118BDF91C8EF0F2BDF91C8EF135BDF996
S123F3201C397F7FC07F7FC17F7FE2395FB67FE22724F67FC1F17FC0271634108E7FC2A6C1
S123F3408535105CC12025015FF77FC1C60120047F7FE25F1CEF398DD35D273E8168273B0B
S123F360817227468177102700B681651027019B816C1027028D8167102703678173102724
S123F38003A18162102703FE81711027047C814210270505814C102704BC398D8F5D270957
S123F3A0810D1026052BBDF30F393440327E327E33E44F5FED42BDF8D8C1202615BDF8D85F
S123F3C05D270FAFC4C10D2714BDF8D8AF42C10D270BBDF8D120420D72656164008EF3D7B3
S123F3E0BDF91CC60DBDECDFECC43406BDFA983262C620BDECDFE6D43406BDFACD3262ECA9
S123F40042108300002712830001ED42ECC4C30001EDC4C41F27CC20D8326232623540395E
S123F4203440327E327F327E33E44F5FED43BDF8D8C120262CBDF8D8C10D2725C1202621BF
S123F4408CE000241CAFC4BDF8D81E10E7421E10C10D271AC1202609BDF8D8AF43C10D27E4
S123F4600DBDF8D12048120D7772697465008EF467BDF91CC60DBDECDFECC43406BDFA98F4
S123F4803262C620BDECDFE6423406BDFACD3262A642A7D4EC43108300002712830001ED1D
S123F4A043ECC4C30001EDC4C41F27C820D43262326132623540390D77726974696E672080
S123F4C00020627974652873292066726F6D200020746F20002C20706C65617365207761BB
S123F4E06974202E2E2E000D656570726F6D2077726974696E6720646F6E652C200043680B
S123F50065636B53756D31363A20003440BDF8D8C120262FBDF8D83410C1202624BDF8D8FE
S123F5203410C1202619BDF8D834108E0000C10D2717C1202607BDF8D8C10D270C32623296
S123F540623262BDF8D1205F12341033E48EF4B7BDF91CEC423406BDFA9832628EF4C1BDE9
S123F560F91CEC463406BDFA9832628EF4D0BDF91CEC443406BDFA9832628EF4D5BDF91C89
S123F580BDF9368EF4E7BDF91C8EF4FEBDF91CEC443406E34234064F5F3406BDFA6432668A
S123F5A03406BDFA983262326835C00D73656E64206E6F772074686520535265632064619D
S123F5C074612C204F66667365743D002062797465287329204020616464723A007265633B
S123F5E0657074696F6E20636F6D706C657465640D0020636865636B73756D206572726F43
S123F6007221003440327E327E327F327F33E44F5FED42BDF8D8C10D270BC120261ABDF8C6
S123F620D8C10D2613AF428EF5ABBDF91CEC423406BDFA9832622006BDF8D17EF6C0BDF31B
S123F640325D27FA815326F6BDF3325D27FA8131266E6F418602BDF8FC3404EB41E74135B6
S123F66004C003E7C4C60DBDECDFE6C43406BDFACD32628EF5CCBDF91C8604BDF8FCED4430
S123F680AB41A741EB41E741EC44A342ED443406BDFA9832628602BDF8FC3404EB41E74116
S123F6A03504AE44E780AF446AC426E98602BDF8FCE841C1FF27068EF5F2BDF91C7EF63E3C
S123F6C0C60DBDECDF8EF5DDBDF91C32613261326232623540390D676F2061646472657327
S123F6E0732000BDF8D8C1202607BDF8D8C10D2705BDF8D1201D34108EF6D6BDF91CECE44E
S123F7003406BDFA983262CCFFFF83000126FB3510AD84390D73746F702070726F6365732B
S123F720732000BDF8D8C1202607BDF8D8C10D2705BDF8D1201D34108EF714BDF91CECE4CE
S123F7403406BDFACD32623506C12026067F7FF07F7FF1390D73657420627265616B6B709C
S123F7606F696E74206164647265737320000D627265616B6B706F696E74206578697374B1
S123F780696E67212000BDF8D8C1202615BDF8D8C10D260E8C000025098C7FFF2204341080
S123F7A02005BDF8D12036FC7FBD10830000270E1083000127088EF76EBDF91C201F8EF7F8
S123F7C054BDF91C3506FD7FBD3406BDFA983262A69F7FBDB77FBF863FA79F7FBD390D71FA
S123F7E075697420646562756767696E67206D6F6465000D6E6F7420696E206465627567A6
S123F80067696E67206D6F646500FC7FBD10830000271F34068EF7DEBDF91C35061083002C
S123F820012707B67FBFA79F7FBDCC0000FD7FBD20068EF7F3BDF91C390D73656E64206E2C
S123F8406F7720746865204241532066696C650D00454E440D00BDF32C5D10270073810D45
S123F8601026006D8EF839BDF91C8EF851BDF3325D27FA810A27F634121F89BDEF1FBDEE0D
S123F8809CBDEF595D26F73512A18026DD1F1083F8511083000425D539BDF8D8C120263154
S123F8A0BDF3325D271634021F89BDEF1FBDEE9CBDEF595D26F73502810D26E4390D696E6D
S123F8C076616C696420636F6D6D616E6421210D008EF8BDBDF91C398E0000BDF32C5D278A
S123F8E01A1F8981202714810D2710BDFB1334021F10BDFA80EBE01F0120E03934028E0052
S123F90000BDF3325D27FABDFB1334021F10BDFA80EBE01F016AE426E83261393410BDFA0E
S123F92089326239B6D0048A01B7D00439B6D00484FEB7D0043934703368ECC41083000042
S123F94027028D2D10AE44AE46EC423406A680A1A42705A7A4BDF9DF3121ECE4830001ED58
S123F960E426EA3262ECC41083000027028D4135F034111A508DB68E955586AAA7848DA4A6
S123F9808EAAAA8655A7848DA48E95558680A7848E955586AAA7848D8B8EAAAA8655A784CE
S123F9A08D8B8E95558620A784BDF9248D31359134111A50F68000BDF92D8E955586AAA72D
S123F9C084BDF9248EAAAA8655A784BDF92D8E955586A0A784BDF924F780008D0235914F3C
S123F9E0C60A3406BDFB2635860D524F4D207665726966696564000D436865636B53756DD7
S123FA0031362000207761732063616C63756C6174656420696E737465616420002C2052F8
S123FA204F4D206661696C757265210D0010A384272A341034068EF9F7BDF91CBDFA983219
S123FA40628EFA04BDF91C3510EC843406BDFA9832628EFA1DBDF91CC60120078EF9E9BD7E
S123FA60F91C5F3934503366AE44EC81E3C4EDC4AC4226F635D05FA68027045C20F94F3945
S123FA805849584958495849393410AE64E6802705BDECDF20F7359034403364C624BDECBB
S123FAA0DFE6C43406BDFAF3326234041F89F7C8003504F7C800E6413406BDFAF3326234D7
S123FAC0041F89F7C8003504F7C80035C034403364C624BDECDFE6413406BDFAF33262347A
S123FAE0041F89F7C8003504F7C80035C0E663BDECDF39A663444444448D0B1F89A66384BA
S123FB000F8D031E8939840F810922048B3020028B373981392204840F200A81462204803D
S123FB20372002805739CC011A83000126FBEC62830001ED621083000026EB39BE7FF82772
S123FB40026E848E7FC2B67FC030864C812025014FB17FC1260BA6E48A10A7E47C7FE22003
S123FB600FB77FC0B6C000810D26037C7FE2A7843B7D7FF626057D7FF727046E9F7FF63B14
S123FB80BE7FFC27026E843B0D446562756767696E67204D6F64653A2050726F6772616D62
S123FBA020657865637574696F6E2073746F707065642E20456E7465722061206E657720D7
S123FBC0627265616B706F696E74206F7220717569740D0050432C20532C20552C20592C5D
S123FBE020582C2044502C20442C2043430D002C2000BE7FFA27026E848EFB88BDF91C8E2B
S123FC00FBD4BDF91CEC6A830001ED6A3406BDFA9832628EFBEFBDF91C1F40CB0C3406BD7A
S123FC20FA9832628EFBEFBDF91CEC683406BDFA9832628EFBEFBDF91CEC663406BDFA98BA
S123FC4032628EFBEFBDF91CEC643406BDFA9832628EFBEFBDF91CE6633406BDFACD326270
S123FC608EFBEFBDF91CEC623406BDFA9832628EFBEFBDF91CE6E43406BDFACD32628EFBDC
S123FC80EFBDF91CB67FBFA79F7FBDCC0001FD7FBD1CEFBDF357FC7FBD1083000127F43BEF
S113FFF0FBCDFC9FFC9FFB71FB3CFBF2FB80ED3ACD
S50302F703
