S12300000000000000000000000000000000000000000000000000000000000000000000DC
S12300200000000000000000000000000000000000000000000000000000000000000000BC
S123004000000000000000000000000000000000000000000000000000000000000000009C
S1230060000000000000000000000000000000000000000000000000000000000C842602C4
S12300800C83B600007E8320000000000000000000000000000000000000000000000000F6
S12300A000000000000000000000000000000000000000000000000000000000000000003C
S12300C000000000000000000000000000000000000000000000000000000000000000001C
S12300E00000000000000000000000000000000000000000000000000000000000000000FC
S12301000000000000000000000000000000000000000000000000000000000000000000DB
S12301200000000000000000000000000000000000000000000000000000000000000000BB
S123014000000000000000000000000000000000000000000000000000000000000000009B
S123016000000000000000000000000000000000000000000000000000000000000000007B
S123018000000000000000000000000000000000000000000000000000000000000000005B
S12301A000000000000000000000000000000000000000000000000000000000000000003B
S12301C000000000000000000000000000000000000000000000000000000000000000001B
S12301E00000000000000000000000000000000000000000000000000000000000000000FB
S10B02000000000000000000F2
S1238000F1F51A504F1F8B7E808B347F10DF6FBE7FF0CC801AFD7FF06E8410DE6F35FFFCFB
S12380200205272634303406BDB5573262C11A2611FC02053406BDB4B832627F02057F02DA
S1238040075F35301F98847F26048D0327FC398DB93404BDEF491F98847F358434060D6EE6
S1238060271434361F893406FC02053406BDB675326435362003BDEF4C810D27080C79965C
S123808079917825020F798D813586FE7FF08E02086F83300126FA8E02076F809F198E7C52
S12380A0FFFF7FF09F719F279F233089FF389F211F148E80E4CE0076C612BD81DF86399753
S12380C0DEBD86558E00A39F8D0F6E7F02057F0207CE8D66C60AEF815A26FB8E8113BD9251
S12380E0927E85B7104050008D660C8426020C83B600007E83207E8D66804FC752593B830F
S12381007E84AD1D8440832F00000000000000000000000036383039204449534B2045583A
S12381205420434F4C4F522042415349430D2843292031393832204259204D4943524F5389
S12381404F46540D0D0034169E76DC789F6AD76C976D35960F738E00E2C601BD801F8108AD
S123816026075A27EF301F20348115260A5A27E48608BD805C20F681031A012705810D26D4
S12381800D4F3401BD92536F848E00E13581812025C9817B24C5C1FA24C1A7805CBD805C60
S12381A020B92705BD90579F7A6E9F007A7E873CBD8D001083027F10220BAB3404584958BA
S12381C04958493504C41FBDEF743996732603BD804F0F73975310260DD097567E8FB6A6A9
S12381E080A7C05A26F9399D8227FB7E8B998D193406BD90525D2704C1072302C602BD8BFB
S12382008935043502BDEF7439BD8B8CBD90253404BD9052350239270ABD90255D2704C18F
S1238220072302C602BDEF5E39BD8B8FBD90255D261032617E8D668DF334048DEC3502BDFE
S1238240EF65391FA8C66420041FA8C67434048D0B35028C0000102700C5204E1F8A272A80
S12382603404C1642705BD9025200BBD90571F108307BC2A015F3404BD8B8FBD9025340478
S1238280BD8B8FBD902534042008C6644F34065F3406BDF21932647F7FE18E01F4BD800ADE
S12382A0301F27057D7FE127F439817427364FF67FE054C307BC3440BD96C23540862FBDCE
S12382C0805CFC7FE084018E00054456301F26FA3440BD96C23540862FBD805C4FF67FE151
S12382E0C41F20334FF67FE25454543440BD96C23540863ABD805CFC7FE284078E0005448C
S123830056301F26FA3440BD96C23540863ABD805CF67FE3C41F584F3440BD96C235403924
S1238320813A240A812026020E7C803080D039957095E49589009B9815986A906A8F9C8E2B
S12383401990308FBB8FA7991898E298EA9A599A8B99AE9C1399E8A0E28FC68FE28FE98143
S1238360CB8E0A9C1B9CDB9CAB7992BB7992B27B93C27B94877F99F1508BF1468BF0464F0D
S1238380D247CF5245CDA7454C53C549C6444154C15052494ED44FCE494E5055D4454EC403
S12383A04E4558D44449CD524541C45255CE524553544F52C55245545552CE53544FD05075
S12383C04F4BC5434F4ED44C4953D4434C4541D24E45D75345D4434CD3534F554EC4455805
S12383E045C34445CC454449D454524FCE54524F46C64445C64C494EC552454E55CD444927
S1238400D24B494CCC4C4F41C4534156C5444154C554494DC5544142A854CF5355C2544896
S123842045CE4E4FD4535445D04F46C6ABADAAAFDE414EC44FD2BEBDBC46CE5553494EC749
S12384405347CE494ED44142D35553D2524EC45349CE504545CB4C45CE535452A45641CCA3
S12384604153C3434852A44154CE434FD35441CE4558D04649D84C4FC7504FD35351D2488F
S12384804558A44C454654A45249474854A44D4944A4494E4B4559A44D45CD564152505418
S12384A0D2494E5354D2535452494E47A4868387CC882988298829885A882692048888892D
S12384C03587538A1A8C6A896F87C18735880687579071877C9078878D865381EE82178204
S12384E03781A29E879A9A9C0E9C0F9DCDA5759F11A57EA589A594A5A0824382494E4653F6
S12385004E52474F4446434F564F4D554C425344442F304944544D4F534C535354434E4609
S123852044414F444E494F464D4E4F4945445355464E45204552524F520020494E20000D28
S12385404F4B0D000D425245414B003064C6129F0FA68480802615AE019F119E3B27099C7B
S12385601127099E0F3A20E59E119F3B9E0F4D398D17DE4133419E433001A68236029C4782
S123858026F8DF45394F58D31FC3003A250810DF1710931725EEC60CBD866FBD9257BD924D
S12385A0A58E84FD3A8D378D358E8532BD929296684C2703BD96BBBD9257BDEF588E853F9F
S12385C0BD9292BD8154CEFFFFDF6825F69F839D7C27F0250EBDEF5BBD91317E870AA680B6
S12385E07E92A7BD88AD9E2B9FDFBD9131D7038D4C2512DC47A384D31BDD1BEE843702A79C
S1238600809C1B26F896E1271CDC1BDD43DB038900DD41BD8570CE00DD3702A7809C4526E7
S1238620F89E419F1B8D368D0220989E19EC8427213304A6C026FCEF84AE8420F0DC2B9E13
S123864019EE84270910A3022306AE8420F31A019F473926FB9E196F806F809F1B9E19BD1A
S123866088019E279F23BD87359E1B9F1D9F1F8E00B79F0BAEE410DE216FE20F2D0F2E0FD1
S1238680086E8486809708BD88CFBD854B326226049E0F3285C609BD8585BD882EDC6834F3
S12386A016C6A9BD8B91BD8A65BD8A63D654CA7FD450D750108E86BB7E8B0C8E93BBBD9522
S12386C00A9D8281AD26059D7CBD8A63BD9563BD8B08DC3B3406868034028D609E839F2FE3
S12386E0A6802707813A27227E8B99A68197002772EC80DD689F83968C270F865BBD805C80
S12387009668BD96C2865DBD805C9D7C8D0220CA27294D102A01B881FF270F81A722C9BE1D
S12387208101481F893A9D7C6E949D7C8197102715017E8B999E19301F9F3339BD804F278A
S12387400A8103271281132703977339BD804F27FB20EE9D8220021A0126319E839F2F06E9
S12387600032629E688CFFFF27069F299E2F9F2D8E85430D00102AFE3E7E85AC260EC620A1
S12387809E2D1027FE129F839E299F6839272CBD8D0234069E279D82270CBD8B8FBD90572F
S12387A0301F9C7122181F10A3E125121F0383003A250B931B2507DF219F277E86627E851D
S12387C0969D821027FE96BD866220191F899D7CC1A92716C1AA2645C603BD8585DE839E6A
S12387E06886AA34528D037E86DA9D82BD88AD8D403001DC2B10936822029E19BD86412544
S123880017301F9F833926FD86FF973BBD854B1F14812A270BC6048CC60E7E85987E8B9915
S123882035529F68DF838D068C8D069F8339C63A865FD7015F9E831F98D6019701A6842783
S1238840EC3404A1E027E63001812227EA4C26023001818626E70C0420E3BD8A639D828167
S1238860812705C6ABBD8B91964F26130F048DB64D27BA9D7C818426F50A042AF19D7C9D43
S1238880821025FF657E8710BD9025C681BD8B91340281AA270481A926830A5326053504F2
S12388A07E87CE9D7C8D06812C27EF35849E749F2B246180309701DC2B811822DB5849587A
S12388C049D32B5849DB018900DD2B9D7C20E2BD8C739F3BC6B7BD8B9196063402BD8A78A7
S12388E0350246BD8A6A10270C3F9E52DC2110A30224119C1B250DE684BD8E299E4DBD8FEF
S12389005E8E00569F4DBD8F90DE4D9E3B3726A78410AF02393F5245444F0D007E8598961C
S12389200927079E319F687E8B998E8914BD92929E2F9F8339C6169E68300127DF8D013970
S12389408122260BBD8B66C63BBD8B91BD92958E00E16F848D06C62CE7842016BD92A5BD9A
S123896092A2BD8154240532647E875FC62E399E33864F97099F35BD8C739F3B9E839F2B42
S12389809E35A684260996092651BD92A58DCD9F839D7CD60627239E8397018122270E3021
S12389A01F4F9701BD8146863A9701862C9702BD8E3ABD8B6BBD88EA2006BD9608BD952923
S12389C09D822706812C1026FF529E839F359E2B9F839D822721BD8B8F209C9F83BD882EA4
S12389E030014D260AC606EE812741EC81DD31A684818626E620989E35D6091026FD3AA6ED
S1238A008427068E8A097E9292393F45585452412049474E4F5245440D0026049E7420034E
S1238A20BD8C739F3BBD854B2704C60020471F143003BD950AA66897549E3BBD92B8BD95CA
S1238A40293069BD958CE068270CAE6E9F68AEE8109F837E86DA32E8129D82812C26F49D7F
S1238A607C8DBD8D131CFE7D1A010D0625032A998C2B96C6187E85988D6E4F8C34043402D2
S1238A80C601BD8585BD8B450F3F9D8280B625138103240F810149983F913F2564973F9DB7
S1238AA07C20E9D63F26331024006B8B07246799061027047589FF340248ABE08E83693079
S1238AC0863502A18424558D9C34028D299E3D3502261D4D1027006A204B0806598D098EE9
S1238AE08AEDD73F0F0620D99E837E8801648C10A184243120D3EC0134068D08D63F7E8A69
S1238B007C7E8B99D654A68435203404D64F9E50DE5234546EA49E74A6E027268164270381
S1238B20BD8A659F3D3504815A2719817D271554D70A3552975C9F5DDF5F3504D761D85495
S1238B40D762D64F39BD9DA20F069D7C24037E9608BD8CBE2450812E27F481B0274081AF00
S1238B6027E38122260A9E83BD8E349E649F833981AC260D865ABD8A7CBD8D0943537E8E1F
S1238B80104C272E8D06BD8A78C6298CC6288CC62CE19F008326020E7CC6027E8598867DCC
S1238BA0BD8A7C7E97DFBD8C739F52960626957E950A9D7C1F89589D7CC138230220DA345B
S1238BC004C12A251EC130241C8DC1A6E4BD8A788DBDBD8A683502DE523442BD9025350218
S1238BE034068E8D9F3504BE81063AAD947E8A65864F9703BD8D09DD01BD9540BD8D090D85
S1238C000326069401D40220049A01DA027E8E10BD8A6A261096618A7F945D975D8E005C49
S1238C20BD958C20360F060A3FBD8F72D7569F589E5FBD8F7496563404A0E0270786012482
S1238C4003D656409754DE585C5A2604D654200BA680A1C027F3C6FF240150CB0159D40A6D
S1238C602702C6FF7E9572BD8B8FC6018D089D8226F5395F9D82D70597379D828D4010258E
S1238C80FF175FD7069D7C25048D33250A1F899D7C25FC8D2924F8812426060306CB809DD7
S1238CA07CD7389A088028102700750F089E1BDC379C1D271210A381273E300520F38141B7
S1238CC02504805B80A5398E0074EEE411838BA92728DC1FDD43C30007DD419E1D9F47BDE2
S1238CE085709E419F1F9E459F1D9E47DC37ED814F5FED84ED02A7049F39399080000000FF
S1238D009D7CBD8A6396542B5DBD8A65964F819025088E8CFBBD958C264CBD95BEDC52396F
S1238D20DC053406125F9E3734148DD435349F37DE5234605C9D82812C27EBD703BD8B893D
S1238D403506DD059E1D9C1F2721DC3710A3842706EC02308B20EFC6129605260BD603E1A7
S1238D60042759C6108CC6087E8598CC0005DD64DC37ED84D603E704BD85859F41C60B4F7F
S1238D800D0527053506C30001ED058D5DDD6430020A0326E89F0FD30F1025F7F91F01BD96
S1238DA08589830035DD1F4F301FA7059C0F26F89E41961F9341ED029605262DE604D703D1
S1238DC04F5FDD643506DD5210A305243ADE6427048D17D35230020A0326E7EDE3584958D5
S1238DE049E3E1308B30059F393986109745EC05DD174F5F5849250F086509642404D3179B
S1238E0025050A4526EE397E8D631F40931F214F0F06DD50C6907E9578BD8A65CE01DEBD60
S1238E2096D232628E01DD200B9F4D8D5C9F58D75639301F86229701970230019F629F5818
S1238E40C6FF5CA680270C91012704910226F381222702301F9F64D756DE62118301DE220B
S1238E60078DC69E62BD8F609E0B8C00DF2605C61E7E85989656A700DC58ED0286FF970652
S1238E809F0D9F5230059F0B390F074F3406DC23A3E0109321250ADD239E2330019F25351A
S1238EA084C61A030727CA8D04350420DE9E279F234F5FDD4B9E219F478E00B79C0B27046E
S1238EC08D3220F89E1B9C1D27048D2220F89F419E419C1F2735EC02D341DD41A6012AF09C
S1238EE0E60458CB053A9C4127E88D0820F8A60130022A14E6842710EC02109323220910E2
S1238F00934723049F4BDD473005399E4B27FB4FE6845AD347DD439E239F41BD85729E4B3A
S1238F20DC45ED029E45301F2085DC523406BD8B45BD8A6835109F62E6849E52EB8424056A
S1238F40C61C7E8598BD8E299E62E6848D109E4D8D228D0C9E628D1CBD8E687E8A8AAE0244
S1238F60DE255C2004A680A7C05A26F9DF2539BD8A689E52E6848D182613AE07301F9C237D
S1238F8026083404D323DD233504300139AE02399C0D26079F0B301B9F0D4F398D037E8E4A
S1238FA00F8DCC0F065D39BD9028C601BD8E899653BD8E2DA78432627E8E688D0220DF8DDB
S1238FC0E0275DE684398D474FE1842303E6844F3406BD8E2B9E4D8D9B35043A35048D80A3
S1238FE020D68D2BA0844020E0C6FFD7539D8281292705BD8B8F8D2D8D1527245F4AA1842B
S123900024CE1F89E08450D15323C5D65320C1BD8B89EEE4AE659F4DA664E66432671F3505
S12390207E8D669D7CBD8A63BD8D054D26F20E82BD8FA1102702F8DE839F833AA684345229
S12390406F849D82BD96083552A784DF83398D079F2BBD8B8F20CEBD8A6396542BC2964FC9
S1239060819022BCBD95BE9E52398DEEE6847E8E0F8DDB9E2BE784393401BD88ADBD863D48
S12390809F66350127129D82271381B026099D7C2706BD88AD270639CEFFFFDF2B9E66BD6A
S12390A09257BD81ADEC8426090D6E26EA32627E85B79F66EC0210932B22EEBD96C2BD922B
S12390C0A29E668D10AE9F0066CE00E2A6C027CFBD92A720F73004108E00E2A68027512B00
S12390E015813A260DE684C18427F0C18327EC8C86218D3020E5CE80F481FF2604A6803312
S123910045847F334A6DC427E7A0C42AF6ABC4EE414A2B066DC02AFC20F7A6C48D066DC016
S12391202AF820B7108C01DB2406847FA7A06FA4399E83CE00E10F430F44A68027210D43C7
S1239140270FBD8CBE241881302504813923100F438120270A9742812227380D442719A794
S1239160C02706813A27CF20D16FC06FC01F308300DF8E00E09F8339813F2604868720DF8E
S123918081272613CC3A83EDC10F42A68027D0914227CCA7C020F481302504813C25C03058
S12391A01F34500F41CE80F40F42334AA6C4273110AE41AEE4E6A0E08027FAC1802638327D
S12391C0623540DA4296412606C1842606863AEDC12094E7C0C18626020C44C18227AA2068
S12391E086CE80F9034126C03550A680A7C0BD8CBE25EC034320E80C424A27AE313FE6A099
S12392002AFC20AF274D8D013981402605BD81B02004812326079D822739BD8B8FBDA17621
S1239220273E81A82753812C2737813B2760BD8A78960634022606BD96CFBD8E328D563560
S123924004BD81465D26089D82812C27148D539D8226CF860D2050BD814627F7966C26F33C
S123926039BD8146270AD66CD16B25068DE5201ED66CD06A24FC502010BD90238129102637
S1239280F917BD8146D06C23058D175A26FB9D7C208EBD8E34BD8F725C5A27C4A6808D0754
S12392A020F786208C863F7E805C8E97B62009BD9425035403622003BD94255D102702805D
S12392C08E005C1F895D276CD04F2769250A974F966197548E004F50C1F82F594F6401BD83
S12392E093B0D6622A0B630163026303630443890097639653996097539652995F97529633
S123930051995E97519650995D97505D2A4425028D5D5F9650262E965197509652975196AD
S1239320539752966397530F63CB08C1282DE44F974F9754398D6D5F20A85C086309530925
S123934052095109502AF3964F3404A0E0974F23DE8C2508086386009763200C0C4F2728E9
S1239360065006510652065324048D0D27EE39035403500351035203539E5230019F52269A
S1239380069E5030019F5039C60A7E85988E0012A6049763A603A704A602A703A601A702D7
S12393A0965BA701CB082FE89663C008270C6701660266036604465C26F439810000000019
S12393C08D6327608D7886009713971497159716D6538D22D663D78BD6528D1AD663D78AFD
S12393E0D6518D12D663D789D6508D0CD663D788BD95017E931227954396135627262416B8
S123940096169B6097169615995F97159614995E97149613995D4697130614061506160673
S1239420634F20D539EC0197618A80DD5DD661D854D762EC03DD5FA684975CD64F394D2769
S1239440169B4F464928108B80974F270C966297543996544320023262102AFED27E93887B
S1239460BD9555270D8B0225F40F62BD92C30C4F27EB398420000000BD95558E94735FD728
S123948062BD950A8C8D9E2773004F8DB10C4F27CC8E0013C604D703C6019650915D2613C5
S12394A09651915E260D9652915F2607965391602601431FA859240AE7800A032B34272EE0
S12394C0C6011F8A250E0860095F095E095D25E32BC820DF966090539760965F9252975FAF
S12394E0965E9251975E965D9250975D20D8C64020D0565656D7638D087E9312C6147E8514
S1239500989E139F509E159F52393402EC0197548A80DD500F63E684AE039F52D74F358292
S12395208E004520068E00408C9E3B964FA78496548A7F9450A7019651A702DE52EF033981
S1239540966197549E5C9F4F0F63965E975196549E5F9F5239DC4FDD5C9E519F5E9E539FFE
S1239560604D39D64F2708D65459C6FF250150398DF1D7500F51C68896508080D74FDC7407
S1239580DD52976397547E930E0F5439E68427D3E601D8542BD1D64FE184261DE601CA7F88
S12395A0D450E1012613D651E102260DD652E1032607D653E00426013956D85420ABD64F13
S12395C0273DC0A096542A05035BBD93718E004FC1F82E06BD93A40F5B390F5B9654490687
S12395E0507E93B0D64FC1A0241D8DD2D7639654D754808086A0974F965397017E930ED75E
S123960050D751D752D753399E749F549F4F9F519F529F479F452564BD9D41812D260403A5
S1239620552004812B26049D7C2551812E2728814526289D7C256481B0270E812D270A81CE
S1239640AF2708812B2704200603489D7C254C0D48270800472004034626CC9647904597E3
S12396604727122A09BD94780C4726F92007BD94600A4726F996552A8E7E97DFD645D046E8
S1239680D7453402BD94603504C0308D022098BD9525BD95728E00407E92B8D6475858DBDA
S12396A0475880303404ABE09747209F9B3EBC1FFD9E6E6B27FD9E6E6B28008E85398D0C27
S12396C0DC68DD50C69043BD957C8D037E9292CE01DF8620D6542A02862DA7C0DF6497548A
S12396E08630D64F102700C64FC18022088E96B6BD93C086F797458E96B1BD95962E0F8E09
S123970096ACBD95962E0EBD94600A4520F1BD94780C4520E2BD92AABD95BEC60196458B7C
S12397200A2B09810B24054A1F8986024A4A9747D7452E0DDE64862EA7C05D27048630A7AD
S1239740C08E97BBC6809653AB0397539652A90297529651A90197519650A98497505C56FD
S12397605928E32403C00B50CB2F30041F98847FA7C00A452604862EA7C053C4808C97DFC3
S123978026C4A6C2813027FA812E2602335F862BD647271C2A03862D50A7428645A74186D5
S12397A02F4CC00A24FBCB3AED436F452004A7C46F418E01DF398000000000FA0A1F0000CF
S12397C0989680FFF0BDC0000186A0FFFFD8F0000003E8FFFFFF9C0000000AFFFFFFFF965E
S12397E04F27020354399F64BD95258D058D088E00407E93C09F64BD95209E64E680D75514
S12398009F648DEE9E6430059F64BD92B88E00450A5526EE39BD95632B1F27158D10BD95DC
S1239820258D0E8E00408DCA8E93BBBD92B87E95E49E9F9F509EA19F52BE98669F5DBE98FB
S1239840689F5FBD93C6DC8AC3658BDDA1DD52DC88C9B08905DD9FDD500F548680974F96C9
S12398601597637E931240E64DABBD95558E98AFD661BD947FBD95558DB40F62965CD64FA1
S1239880BD92B28E98B4BD92AF965434022A09BD92AA96542B05030ABD97DF8E98B4BD921C
S12398A0B835024D2A03BD97DF8E98B97E97E683490FDAA27F000000000584E61A2D1B8601
S12398C02807FBF88799688901872335DFE186A55DE72883490FDAA2A154468F138F5243C2
S12398E089CD8E9913BD92B82080BD95250F0A8DF78E004ABD952B8E0040BD950A0F5496A1
S12399000A8D0C0D4F1027FA7F8E004A7E94853402208581490FDAA2965434022A028D24F8
S1239920964F3402818125058E93BB8DDF8E9948BD97E63502818125068E9913BD92AF351A
S1239940024D2A037E97DF390B76B383BDD3791EF4A6F57B83FCB0107C0C1F67CA7CDE53AE
S1239960CBC17D1464704C7DB7EA517A7D6330887E7E9244993A7E4CCC91C77FAAAAAA1302
S12399808100000000037F5E56CB7980139B0B6480763893168238AA3B20803504F3348134
S12399A03504F334808000000080317217F8BD9563102FF3B18E999A964F80803402868097
S12399C0974FBD92B88E999FBD94858E93BBBD92AF8E9985BD97E68E99A4BD92B83504BD72
S12399E0968F8E99A97E93C0BD95558E97B6BD950A27664D26037E93308E004ABD952B5FC7
S1239A0096612A10BD95E48E004A9661BD9596260343D601BD954234048D938E004ABD93CD
S1239A20C08D363502461025FDB5398138AA3B29077134583E5674167EB31B772FEEE385D1
S1239A407A1D841C2A7C6359580A7E75FDE7C6803172181081000000008E9A2BBD93C0BD7E
S1239A609525964F818825037E9452BD95E496018B8127F44A34028E0040BD92AF8E9A3016
S1239A80BD97F50F623502BD943E39BD95632B037E95E403548DF97E97DFBD9EC532628624
S1239AA0019798BD863D1025ED6EBD90D51F208300E3D797DC2BBD96C2BD92A28E00E2D6DA
S1239AC09826255FBD9BEEBDA390250B80303402860A3DEBE020EDC001C90181412605BD1A
S1239AE0925320BB814C260B8D310F98BD925320C33262810D260D8D22BD92538E00E29F05
S1239B00837E85E6814527F181512606BD92537E85B78D0220AD812026108CC6F9A68427CE
S1239B2008BD805C30015A26F439814426486D8427F78D045A26F7390A97311F3121A62115
S1239B40A7A426F839814927138158270D8148265C6F841F108300E3D7978DBFBD9BEE81FA
S1239B600D278E811B2725810826228C00E227EC8D458DC420E6814326CB6D84270EBD9B89
S1239B80EE250220F5A7808D375A26EE39D697C1F9260220C734106D8026FCE682E701AC80
S1239BA0E426F83262A7808D170C9720AF810826128D045A26FB398C00E227D0301F860886
S1239BC07E805C814B2705805327013934028D1E3402A68427166D6126068DE430012003BE
S1239BE0BD9B38A684A1E426E95A26E635A0BD801F817F24F9815F2602861B810D270E8172
S1239C001B270A81082706812025E31A0139864F978C398600D6791D7E8E10BD8B8CDC1F33
S1239C203406BD8C73BD8B8935061E109C1F26517E8E109D7CBD8B8CBD8C733410EC0210B7
S1239C409321230493272312E684BD8E893410AE62BD8F5E3550AF423440BD905234045DDC
S1239C60271FC6FF81292703BD90523404BD8B89C6B7BD8B918D2E1F13AE62A684A06124B7
S1239C80037E8D664CA1E42402A7E4A6611E89AE025A3A4D270DA1E42302A6E41F891E312C
S1239CA0BD81DF3596BD8A787E8F6FBD8B8CBD90253404BD8B8FBD8A78BD8B8996062605D1
S1239CC0BD90282003BD8FBF3404E661BD8E2B35062705A7805A26FB7E8FB6BD8B8CBD8A01
S1239CE078C601340496062610BD9028E7E42791BD8B8FBD8A78BD8A689E523410BD8B8FCF
S1239D008DA33414BD8B89AE63BD8F743404E1662523A661271CE6665A3A3184EE62E661E8
S1239D20A6E4A0664CA161250CA680A1C0260C5A26F7E666215F32677E8E0F6C663021201D
S1239D40D98126265C32620F520F538E00529D7C814F2712814827239D82200C813810225B
S1239D60EE37C6038D2A9D7C25F20F500F510F060F630F54C6A0D74F7E93129D7C250BBDAC
S1239D808CBE25E6814724E28007C6048D0220EB680169841025F5F05A26F58030AB01A7C9
S1239DA0013935400F069E839D7C8126279981B9275C81FF26089D7C8183102700A99F83B0
S1239DC06EC49E68300126D9C6167E8598AE9F00838CFF8327748D238DE8BD8B8CC680D711
S1239DE008BD8C738D25BD8B89C6B7BD8B919E4BDC83ED84DC39ED027E8826C6B9BD8B9181
S1239E00C680D7088A80BD8C789F4B7E8A658DEB3410BD8B848DF43540C632AE4227AB10AF
S1239E209E83EEC4DF83A6043402EC84EE023476BD952BBD8A633576ED84EF023502A704E9
S1239E409D821026ED53109F83399D7C8D0934108D2D3540AFC4395F9D7C240680301F8936
S1239E609D7C9E8D583A398DEEAE843410BD8B848E004F96062707BD8F729E52960639C622
S1239E80B7BD8B917E90571027EEDBBD88ADBD863D9F939D82271081B0263B9D7C27048D6C
S1239EA024200486FF972BDE938CEEC4ECC42706EC42932B23F49E938D15BD865D9E93BD1F
S1239EC0862D7E85B7BD88AD7E81E7A6C0A78011931B26F79F1B39BD9DC29D7C8122260BD4
S1239EE0BD8B66C63BBD8B91BD9295327EBD89623262BD8C739F3BBD8A688E00E14FBD8EB8
S1239F00387E88EABD88AD9E2B399E919F2B7E863DBD8662CC000ADD95DD8F5FDD919D82A2
S1239F2024068DE09F959D82271BBD8B8F24068DD39F919D82270EBD8B8F24068DC69F8F8A
S1239F402749BD81E78DC39F939E958DBF9C93253A8D1CBD9FE5BD862B8DAF9F938D3A8DBF
S1239F600F8D36BDA080BD8662BD862B7E85B7864F97989E93DC958D150D982602ED02AEAF
S1239F80848D0BD38F250481FA25EE7E8D663406EC84350626023262399E19301F30018D79
S1239FA0ED30033001A68427F49F0F4A270C4A272A4A26EF8603A78020E7EC016A022701AA
S1239FC04FE6036A0427015FED01DD2BBD863D9E0F25E1DC476C80ED8420C66F84AE01AE71
S1239FE0029F4720EA9E1920049E8330018D9F300230019F839D7C4D27EF2AF99E8381FF4D
S123A00027EF81AB27128184270E818126E79D7C81A9270481AA26DB9D7C25049D8220D786
S123A0209E833410BD88AD9E83A682BDA39025F930011F10E061C0052720250A338450305B
S123A04085BD9ECF20149F479E1B9F435030859F419F1BBD85709E459F8335108601A7844B
S123A060A702A704D62B2604C6016C02E701D62C2604C6016C04E7039D82812C279A209CAA
S123A0809E19301F3001EC02DD68BD9F8E30033001A68427EF4A271B800226F334108EA02B
S123A0A0DDBD9292AEE4EC01BD96C2BD96BBBD925335103410EC01DD52BD9D6ABD96CF35DA
S123A0C040C6053001A68427055AA7C020F530C45D27BE31C433C5BD9ECF30A420B3554C7F
S123A0E02000BD905A8E01DEC60434045F860408530952594A26F85D260AA6E44A27058CAD
S123A10001DE270CCB30C1392302CB07E7806F8435045A26D532628E01DD7E8E34860197F7
S123A120995ABDA2BE9D8210270093D793BD8A78BD8A689E529F4DD699BD8FC8BD92959E69
S123A14052D699E0845A102B014FBD92A220F6D7939F0F86029799A684812527C481202698
S123A160070C9930015A26EF9E0FD6938625BDA2BEBD805C202981BA2701393262BD8A7ADE
S123A180BD8A68C63BBD8B919E529F952006969727089E950F97E68426037E8D66AE020FF0
S123A1A09A0F99A68081211027FF728123275B5A2616BDA2BEBD805C9D8226D2969726030A
S123A1C0BD92539E957E8F74812B2609BDA2BE8608979A20CC812E274E81251027FF70A171
S123A1E084268B81242719812A26F6969A8A20979AC1022511A6018124260B5A30010C99C9
S123A200969A8A10979A30010C990F980C995A2749A680812E271E812327F1812C262196F3
S123A2209A8A40979A20E5A68481231026FF3F8601979830010C985A2720A680812327F52C
S123A240815E2616A1842612A101260EA102260AC1042506C00430040C9A301F0C99969A27
S123A260850826180A995D2713A684802D270681FE260986088A049A9A979A5A9D821027F2
S123A280FF3CD793BD8A6396999B9881111022EAD5BDA2CB301FBD92920F979D82270D979C
S123A2A097813B2705BD8B8F20029D7C9E95E684D093AE023AD6931026FEE47EA1B8340291
S123A2C0862B0D9A2703BD805C3582CE01E0C620969A85082702C62B0D542A040F54C62D57
S123A2E0E7C0C630E7C08401102601078E96B6BD95962B15BD96CFA68026FCA682A7018C8B
S123A30001DF26F78625A78439964F97472703BDA4B39647102B0081409B998009BDA3D066
S123A320BDA549BDA4E89647BDA5679647BDA52F96982602335F4ABDA3D0BDA46B4D270669
S123A340C12A2702E7C06FC48E01DF30019F0F963A901090992738A684812027EE812A2714
S123A360EA4F3402A680812D27F8812B27F4812427F08130260EA6018D1625083502A78238
S123A38026FA20C735024D26FB9E0F8625A7823981302504803A80C639969827014A9B47BE
S123A3A02B014F34022A0A3402BD947835024C20F49647A0E097478B092B199699800990C3
S123A3C0478D0DBDA549201D34028630A7C035024A2AF53996998DF8BDA53386F790478D5A
S123A3E0EF0F450F97BDA4E896982602DE399B477EA336964F34022703BDA4B396982701D2
S123A4004A9B997F01DFD69AC40426037301DFBB01DF800934022A0A3402BD947835024C97
S123A42020F4A6E42B014F409B994CBB01DF97450F97BDA4E83502BDA56796982602335FF1
S123A440E6E02709D647CB09D099F001DF862B5D2A03862D50A7418645A7C1862F4CC00AB4
S123A46024FBCB3AEDC16FC47EA33A8E01E0E68434048620D69AC52035042708862AC12073
S123A48026021F893404A780E6842710C145270CC13027F2C12C27EEC12E26048630A782AB
S123A4A0969A85102704C624E782840435042602E7823934404F9747D64FC18022118E966C
S123A4C0B6BD93C09647800920ECBD94780C478E96B1BD95962EF38E96ACBD95962E07BD9C
S123A4E094600A4720F135C03440BD92AABD95BE35408E97BBC6808D369653AB039753961B
S123A50052A90297529651A90197519650A98497505C565928E32403C00B50CB2F30041F39
S123A52098847FA7C053C4808C97DF26CA6FC40A452609DF39862EA7C00F97390A972608FA
S123A54086039797862CA7C03996478B0A97454C800324FC8B059797969A844026029797A9
S123A5603934028DCA35024A2B0A34028630A7C0A6E026ED3981891027F95C7E8B99BDA59C
S123A58085BDA5D8399D825F393273BDA5B2BDA6BE326D393273BDA5B2BDA6D2326D393957
S123A5A03273BDA5B2BD828ABDA6F9326D32627E85B734403364C60D34449D7C3544812241
S123A5C0270BA7C05A10270004344420ED4FA7C05A26FA9D7C354039347033E432E8EEBD4D
S123A5E0A753102600B230C8EE3410BDBD863262830009102700A1860DBD805CE652C10826
S123A6002619308D00022010564F4C554D45204E414D452049532000BD9B1B3053BD9B1BAA
S123A6208620BD805CE652C108276AC1102766ECC8EE1083000F102300174456445644568B
S123A64044563406BDA69C3262864DBD805C203612ECC8EE2617EC50108303E8240F3406B5
S123A660BDA69C32628620BD805C201A12ECC8EEC40F1F98E650445644563406BDA69C32B7
S123A68062864BBD805C8642BD805C8620BD805C8664BD82AA7EA5E632C435F0EC62108372
S123A6A0006424058620BD805CEC62C10A24058620BD805CEC623440BD96C2354039347020
S123A6C033E4BDA753260930483410BDB4CF326235F0347033E4BDA75310260018327F3023
S123A6E05F34104F5F340630483410BDB07C32662703FD020532C435F0347033E4BDA753D3
S123A7001026004B327D305D3410CC0002340630483410BDB07C3266ED5EEC5E2603202FE2
S123A72012EC5EFD02050C6E34604FBD907835600F6E7F02057F0207CC001A3406EC5E34D5
S123A74006BDB6753264EC5E3406BDB4B8326232C435F0347033E4327EBDAB89305E3410E7
S123A760BDADC03262E75FE65F1027005AC1012624308D0002201753442063617264206E1A
S123A7806F74206465746563746564210A003410BDFC5E3262E65FC102265C308D000220ED
S123A7A01D4361726420496E697469616C697A6174696F6E206661696C6564210A00341022
S123A7C0BDFC5E32622630BDE000E75FC1032627308D0002201A496E76616C696420464119
S123A7E0542066696C652073797374656D210A003410BDFC5E3262E65F4F32C435F034403F
S123A80033E4AE46EC023406AE44EC02A4E0E4E0AE48ED02ECD8063406ECD804A4E0E4E0E0
S123A820EDD80835C0344033E4ECD804EDD808AE44EC02AE48ED02EC468300011023004F35
S123A840CC00013406AE48EC023510BDEE27AE48ED02ECD8088400C4018300001027000F2F
S123A860EC48C300021F01EC848A80CA00ED84CC00013406ECD8083510BDEE27EDD808CC83
S123A88000013406EC463510BDEE27ED4620A835C0344033E43272E6454FED5CE6444FEDE8
S123A8A05AAE46E6034FED58AE46E6024FED56AE46E6014FED54AE46E6844FED52EC5C3488
S123A8C006EC583510BDEE0DED5EEC5E8400C4FFAE48ED02E65E4FED5EEC5C3406EC563595
S123A8E010BDEE0D3406EC5A3406EC583510BDEE0DE3E13406EC5EE3E1ED5EA65F5F34069C
S123A900EC48C300021F01EC84E3E1ED84E65E4FED5EEC5C3406EC543510BDEE0D3406ECB2
S123A9205A3406EC563510BDEE0DE3E13406EC5EE3E1ED5EEC5E8400C4FFEDD808E65E4FF8
S123A940ED5EEC5C3406EC523510BDEE0D3406EC5A3406EC543510BDEE0DE3E13406EC5EAC
S123A960E3E1ED5EA65F5F3406AE48EC84E3E1ED8432C435C0344033E4ECD8063406ECD84D
S123A98004A3E1EDD808AE46EC023406AE44EC02A3E1AE48ED02AE46EC023406AE44EC02FD
S123A9A0A3E110240009AE48EC84830001ED8435C0344033E4EC44C300021F01EC84C3FFB0
S123A9C0FFED8483FFFFAE44EC0283FFFF1026000CAE44EC84C3FFFFED8483FFFF35C034A1
S123A9E04033E4ECD8063406ECD804E3E1EDD808AE46EC023406AE44EC02E3E1AE48ED02FA
S123AA00AE44EC023406AE48EC02A3E110250010AE46EC023406AE48EC02A3E11024000CA7
S123AA20AE48EC84C30001ED8483000135C0344033E4EC44C300021F01EC84C30001ED84B9
S123AA40830001AE44EC028300001026000CAE44EC84C30001ED8483000135C0344033E42E
S123AA60ECD8063406ECD804A3E11025001EECD8063406ECD804A3E110260015AE46EC02B2
S123AA803406AE44EC02A3E110240005CC000135C04F5F35C0344033E4ECD8063406ECD823
S123AAA004A3E110260015AE46EC023406AE44EC02A3E110260005CC000135C04F5F35C09F
S123AAC0344033E4ECD8063406ECD804A3E11022001EECD8063406ECD804A3E110260015AC
S123AAE0AE46EC023406AE44EC02A3E110230005CC000135C04F5F35C0344033E4327F4FAA
S123AB005FE75FE65F4FAE44E68B4F83000010270013E65F4F8300FF10220009305FE6842F
S123AB206C844F20DEE65F4F32C435C0344033E4327FAE46E680AF461DE75FE65F1DAE4413
S123AB40E780AF44E65F1D83000026E635C2344033E4E6D8041D83000010270028E6D8069F
S123AB601D8300001027001DAE46E680AF461D3406AE44E680AF441DA3E110270005CC0043
S123AB800135C020CD4F5F35C0344033E4CC000B3406CCD8023406BDF24E3264BDABA7BD50
S123ABA0ABB9BDABDD35C0F6D802CA01F7D80239F6D802C4FEF7D80239F6D802CA02F7D847
S123ABC00239F6D802C4FDF7D80239F6D802C40454544F39F6D802CA08F7D80239F6D80257
S123ABE0C4F7F7D80239344033E4327F8D9B4F5FE75FE65F4F8300501024000D8DD68DDDBF
S123AC00305FE6846C841D20E935C28608A7628DCC6863102400058DA02003128DA48DB462
S123AC206A6226EB8DB739344033E4327DCC00FFE75FCC07D0ED5D8D80EC5DC3FFFFED5D1D
S123AC40830000102600032023128D88685FBDABCBEA5FE75F8D86E6454F3406E6454F34CC
S123AC6006E65F4FAAE0EAE0A3E126CDE65F4F32C435C0344033E4327E4F5FE75EBDABB99D
S123AC80C608E75FBDABD4BDABCB685EEA5EE75EBDABDD6A5F26EDE65E4F35D0344033E496
S123ACA0BDABB035C0344033E4BDABA735C0344033E4327BCC00FFE75FECD806ED5BAE46A5
S123ACC0EC02ED5DCC00FF3406BDAC2732628300FF102600AAE63F4F8300001026003FE65B
S123ACE0454F8300111027001EE6454F83001210270014E6454F8300181027000AE6454FA9
S123AD00830019102600174FE65E58493402A65CE65D5849EBE0ED5BA65E485FED5DE645C3
S123AD204FCA403406BDAC0B3262E65B4F3406BDAC0B3262E65C4F3406BDAC0B3262E65D8C
S123AD404F3406BDAC0B3262E65E4F3406BDAC0B3262E6454F8300081026000DCC008734BA
S123AD6006BDAC0B3262200B12CC00953406BDAC0B3262CC007F3406BDAC273262E75FE60C
S123AD805F4F8300001026002DE6454F83003A10260023BDAC738400C4408300001027006D
S123ADA008CC0001E73F2005124F5FE73FBDAC73BDAC73BDAC73BDAC73E65F4F32C435C09A
S123ADC0344033E43278108E7FB9BDABE64F5FE73FBDAC9CCC07D0ED5C4F5FED5AED5830E7
S123ADE05834104F5F3406BDACAE3264E75FEC5CC3FFFFED5C83000010260007CC000132C7
S123AE00C435C0E65F4F83000126D4CC07D0ED5CCC0001E7D804CC0002E75E4F5FED58CC15
S123AE2001AAED5A30583410CC00083406BDACAE3264E75FBDAC73BDAC73BDAC73BDAC73DF
S123AE40EC5CC3FFFFED5C83000010260008CC0001E75E200912E65F4F83000126C6CC07B7
S123AE60D0ED5C4F5FED5AED5830583410CC00373406BDACAE3264CC4000ED584F5FED5A7F
S123AE8030583410CC00293406BDACAE3264E75FEC5CC3FFFFED5C83000010260007CC00E2
S123AEA00232C435C0E65F4F83000026B6E65E4F83000210260052CC07D0ED5C4F5FED5A2D
S123AEC0ED5830583410CC003A3406BDACAE3264E75FEC5CC3FFFFED5C8300001026000817
S123AEE04F5FE7D804200912E65F4F83000026D2EC4483000010270010E63F4F8300011091
S123AF00260006CC0002E7D804BDACA54F5F32C435C0344033E4327DBDAC9CCC07D0ED5D9D
S123AF20EC463406CC00113406BDACAE3264E75FEC5DC3FFFFED5D83000010260007E65F3E
S123AF404F32C435C0E65F4F83000026D3CC00FE3406BDAC2732628300FE1027000ABDAC50
S123AF60A5CC000132C435C04F5FED5DEC5D8302001024001BBDAC733406EC5DAE44308B4F
S123AF803506E784EC5DC30001ED5D83000120DCBDAC73BDAC73BDACA5E65F4F32C435C0EB
S123AFA0344033E4327DBDAC9CCC07D0ED5DEC463406CC00183406BDACAE3264E75FEC5D9B
S123AFC0C3FFFFED5D83000010260007E65F4F32C435C0E65F4F83000026D3CC00FF34060E
S123AFE0BDAC0B3262CC00FE3406BDAC0B32624F5FED5DEC5D8302001024001AEC5DAE44EA
S123B000E68B1D3406BDAC0B3262EC5DC30001ED5D83000120DDCC00FF3406BDAC0B326277
S123B020CC00FF3406BDAC0B3262BDAC73E75FE65F4F8400C41F8300051027000ABDACA50B
S123B040E65F4F32C435C0CC07D0ED5D4F5FE75FBDAC7383000010260018EC5DC3FFFFEDE8
S123B0605D83000010260008CCFFFFE75F20031220DEBDACA5E65F4F32C435C0344033E453
S123B08032E8EEBDE2EF4F5FED5EEC443406BDAAF9326283000D102D000CCC0004E7D8084F
S123B0A04F5F32C435C0E6A8D54F8300001026040130A9FDAE1F10ED5EEC443406EC5EC30E
S123B0C0022C3406BDAB2C3264E6474FAE5EE78902264F5FAE5EED02EDD8FEEC5EC300043D
S123B0E0C300021F014F5FED84AE5EED04EC5EC3001AC300021F014F5FED84AE5EED881A85
S123B100EC5EC3000CC300021F014F5FED84AE5EED0C4F5FAE5EED8810EC5EC30012C300E8
S123B120021F014F5FED84AE5EED8812EC5EC30016C300021F014F5FED84AE5EED8816EC8D
S123B1405EC3001EC300021F014F5FED84AE5EED881E4F5FAE5EED88224F5FAE5EED882465
S123B1604F5FAE5EE78902294F5FAE5EE78902284F5FAE5EE789022BE6474F830000102696
S123B1800024EC5E34064F5F3406BDE80B3264E7D808E6D8084F830000102700064F5F3259
S123B1A0C435C07EB4A3E6474F8300021027000AE6474F830003102602E9EC5E3406CC0048
S123B1C0013406BDE80B3264E7D808E6D8084F83000010260179CC0001AE5EE7890229AEB9
S123B1E05EEC881EAE5EED04EC5EC3001E3406CC00023510EC8B3406EC5EC30004C300025F
S123B2001F013506ED844F5FED58ED564F5FED54ED52305A3410305234104F5F3406EC5E34
S123B220C300043406EC5EC300263406BDE33B326ACC0FFFED52CCFFFFED5430523410300B
S123B2405A3410BDAA95326483000010270003202012EC5AAE5EED04EC5EC30004C3000292
S123B2601F01EC5CED8430563410BDAA2E3262209B3052341030563410ECA8EF3406BDA891
S123B28091326630C8EE341030523410EC313406BDA89132663052341030C8EE3410EC5E72
S123B2A0C300123406BDA975326630C8EE3410EC31340630523410BDA8253266EC50AE5E57
S123B2C0ED8822EC5EC3001A3406EC5EC300043406BDE2F43264AE5EEC881AED52EC5EC318
S123B2E0001A3406CC00023510EC8BED544F5FEDC8EEAE5EEC8822ED50EC5EC3001A34069A
S123B30030C8EE341030523410BDA9DF3266EC5EC3001A3406EC5EC300263406BDAF1232DE
S123B32064830000102700064F5F32C435C0EC318300013406EC5EC300123406CC00023515
S123B34010EC8BA4E0E4E0AE5EED88247EB4A3E6D8084F830001102601454F5FE7D808EC2A
S123B3605EC3000434064F5F34064F5F3406CC00023406EC5EC300263406BDE442326AAEF8
S123B3805EEC0483FFFF1026001BEC5EC300043406CC00023510EC8B83FFFF102600064FA8
S123B3A05F32C435C030333410EC5EC300043406BDAAC0326483000010270014EC37AE5E93
S123B3C0ED04EC5EC30004C300021F01EC39ED84EC5EC300043406EC5EC300043406EC5E0C
S123B3E0C300263406BDE55F3266AE5EEC0483000010260021EC5EC300043406CC00023569
S123B40010EC8B8300001026000CCC0005E7D8084F5F32C435C0CC0FFFED52CCFFFFED5487
S123B42030C8EE341030523410CC00013406EC5EC300043406EC5EC300263406BDE33B324C
S123B4406AAE5EEC04AE5EED881EEC5EC300043406CC00023510EC8B3406EC5EC3001EC3E6
S123B46000021F013506ED84EC5EC30012C300021F014F5FED84AE5EED8812EC5EC3001A1D
S123B4803406EC5EC300043406BDE2F432644F5FAE5EED88244F5FAE5EED88222005124FD0
S123B4A05FED5EEC5E83000010270006CC0001E7A8D5EC5E32C435C0344033E4EC44830030
S123B4C000102700084F5FAE44E789022735C0344033E43272BDE2EFEC443406BDAAF93242
S123B4E06283000D102D0008CC0004E75F201912EC44340630523410BDAB2C3264305234A0
S123B50010BDE69F3262E75FE65F4F8300031026003E4F5FE75FE6A8D54F8300011026000D
S123B5201A30A8DA341030523410BDAB4E326483000010260005CC0006E75FE65F4F8300F8
S123B540001026000B30523410BDEB513262E75FE65F4F32C435C0344033E43277BDE2EFCC
S123B560EC44C300163406EC44C300123406BDAAC03264830000102700EFAE44E689022755
S123B5804F830001102600E1AE44EC882483000010260048AE44EC882283000010260010E1
S123B5A0EC443406EC44C300043406BDE2F432644F5FED5BAE44EC8822ED5D305734103000
S123B5C05B3410EC443406BDA9DF326630573410EC44C300263406BDAF123264EC44C3005C
S123B5E0263406EC44C300241F01EC84C30001ED848300013510E68B1DE75FEC44C3001665
S123B6003406BDAA2E3262AE44EC882483020010260053EC44C300221F01EC84C30001EDD5
S123B620848300014F5FAE44ED8824AE44EC8822A3A8EF1026002F4F5FAE44ED88224F5FB9
S123B640ED5DED5BEC44C300043406305B34104F5F3406EC44C300043406EC44C3002634EE
S123B66006BDE33B326A200612CC001AE75FE65F1D32C435C0344033E43275BDE2EFAE44E6
S123B680E68902274F830001102606F3AE44E689022B1D83000010260231E6471D83001A8E
S123B6A010270227AE44E689022A4F83000110260035EC44C300241F01EC84C30001ED847F
S123B6C08300013406EC44C30026E3E11F01CC000AE784EC44C300123406BDAA2E32624FB3
S123B6E05FAE44E789022AE6471D8300081026002CAE44EC88248300001027001DEC44C3CE
S123B70000241F01EC84C3FFFFED8483FFFFEC44C300123406BDA9B13262202E12EC44C381
S123B72000241F01EC84C30001ED848300013406EC44C30026E3E11F01E6474FE784EC444A
S123B740C300123406BDAA2E3262E6471D83000D10260045AE44EC88248302001026000C07
S123B760CC0001AE44E789022A202E12EC44C300241F01EC84C30001ED848300013406EC84
S123B78044C30026E3E11F01CC000AE784EC44C300123406BDAA2E3262AE44EC88248302DC
S123B7A000102501234F5FAE44ED8824EC44C3001A3406EC44C300263406BDAFA032648334
S123B7C0000010270007CCFFFF32C435C0EC44C300221F01EC84C30001ED84830001AE4422
S123B7E0EC8822A3A8EF102600D24F5FAE44ED8822AE44EC04AE44ED08EC44C3000434063C
S123B800CC00023510EC8B3406EC44C30008C300021F013506ED84EC44C300043406EC4473
S123B820C300083406EC44C300263406BDE55F32664F5FED5BED5930593410EC44C3000413
S123B8403406BDAA95326483000010270007CCFFFF32C435C030593410EC44C300043406A4
S123B860CC00013406EC44C300083406EC44C300263406BDE33B326ACC0FFFED59CCFFFFD4
S123B880ED5B3055341030593410CC00013406EC44C300043406EC44C300263406BDE33B60
S123B8A0326AEC44C3001A3406EC44C300043406BDE2F432644F5FAE44ED8824EC44C3001B
S123B8C01A3406BDAA2E32627EBD7CAE44E689022B4F830000102604A3CC0001AE44E789C4
S123B8E0022BAE44EC882483020010240027AE44EC88243406EC44C30026E3E11F014F5F3E
S123B900E784EC44C300241F01EC84C30001ED8483000120CDEC44C3001A3406EC44C30031
S123B920263406BDAFA0326483000010270007CCFFFF32C435C030593410EC44C300043493
S123B94006CC00013406CC00023406EC44C300263406BDE442326AAE44E68902294F83009E
S123B96001102600D7EC44C3000C3406EC44C300263406BDAF12326483000010270007CC88
S123B980FFFF32C435C0AE44EC88103406EC44C30026E3E1ED5DEC5DC300163406BDE2DF09
S123B9A03406BDE2BE3264EC5DC300123406BDE2DB3406BDE2BE3264EC5DC300183406BD3C
S123B9C0E2DB3406BDE2BE326430593410EC5DC3001C3406BDE2C6326430553410305934C9
S123B9E010EC44C300123406BDA9753266EC5DC3001C3406EC44C300123406BDE2C63264E5
S123BA00EC44C3000C3406EC44C300263406BDAFA0326483000010270007CCFFFF32C4353E
S123BA20C030553410CC00013406EC44C300263406BDEA6432664F5F32C435C0EC37AE44CE
S123BA40ED08EC44C30008C300021F01EC39ED84EC443406EC44C300083406BDE2F43264AF
S123BA604F5FAE44ED8822AE44EC8822A3A8EF102401EB4F5FED59AE44EC8822ED5B305560
S123BA80341030593410EC443406BDA9DF326630553410EC44C300263406BDAF1232648397
S123BAA0000010270007CCFFFF32C435C04F5FAE44ED8824AE44EC8824A3311024018BAE8A
S123BAC044EC88243406EC44C30026E3E1ED5DAE44E68902284F8300001027000C4F5FAE29
S123BAE05DE7844F5F32C435C0AE5DE6844F8300001027000CAE5DE6844F8300E5102601F4
S123BB00384F5FE75FE65F4F83000B10240025EC44C3022C3406E65F4F3510E68B4F34064C
S123BB20E65F4FAE5D308B3506E784305FE6846C844F20D1CC0020AE5DE70B4F5FAE5DE74F
S123BB400C4F5FAE5DE70DEC5DC3000E3406BDE2DF3406BDE2BE3264EC5DC300163406BD10
S123BB60E2DF3406BDE2BE3264EC5DC300103406BDE2DB3406BDE2BE3264EC5DC300123484
S123BB8006BDE2DB3406BDE2BE3264EC5DC300183406BDE2DB3406BDE2BE3264EC5DC300E3
S123BBA0143406AE44EC881E3406BDE2BE3264EC5DC3001A3406EC44C3001E3406CC000209
S123BBC03510EC8B3406BDE2BE3264EC5DC3001C3406EC44C300123406BDE2C632644F5F2E
S123BBE0ED59AE44EC8822ED5B3055341030593410EC443406BDA9DF326630553410EC4455
S123BC00C300263406BDAFA0326483000010270007CCFFFF32C435C0CC0001AE44E78902B4
S123BC2028EC44C300123406CC00013406EC44C300263406BDEA643266EC44C300241F0165
S123BC40EC84C30020ED847EBAB4EC44C300221F01EC84C30001ED848300017EBA674F5F85
S123BC60ED5BED59EC44C300043406305934104F5F3406EC44C300083406EC44C3002634CA
S123BC8006BDE33B326ACC0FFFED59CCFFF6ED5B30593410EC44C300043406BDAAC032643F
S123BCA083000010270088CC0FFFED59CCFFFFED5B30593410EC44C300043406BDAA9532E0
S123BCC06483000010270060EC44C300043406EC44C300083406EC44C300263406BDE55F28
S123BCE0326630553410EC44C300043406CC00013406EC44C300083406EC44C3002634061F
S123BD00BDE33B326A3055341030593410CC00013406EC44C300043406EC44C30026340687
S123BD20BDE33B326A200812CCFFFF32C435C04F5FED5BED5930593410EC44C3000434065F
S123BD40BDAA95326483000010270007CCFFFF32C435C0AE44EC04AE44ED08EC44C3000417
S123BD603406CC00023510EC8B3406EC44C30008C300021F013506ED847EBA50200112CCAE
S123BD80FFFF32C435C0344033E43278BDE2EFE6A8E74F83000010260059EC37EDA9FDAABD
S123BDA0EC39EDA9FDAC4F5FEDA9FDA64F5FEDA9FDA84F5FEDA9FDA030A9FDA2341030A9D5
S123BDC0FDAA3410BDE2F432643058341030A9FDA6341030A9FDA23410BDA9DF326630589E
S123BDE0341030A9FDD43410BDAF123264CC0001E7A8E74F5FE75C30A9FDD41F10E3A9FD63
S123BE00A0ED5EAE5EE6844F8300001026000C4F5FE7A8E7CC000932C435C0AE5EE6844F00
S123BE208300E5102700BDAE5EE60B4F83000F102700B14F5FE75DE65D4F83000B10240096
S123BE4052E65D4FAE5EE68B4F83000A1026001A305CE6846C841D3406EC44C30005E3E158
S123BE601F01CC000DE784202112E65D1DAE5EE68B1D3406305CE6846C841D3406EC44C3A3
S123BE800005E3E11F013506E784305DE6846C841D20A4E65C1D3406EC44C30005E3E11FD3
S123BEA0014F5FE784AE5EE60B4FAE44E704EC443406EC5EC3001C3406BDE2C63264EC5E29
S123BEC0C300163406BDE2B832623406BDE2E93262EC5EC300183406BDE2B832623406BDC9
S123BEE0E2E33262ECA9FDA0C30020EDA9FDA0ECA9FDA0A331102500EA4F5FEDA9FDA03067
S123BF00A9FDA63410BDAA2E32624F5FED58ECA8EFED5A3058341030A9FDA63410BDAA951F
S123BF203264830000102700964F5FEDA9FDA8EDA9FDA64F5FED5AED5830A9FDAA341030C7
S123BF405834104F5F340630A9FDAA341030A9FDD43410BDE33B326ACC0FFFED58CCFFF650
S123BF60ED5A3058341030A9FDAA3410BDAAC032648300001027000C4F5FE7A8E7CC00096A
S123BF8032C435C04F5FED584F5FED5A3058341030A9FDAA3410BDAA9532648300001027EE
S123BFA0000C4F5FE7A8E7CC000932C435C030A9FDA2341030A9FDAA3410BDE2F4326430B4
S123BFC058341030A9FDA6341030A9FDA23410BDA9DF32663058341030A9FDD43410BDAF42
S11ABFE0123264E65C4F8300001027FE0ACC000832C435C07EE0002E
S123E000344033E432E8E84F5FE7A8E74F5FEDA8EBEDA8E94F5FE7A8D530A8E9341030A9AF
S123E020FDD43410BDAF12326483000010270007CC000332C435C030A9FDD41F10ED5EAE66
S123E0405EE6844F8300E910270082AE5EE6844F8300EB1027007630A9FDD41F10ED5CEC92
S123E0605CC301FE3406BDE2B8326283AA5510270007CC000332C435C030A8E9341030A802
S123E0809A3410BDE2C6326430A8E9341030A9FDD43410BDAF12326483000010270007CC0F
S123E0A0000232C435C030A9FDD41F10ED5EAE5EE6844F8300E910270013AE5EE6844F8388
S123E0C000EB10270007CC000332C435C0EC5EC3000B3406BDE2B83262ED314F5FE7C8EBB6
S123E0E0EC31EDC8E84F5FE7C8EAE6C8EA4F83001010240030ECC8E88400C40183000010C5
S123E10027000830C8EBE6846C844FCC00013406ECC8E83510BDEE27EDC8E830C8EAE6849D
S123E1206C844F20C5E6C8EB4F83000110270007CC000432C435C0AE5EE60D4FEDA8EF4F31
S123E1405FE7C8EBECA8EFEDC8E84F5FE7C8EAE6C8EA4F83001010240030ECC8E88400C499
S123E160018300001027000830C8EBE6846C844FCC00013406ECC8E83510BDEE27EDC8E8F5
S123E18030C8EAE6846C844F20C5E6C8EB4F83000110270007CC000432C435C0EC5EC30099
S123E1A00E3406BDE2B83262EDA8ED30373410EC5EC3002C3406BDE2C6326430503410ECDD
S123E1C05EC300243406BDE2C632643058341030503410AE5EE688101D3406BDA8913266C2
S123E1E0303B3410EC5EC3001C3406BDE2C632644F5FED50ECA8EDED5230C8EC34103050BB
S123E2003410303B3410BDA9DF3266303B34103058341030C8EC3410BDA9DF3266305434F2
S123E22010EC5EC300203406BDE2C632644F5FED50ECA8EDED5230C8EC34103050341030A1
S123E240543410BDA9753266305434103058341030C8EC3410BDA975326630333410ECA845
S123E260EF340630543410BDA82532664F5FED52ED5030C8EC3410305034104F5F3406CCBD
S123E2800001340630A9FDD43410BDE442326A3033341030C8EC3410BDAAC03264830000C3
S123E2A0102700084F5FE7A8E8200712CC0001E7A8E84F5F32C435C0ECF8021E8939EC62CC
S123E2C01E89EDF80439342010AE64AE66ECA4A703E702EC22A701E78435A0FC7FE039FC3E
S123E2E07FE239EC62FD7FE039EC62FD7FE239108E7FB939344033E432784F5FED5CCC00B1
S123E30002ED5E30583410305C3410EC443406BDA9753266305C341030583410ECA8EF34E0
S123E32006BDA8913266EC463406303B3410305C3410BDA9DF326632C435C0344033E432D5
S123E3407130553410EC463406CC00043406BDA891326630513410EC31340630553410BDD9
S123E360A82532664F5FED5AECA8EDED5C30553410305A341030513410BDA9DF3266305AB2
S123E380341030A8E9341030553410BDA9DF3266EC318300013406AE46EC0258495849A4E7
S123E3A0E0E4E0ED5E4F5FE759E6594F83000A1024002E305A3410EC443406BDAF123264B3
S123E3C0830000102700044F5F2003CC000183000010270003200A123059E6846C844F2092
S123E3E0C8E6494F8300001026002E30553410EC5EE3443406BDE2C63264CC0FFFED51CC99
S123E400FFFFED53EC4C34063051341030553410BDA7FE326632C435C0EC5EE3443406EC3E
S123E4204A3406BDE2C63264305A3410EC443406BDAFA032644F5FAE4CED02EDD80C32C421
S123E44035C0344033E43276EC44ED5EECA8E9ED5AECA8EBED5C305A3410BDAA2E32623062
S123E4605A3410EC443406BDAF123264CCFFFFAE4CED02EDD80C30563410EC5E3406BDE20B
S123E480C63264EC5683416110260009EC588352521027000432C435C030563410EC5EC30E
S123E4A001E43406BDE2C63264EC5683614110260009EC588372721027000432C435C03097
S123E4C0563410EC5EC301FC3406BDE2C63264EC5683AA5510260009EC588300001027005E
S123E4E00432C435C0E6494F83000010260032E6474F83000110260014EC4C3406EC5EC3F7
S123E50001E83406BDE2C6326432C435C0EC4C3406EC5EC301EC3406BDE2C6326432C43522
S123E520C0E6474F83000110260013EC5EC301E83406EC4A3406BDE2C63264201112EC5EA6
S123E540C301EC3406EC4A3406BDE2C63264305A3410EC443406BDAFA0326432C435C03469
S123E5604033E432E8EFECD806ED5CAE46EC0284FFC480ED5E305C341030333410BDAAC092
S123E58032648300001027010930C8EF3410305C3410CC00043406BDA891326630533410C3
S123E5A0EC31340630C8EF3410BDA82532664F5FED58ECA8EDED5A30C8EF34103058341001
S123E5C030533410BDA9DF32663058341030A8E9341030C8EF3410BDA9DF326630583410EE
S123E5E0EC443406BDAF1232644F5FE757E6574F8300801024007430533410E6571D5849B4
S123E6005849E3443406BDE2C63264CC0FFFEDC8EFCCFFFFED513053341030C8EF34103051
S123E620533410BDA7FE32664F5FED51EDC8EF30C8EF341030533410BDAA953264830000AE
S123E6401027001E4F5FED53E6574FED55EC48340630533410305C3410BDA9DF326632C4CD
S123E66035C03057E6846C841D20824F5FED53CC0080ED5530C8EF341030533410305C34D3
S123E68010BDA9DF3266ECC8EFED5CEC51ED5E7EE5754F5FAE48ED02EDD80832C435C034BE
S123E6A04033E432734F5FE754E6544F83000C1024001BE6541DAE44E68B1D83002E10264C
S123E6C00003200A123054E6846C841D20DBE6544F83000810230007CC000432C435C04FA9
S123E6E05FE753E6544F3406E6534FA3E11024001EE6534FAE44E68B4F3406E6534F3055DB
S123E700308B3506E7843053E6846C844F20D4E6544FE753E6534F83000710220015E6531F
S123E7204F3055308BCC0020E7843053E6846C844F20E13054E6846C844FCC0008E753E6A1
S123E740534F83000B10240050E6541DAE44E68B1D8300001027001C3054E6846C844FAE79
S123E76044E68B4F3406E6534F3055308B3506E784201D12E6534F83000B102400123053BB
S123E780E6846C844F3055308BCC0020E78420E43053E6846C844F20A64F5FE754E6544FCD
S123E7A083000B10240057E6544F3055E68B4F8300611025002AE6544F3055E68B4F8300DA
S123E7C07A1022001BE6541D3055E68B1D8300203406E6541DAE44308B3506E78420161235
S123E7E0E6541D3055E68B1D3406E6541DAE44308B3506E7843054E6846C841D209F4F5F5F
S123E800AE44E70BCC000332C435C0344033E432E8E6EC37ED5BEC39ED5DEC46C3022C349A
S123E82006BDE69F3262E75FE65F4F8300031026022BCC0055E75F30533410305B3410BD7B
S123E840E2F432644F5FED574F5FED59EC59A3A8EF10240140E65F4F830055102601363065
S123E860C8ED34103057341030533410BDA9DF326630C8ED3410EC46C300263406BDAF1230
S123E88032644F5FEDC8E7ECC8E7A331102400F8E65F4F830055102600EEEC46C30026E36B
S123E8A0C8E7ED51AE51E6844F83000010260008CC0001E75F7EE988AE51E6844F8300E5CC
S123E8C0102700B8AE51E60B4F83000F102700AC4F5FE7C8E6E6C8E64F83000B1024002E7B
S123E8E0EC46C3022C3406E6C8E61D3510E68B1D3406E6C8E61DAE51E68B1DA3E110270000
S123E90003200B1230C8E6E6846C841D20C7E6C8E64F83000B10260063EC46C3000C340632
S123E9203057341030533410BDA9DF3266ECC8E7AE46ED8810EC51C300143406BDE2B83279
S123E94062AE46ED881EEC51C3001A3406BDE2B832623406EC46C3001EC300021F0135061E
S123E960ED84EC46C300123406EC51C3001C3406BDE2C632644F5FE75F200D12ECC8E7C3FF
S123E9800020EDC8E77EE887EC59C30001ED598300017EE84CE65F4F830055102600613012
S123E9A05B34104F5F34064F5F3406305B3410EC46C300263406BDE33B326ACC0FFFEDC8BA
S123E9C0EDCCFFF6EDC8EF4F5FEDC8E94F5FEDC8EB30C8ED3410305B3410BDAAC03264830F
S123E9E000001026001530C8E93410305B3410BDAA95326483000010270005CC0005E75F6C
S123EA00E65F4F8300551027FE2DE65F4F83000010260049E6454F8300001026003FEC51DF
S123EA20C300143406BDE2B83262AE46ED04EC51C3001A3406BDE2B832623406EC46C30083
S123EA4004C300021F013506ED84EC46C300123406EC51C3001C3406BDE2C63264E65F4FF7
S123EA6032C435C0344033E43278ECD808ED58AE48EC02ED5AEC483406CC02003406305838
S123EA803410BDA8253266EC5A8401C4FF83000010270009EC483406BDAA2E3262ECD80858
S123EAA0ED58AE48EC02ED5AEC483406CC0008340630583410BDA8253266EC5A8400C407E3
S123EAC083000010270009EC483406BDAA2E3262E6A8E84F830000102700724F5FED5AED05
S123EAE058305C3410305834104F5F3406CC00013406EC443406BDE442326AEC5CED58ECCD
S123EB005EED5AE6474F83000010260014305C3410EC48340630583410BDA9DF32662012EA
S123EB2012305C3410EC48340630583410BDA975326630583410305C3410CC00013406CCD3
S123EB4000013406EC443406BDE442326A32C435C0344033E432E8DEEC37ED58EC39ED5A4B
S123EB6030C8EC341030583410BDE2F432644F5FED5C4F5FED5EEC5EA3A8EF1024021C307E
S123EB80C8E83410305C341030C8EC3410BDA9DF326630C8E8341030A9FDD43410BDAF1218
S123EBA0326483000010270007CCFFFF32C435C04F5FEDC8E0ECC8E0A331102401D030A9BC
S123EBC0FDD41F10E3C8E0EDC8E2AEC8E2E6844F83000010260007CC000132C435C0AEC810
S123EBE0E2E6844F8300E510270197AEC8E2E60B4F83000F1027018A4F5FEDC8DEECC8DE80
S123EC0083000B1024002AECC8DEAE44E68B1D3406ECC8DEAEC8E2E68B1DA3E11027000382
S123EC20200F12ECC8DEC30001EDC8DE83000120CCECC8DE83000B10260147ECC8E2C3003F
S123EC40143406BDE2B83262ED54ECC8E2C3001A3406BDE2B83262ED56CC00E5AEC8E2E76B
S123EC608430C8E83410305C341030C8EC3410BDA9DF326630C8E8341030A9FDD43410BD44
S123EC80AFA0326483000010270007CCFFFF32C435C030C8E83410ECC8E2C3001C3406BD85
S123ECA0E2C6326430C8E834104F5F340630A9FDD43410BDEA6432664F5FEDC8EAEDC8E88B
S123ECC03058341030C8E834104F5F3406CC0002340630A9FDD43410BDE442326A3054342B
S123ECE01030583410BDAAC032648300001027001E30C8E8341030543410CC00013406CCE0
S123ED000002340630A9FDD43410BDE442326A4F5FEDC8EAEDC8E83050341030C8E8341074
S123ED204F5F34063054341030A9FDD43410BDE33B326A30C8E8341030C8E83410CC0001A5
S123ED4034063054341030A9FDD43410BDE33B326ACC0FFFEDC8E8CCFFF6EDC8EA30C8E891
S123ED60341030503410BDAAC03264830000102700064F5F32C435C0EC50ED54EC52ED5673
S123ED80208DECC8E0C30020EDC8E07EEBB5EC5EC30001ED5E8300017EEB764F5FEDC8EA8F
S123EDA0EDC8E83058341030C8E834104F5F34063058341030A9FDD43410BDE33B326ACCDD
S123EDC00FFFEDC8E8CCFFF6EDC8EA4F5FEDC8E44F5FEDC8E630C8E8341030583410BDAA3D
S123EDE0C032648300001026001530C8E4341030583410BDAA95326483000010270007CCE0
S123EE00000132C435C07EEB6032C435C03436A6E4E6633DE764EC613DE765A661E6633D26
S123EE20AB64AB653266398C00002B08270E4456301F20F827065849300120F83940508287
S123EE400039F7C800390D76657273696F6E20322E322E302E320D323031342D3230323530
S123EE602C20526574726F2036383039205342430D68747470733A2F2F6769746875622EBE
S123EE80636F6D2F616B756E642F726574726F2D363830392D5342430D0D00F1F51A508E91
S123EEA07FF24F5FED81ED81ED81ED81ED81ED81ED8110CE7D598EEE46BDFAF18EE000346D
S123EEC0103089200034104F5FB3FFF03406BDFC3932668EFFF0BDFC02BDFAF9BDF4C2FC96
S123EEE0800010B3EE9B26268E800034103089400034104F5FB380003406BDFC3932668E34
S123EF008000BDFC025D2606BDEF81BDAB89327F327E33E4BDF52CBDEFFF8130260CA14244
S123EF202708A7428EEF3DBDFAF1ECC48300012608C62EF7C800CC1FFFEDC420D70D41500E
S123EF404C2072657365740D007EF0DEB7C8001F893406BDF10335867EF1237EF127340696
S123EF60BDF146358634045F340434023404BDF1A732643934024F34023406BDF1633264E1
S123EF803934107F7FF07F7FF18639B77FDF7F7FE47F7FE5BDF2818EFFFF301F2742BDF059
S123EFA01FC13126F58EEFE3BDFAF1C6203406BDFCA2C60D3406BDFCC2BDFCC232645FBDE9
S123EFC0F1468EEE57E68027114F3406BDF1033262BDF01FC13126F920EBCC8002FD7FF015
S123EFE03510390D7374617274696E672042415349432070726F6365737320494420008D1B
S123F0001EC13126193447BE7FF0271010FF7FEECCF018FD7FF06E8410FE7FEE35473934AC
S123F020108E0001BDF0B64D10270084C1551026007E8EFFFFBDF0B64D2775C16126178D34
S123F040754D276C34048D6E4D2763C10D265F3504F77FDF205AC16B261B8D5A4D27518D4C
S123F060554D274C34048D4E4D2743C10D263F35048D4E203BC16D2637327C8D394D272C6C
S123F080E7E48D324D2725E7618D2B4D271EE7628D244D2717E7638D1D4D2710C10D260CBA
S123F0A03506FD7FE03506FD7FE22004326332614FF67FDF3590BDF2A04D2604301F26F637
S123F0C03934108E7FE6B67FE430864C810825014FB17FE52705B77FE4E784351039BDF0B2
S123F0E0FB5D271634108E7FE6B67FE5E68635104C810825014FB77FE54F39F67FE4F07FC0
S123F100E54F39BDF2B7BDF2BFC644F7D000C666F7D000C631F7D000E663F7D000C60DF74E
S123F120D000398662200286303402BDF2B7BDF2BF3502C644F7D000C663F7D000B7D00079
S123F140C60DF7D00039BDF2B7BDF2BFC644F7D000C66CF7D000E663CB30F7D000C60DF765
S123F160D00039BDF2B7BDF2BFC644F7D000C670F7D000E663CB30F7D000E665CB30F7D0C8
S123F18000C60DF7D00039BDF2B7BDF2BFC644F7D000C674F7D000C631F7D000E663F7D024
S123F1A000C60DF7D00039BDF2B7BDF2BFC644F7D000C66FF7D000E663F7D000E665F7D0B5
S123F1C000C60DF7D00039BDF2B7BDF2BFC644F7D000C673F7D000E663CB30F7D000C60DD5
S123F1E0F7D00039BDF2B7BDF2BF3410C644F7D000C664F7D000C650F7D000E665F7D00042
S123F200AE66C620A680B7D000BDF2B7BDF2BF5A26F2C60DF7D0003590BDF2B7BDF2BFC604
S123F22044F7D000E665C1642704C6692002C661F7D000E664CB30F7D000E663CB30F7D0CE
S123F24000E662CB30F7D000C60DF7D00039AE62C630E701E665E784C634E7015FE7843944
S123F260E665E7F80239E6F8024F39AE62E601CA08AE62E70139AE62E601C4F7AE62E70119
S123F280398680B7D0038611B7D0008600B7D0018601B7D0028603B7D0038601B7D001390A
S123F2A0B6D00584012703F6D000395F5A2707B6D005840127F639B6D005842027F939B686
S123F2C0D006841027F939302E392E302E30000D7374617274696E67206D6F6E69746F7273
S123F2E02070726F6365737320494420000D4D6F6E69746F7220666F722036383039204368
S123F3006F6D70757465722076000D636F6D6D616E64206D656E750D72205B666972737464
S123F32020616464725D20286F7074696F6E616C205B6E207265706561745D29207265619B
S123F340647320746865206164647265737365730D77205B616464725D205B646174615D2A
S123F3602C206F7074696F6E616C205B6E207265706561745D2077726974657320746F200F
S123F380746865206164647265737365730D65205B7372635D205B6473745D205B6C656EDB
S123F3A06774685D20286F7074696F6E616C205B70726F74656374696F6E5D2920636F7051
S123F3C069657320746F20666C617368206D656D6F72790D6C206F72206C205B6F666673CF
S123F3E065745D206C6F6164732061205352656320646174610D67205B616464725D20656C
S123F400786563757465732061742074686520616464726573730D73205B70726F63657304
S123F420732049445D2073746F7073207468652070726F636573730D62205B616464725D90
S123F440207365747320646562756767696E67206D6F6465206120627265616B706F696EDC
S123F460742061742074686520616464726573730D712071756974732064656275676769ED
S123F4806E67206D6F64650D42205B4241534943206C696E6520656E7472795D0D4C206C46
S123F4A06F61647320612042415349432070726F6772616D0D682074686973206D656E7564
S123F4C00D00CC0000FD7FB9BDF4F71CEF8EF2CFBDFAF1C6103406BDFCA2C60D3406BDFC3F
S123F4E0C23264398EF2EDBDFAF18EF2C7BDFAF18EF30ABDFAF1397F7FBC7F7FBD7F7FDEB6
S123F500395FB67FDE2724F67FBDF17FBC271634108E7FBEA68535105CC12025015FF77F9F
S123F520BDC60120047F7FDE5F1CEF398DD35D273E8168273B817227468177102700B6816D
S123F540651027019B816C1027028D8167102703678173102703A18162102703FE81711047
S123F56027047C814210270505814C102704BC398D8F5D2709810D1026052BBDF4E4393440
S123F58040327E327E33E44F5FED42BDFAADC1202615BDFAAD5D270FAFC4C10D2714BDFA29
S123F5A0ADAF42C10D270BBDFAA620420D72656164008EF5ACBDFAF1C60DBDEE42ECC434C6
S123F5C006BDFC6D3262C620BDEE42E6D43406BDFCA23262EC42108300002712830001ED46
S123F5E042ECC4C30001EDC4C41F27CC20D8326232623540393440327E327F327E33E44F11
S123F6005FED43BDFAADC120262CBDFAADC10D2725C12026218CE000241CAFC4BDFAAD1E79
S123F62010E7421E10C10D271AC1202609BDFAADAF43C10D270DBDFAA62048120D777269B2
S123F6407465008EF63CBDFAF1C60DBDEE42ECC43406BDFC6D3262C620BDEE42E6423406CC
S123F660BDFCA23262A642A7D4EC43108300002712830001ED43ECC4C30001EDC4C41F2756
S123F680C820D43262326132623540390D77726974696E67200020627974652873292066F2
S123F6A0726F6D200020746F20002C20706C656173652077616974202E2E2E000D65657029
S123F6C0726F6D2077726974696E6720646F6E652C2000436865636B53756D31363A2000CE
S123F6E03440BDFAADC120262FBDFAAD3410C1202624BDFAAD3410C1202619BDFAAD3410B5
S123F7008E0000C10D2717C1202607BDFAADC10D270C326232623262BDFAA6205F123410EA
S123F72033E48EF68CBDFAF1EC423406BDFC6D32628EF696BDFAF1EC463406BDFC6D3262EC
S123F7408EF6A5BDFAF1EC443406BDFC6D32628EF6AABDFAF1BDFB0B8EF6BCBDFAF18EF6AB
S123F760D3BDFAF1EC443406E34234064F5F3406BDFC3932663406BDFC6D3262326835C04C
S123F7800D73656E64206E6F7720746865205352656320646174612C204F66667365743DA2
S123F7A0002062797465287329204020616464723A00726563657074696F6E20636F6D70C0
S123F7C06C657465640D0020636865636B73756D206572726F7221003440327E327E327FA7
S123F7E0327F33E44F5FED42BDFAADC10D270BC120261ABDFAADC10D2613AF428EF780BDBD
S123F800FAF1EC423406BDFC6D32622006BDFAA67EF895BDF5075D27FA815326F6BDF50769
S123F8205D27FA8131266E6F418602BDFAD13404EB41E7413504C003E7C4C60DBDEE42E667
S123F840C43406BDFCA232628EF7A1BDFAF18604BDFAD1ED44AB41A741EB41E741EC44A3AB
S123F86042ED443406BDFC6D32628602BDFAD13404EB41E7413504AE44E780AF446AC426A8
S123F880E98602BDFAD1E841C1FF27068EF7C7BDFAF17EF813C60DBDEE428EF7B2BDFAF139
S123F8A032613261326232623540390D676F20616464726573732000BDFAADC1202607BD10
S123F8C0FAADC10D2705BDFAA6201D34108EF8ABBDFAF1ECE43406BDFC6D3262CCFFFF83BB
S123F8E0000126FB3510AD84390D73746F702070726F636573732000BDFAADC1202607BDF2
S123F900FAADC10D2705BDFAA6201D34108EF8E9BDFAF1ECE43406BDFCA232623506C12038
S123F92026067F7FF07F7FF1390D73657420627265616B6B706F696E7420616464726573DB
S123F9407320000D627265616B6B706F696E74206578697374696E67212000BDFAADC12058
S123F9602615BDFAADC10D260E8C000025098C7FFF220434102005BDFAA62036FC7FB91098
S123F980830000270E1083000127088EF943BDFAF1201F8EF929BDFAF13506FD7FB9340635
S123F9A0BDFC6D3262A69F7FB9B77FBB863FA79F7FB9390D717569742064656275676769D8
S123F9C06E67206D6F6465000D6E6F7420696E20646562756767696E67206D6F646500FCA7
S123F9E07FB910830000271F34068EF9B3BDFAF13506108300012707B67FBBA79F7FB9CC9F
S123FA000000FD7FB920068EF9C8BDFAF1390D73656E64206E6F77207468652042415320B5
S123FA2066696C650D00454E440D00BDF5015D10270073810D1026006D8EFA0EBDFAF18E7A
S123FA40FA26BDF5075D27FA810A27F634121F89BDF0C1BDEFFFBDF0FB5D26F73512A18012
S123FA6026DD1F1083FA261083000425D539BDFAADC1202631BDF5075D271634021F89BD59
S123FA80F0C1BDEFFFBDF0FB5D26F73502810D26E4390D696E76616C696420636F6D6D61BB
S123FAA06E6421210D008EFA92BDFAF1398E0000BDF5015D271A1F8981202714810D2710FE
S123FAC0BDFCE834021F10BDFC55EBE01F0120E03934028E0000BDF5075D27FABDFCE8341A
S123FAE0021F10BDFC55EBE01F016AE426E83261393410BDFC5E326239B6D0048A01B7D0EC
S123FB000439B6D00484FEB7D0043934703368ECC41083000027028D2D10AE44AE46EC424B
S123FB203406A680A1A42705A7A4BDFBB43121ECE4830001EDE426EA3262ECC410830000DB
S123FB4027028D4135F034111A508DB68E955586AAA7848DA48EAAAA8655A7848DA48E9553
S123FB60558680A7848E955586AAA7848D8B8EAAAA8655A7848D8B8E95558620A784BDFA10
S123FB80F98D31359134111A50F68000BDFB028E955586AAA784BDFAF98EAAAA8655A7849A
S123FBA0BDFB028E955586A0A784BDFAF9F780008D0235914FC60A3406BDFCFB35860D521B
S123FBC04F4D207665726966696564000D436865636B53756D313620002077617320636121
S123FBE06C63756C6174656420696E737465616420002C20524F4D206661696C7572652128
S123FC000D0010A384272A341034068EFBCCBDFAF1BDFC6D32628EFBD9BDFAF13510EC8457
S123FC203406BDFC6D32628EFBF2BDFAF1C60120078EFBBEBDFAF15F3934503366AE44EC39
S123FC4081E3C4EDC4AC4226F635D05FA68027045C20F94F3958495849584958493934100A
S123FC60AE64E6802705BDEE4220F7359034403364C624BDEE42E6C43406BDFCC832623404
S123FC80041F89F7C8003504F7C800E6413406BDFCC8326234041F89F7C8003504F7C800F0
S123FCA035C034403364C624BDEE42E6413406BDFCC8326234041F89F7C8003504F7C8005C
S123FCC035C0E663BDEE4239A663444444448D0B1F89A663840F8D031E8939840F81092218
S123FCE0048B3020028B373981392204840F200A8146220480372002805739CC011A830047
S123FD000126FBEC62830001ED621083000026EB39BE7FF827026E848E7FBEB67FBC3086FD
S123FD204C812025014FB17FBD260BA6E48A10A7E47C7FDE200FB77FBCB6C000810D260369
S123FD407C7FDEA7843B7D7FF626057D7FF727046E9F7FF63BBE7FFC27026E843B0D446523
S123FD6062756767696E67204D6F64653A2050726F6772616D20657865637574696F6E20B1
S123FD8073746F707065642E20456E7465722061206E657720627265616B706F696E7420BA
S123FDA06F7220717569740D0050432C20532C20552C20592C20582C2044502C20442C2096
S123FDC043430D002C2000BE7FFA27026E848EFD5DBDFAF18EFDA9BDFAF1EC6A830001EDBB
S123FDE06A3406BDFC6D32628EFDC4BDFAF11F40CB0C3406BDFC6D32628EFDC4BDFAF1EC9D
S123FE00683406BDFC6D32628EFDC4BDFAF1EC663406BDFC6D32628EFDC4BDFAF1EC6434CA
S123FE2006BDFC6D32628EFDC4BDFAF1E6633406BDFCA232628EFDC4BDFAF1EC623406BD59
S123FE40FC6D32628EFDC4BDFAF1E6E43406BDFCA232628EFDC4BDFAF1B67FBBA79F7FB952
S118FE60CC0001FD7FB91CEFBDF52CFC7FB91083000127F43B80
S113FFF035D7FE74FE74FD46FD11FDC7FD55EE9D1B
S5030306F3
