S10A007B0C8326020C82B67F
S10600847E81F97D
S12380001A504F1F8B7E8048347F10DF6EBE7FF0108E801A10BF7FF06E8410DE6E35FF8DF1
S12380200327FC398DE23404176FD51F98847F35843406176FCD810D27080C789678917784
S123804025020F788DC2358610CE01DB10BE7FF08E02056F83300126FA8E02046F809F195A
S12380608E7EFF10BF7FF09F709F279F233089FF389F211F148E809FCE0075C612BD81949F
S1238080863997DDBD850B8E00A29F8CCE8C1DC60AEF815A26FB8E80CEBD91487E846D10DE
S12380A04050008C1D0C8326020C82B600007E81F97E8C1D804FC75259358257836F1D8388
S12380C00282080000000000000000000000003638303920455854454E44454420424153D2
S12380E049430D2843292031393832204259204D4943524F534F46540D0D0034169E75DC77
S1238100779F6AD76C976D35960F728E00E1C601BD801F810826075A27EF301F2034811557
S1238120260A5A27E48608BD803120F681031A012705810D260D4F3401BD91086F848E00AD
S1238140E03581812025C9817B24C5C1FA24C1A7805CBD803120B92705BD8F109F796E9FFA
S123816000797E85F2BD8BB71083027F10220AAD34045849584958493504C41FBDF02B3949
S123818096722603BD80240F72975310260CD397567E8E6EA680A7C05A26F9399D8127FBE3
S12381A07E8A4F8D193406BD8F0B5D2704C1072302C60217088935043502BDF02B39BD8A80
S12381C042BD8EDE3404BD8F0B350239270ABD8EDE5D2704C1072302C602BDF01539BD8A58
S12381E045BD8EDE5D261132617E8C1D8DF3340417FFEB3502BDF01C39813A240A8120261D
S1238200020E7B803080D0399426949A943F009A96CB97208F238E548CD08EE98E738E5FD4
S123822097D0979897A19912994498669ACC98A0E1DE8E7E8E9B8EA281808CC19AD49B9439
S12382409B647991717991687B92787B933D7F98A9508AA8468AA7464FD247CF5245CDA71D
S1238260454C53C549C6444154C15052494ED44FCE494E5055D4454EC44E4558D44449CDFE
S1238280524541C45255CE524553544F52C55245545552CE53544FD0504F4BC5434F4ED49C
S12382A04C4953D4434C4541D24E45D75345D4434CD3534F554EC4455845C34445CC454453
S12382C049D454524FCE54524F46C64445C64C494EC552454E55CD544142A854CF5355C2AF
S12382E0544845CE4E4FD4535445D04F46C6ABADAAAFDE414EC44FD2BEBDBC46CE55534904
S12383004EC75347CE494ED44142D35553D2524EC45349CE504545CB4C45CE535452A456DC
S123832041CC4153C3434852A44154CE434FD35441CE4558D04649D84C4FC7504FD35351DD
S1238340D2484558A44C454654A45249474854A44D4944A4494E4B4559A44D45CD564152E3
S12383605054D2494E5354D2535452494E47A48539868286DF86DF86DF871086DC90B9873A
S12383803E87EB860988D08B218825867785EB86BC860D8F2A86328F318643850981A3817A
S12383A0CC81EC81579D4399539AC79AC89C87E671E00D4E46534E52474F4446434F564FD4
S12383C04D554C425344442F304944544D4F534C535354434E4644414F444E494F464D4E63
S12383E04F4945445355464E45204552524F520020494E20000D4F4B0D000D425245414B30
S1238400003064C6129F0FA68480802615AE019F119E3B27099C1127099E0F3A20E59E11F9
S12384209F3B9E0F4D398D17DE4133419E433001A68236029C4726F8DF45394F58D31FC3C8
S1238440003A250810DF1710931725EEC60CBD8525BD910CBD915B8E83B33A8D378D358E90
S123846083E8BD914896684C2703BD9571BD910C176B9C8E83F5BD9148BD8109CEFFFFDFBA
S12384806825F69F829D7B27F0250E176B84BD8FE67E85C0A6807E915DBD87639E2B9FDE58
S12384A0BD8FE6D7038D4C2512DC47A384D31BDD1BEE843702A7809C1B26F896E0271CDC30
S12384C01BDD43DB038900DD41BD8426CE00DC3702A7809C4526F89E419F1B8D368D02205D
S12384E0989E19EC8427213304A6C026FCEF84AE8420F0DC2B9E19EE84270910A3022306BF
S1238500AE8420F31A019F473926FB9E196F806F809F1B9E19BD86B79E279F23BD85EB9E65
S12385201B9F1D9F1F8E00B69F0BAEE410DE216FE20F2D0F2E0F086E8486809708BD8785D2
S1238540BD8401326226049E0F3285C609BD843BBD86E4DC683416C6A3BD8A47BD891BBD9E
S12385608919D654CA7FD450D750108E85717E89C28E9271BD93C09D8181A726059D7BBD53
S12385808919BD9419BD89BEDC3B3406868034028D609E829F2FA6802707813A27227E8AFF
S12385A04FA68197002772EC80DD689F82968B270F865BBD80319668BD9578865DBD803180
S12385C09D7B8D0220CA27294D102A01B881FF270F81A122C9BE80BC481F893A9D7B6E9475
S12385E09D7B8197102715047E8A4F9E19301F9F3339BD8024270A810327128113270397EB
S12386007239BD802427FB20EE9D8120021A0126319E829F2F060032629E688CFFFF270623
S12386209F299E2F9F2D8E83F90D00102AFE3E7E8462260EC6209E2D1027FE129F829E29D0
S12386409F6839272CBD8BB934069E279D81270CBD8A45BD8F10301F9C7022181F10A3E102
S123866025121F0383003A250B931B2507DF219F277E85187E844C9D811027FE96BD851864
S123868020191F899D7BC1A32716C1A42645C603BD843BDE829E6886A434528D037E8590EE
S12386A09D81BD87638D403001DC2B10936822029E19BD84F72517301F9F823926FD86FF41
S12386C0973BBD84011F148124270BC6048CC60E7E844E7E8A4F35529F68DF828D068C8D0C
S12386E0069F8239C63A865FD7015F9E821F98D6019701A68427EC3404A1E027E6300181FF
S12387002227EA4C26023001818626E70C0420E3BD89199D8181812705C6A5BD8A47964FCD
S123872026130F048DB64D27BA9D7B818426F50A042AF19D7B9D811025FF657E85C6BD8E34
S1238740DEC681BD8A47340281A4270481A326830A53260535047E86849D7B8D06812C2747
S1238760EF35849E739F2B246180309701DC2B811822DB58495849D32B5849DB018900DDE5
S12387802B9D7B20E2BD8B2A9F3BC6B1BD8A4796063402BD892E350246BD892010270C3F94
S12387A09E52DC2110A30224119C1B250DE684BD8CE09E4DBD8E168E00569F4DBD8E48DED5
S12387C04D9E3B3726A78410AF02393F5245444F0D007E844E960927079E319F687E8A4F2D
S12387E08E87CABD91489E2F9F8239C6169E68300127DF8D01398122260BBD8A1CC63BBD04
S12388008A47BD914B8E00E06F848D06C62CE7842016BD915BBD9158BD8109240532647E90
S12388208615C62E399E33864F97099F35BD8B2A9F3B9E829F2B9E35A684260996092651DA
S1238840BD915B8DCD9F829D7BD60627239E8297018122270E301F4F9701BD80FB863A975D
S123886001862C9702BD8CF1BD8A21BD87A02006BD94BEBD93DF9D812706812C1026FF523F
S12388809E829F359E2B9F829D812721BD8A45209C9F82BD86E430014D260AC606EE8127F0
S12388A041EC81DD31A684818626E620989E35D6091026FD3AA68427068E88BF7E91483928
S12388C03F45585452412049474E4F5245440D0026049E732003BD8B2A9F3BBD8401270485
S12388E0C60020471F143003BD93C0A66897549E3BBD916EBD93DF3069BD9442E068270C6D
S1238900AE6E9F68AEE8109F827E859032E8129D81812C26F49D7B8DBD8D131CFE7D1A0111
S12389200D0625032A998C2B96C6187E844E8D6E4F8C34043402C601BD843BBD89FB0F3FA4
S12389409D8180B025138103240F810149983F913F2564973F9D7B20E9D63F263310240042
S12389606B8B07246799061027047789FF340248ABE08E824230863502A18424558D9C344F
S1238980028D299E3D3502261D4D1027006A204B0806598D098E89A3D73F0F0620D99E8272
S12389A07E86B7648AC7A184243120D3EC0134068D08D63F16FF7B7E8A4FD654A684352075
S12389C03404D64F9E50DE5234546EA49E73A6E0272681642703BD891B9F3D3504815A2713
S12389E019817D271554D70A3552975C9F5DDF5F3504D761D854D762D64F39BD9C5C0F0639
S1238A009D7B24037E94BEBD8B752450812E27F481AA274081A927E38122260A9E82BD8C46
S1238A20EB9E649F823981A6260D865ABD8932BD8BC043537E8CC74C272E8D06BD892EC65C
S1238A40298CC6288CC62CE19F008226020E7BC6027E844E867DBD89327E9695BD8B2A9FF1
S1238A6052960626957E93C09D7B1F89589D7BC13823037E8A4F3404C12A251EC130241C3B
S1238A808DC0A6E4BD892E8DBCBD891E3502DE523442BD8EDE350234068E8D9E3504BE8033
S1238AA0C13AAD947E891B864F9703BD8BC0DD01BD93F6BD8BC00D0326069401D4022004E6
S1238AC09A01DA027E8CC7BD8920261096618A7F945D975D8E005CBD944220360F060A3F98
S1238AE0BD8E2AD7569F589E5FBD8E2C96563404A0E0270786012403D656409754DE585CFC
S1238B005A2604D654200BA680A1C027F3C6FF240150CB0159D40A2702C6FF7E9428BD8A2B
S1238B2045C6018D089D8126F5395F9D81D70597379D818D401025FF165FD7069D7B250445
S1238B408D33250A1F899D7B25FC8D2924F8812426060306CB809D7BD7389A0880281027A2
S1238B6000750F089E1BDC379C1D271210A381273E300520F381412504805B80A5398E0014
S1238B8073EEE411838A5F2728DC1FDD43C30007DD419E1D9F47BD84269E419F1F9E459F96
S1238BA01D9E47DC37ED814F5FED84ED02A7049F393990800000009D7BBD891996542B5D6B
S1238BC0BD891B964F819025088E8BB2BD9442264CBD9474DC5239DC053406125F9E37347C
S1238BE0148DD435349F37DE5234605C9D81812C27EBD703BD8A3F3506DD059E1D9C1F27A6
S1238C0021DC3710A3842706EC02308B20EFC6129605260BD603E1042759C6108CC6087E70
S1238C20844ECC0005DD64DC37ED84D603E704BD843B9F41C60B4F0D0527053506C300014B
S1238C40ED058D5DDD6430020A0326E89F0FD30F1025F7F81F01BD843F830035DD1F4F301F
S1238C601FA7059C0F26F89E41961F9341ED029605262DE604D7034F5FDD643506DD5210EA
S1238C80A305243ADE6427048D17D35230020A0326E7EDE358495849E3E1308B30059F39AA
S1238CA03986109745EC05DD174F5F5849250F086509642404D31725050A4526EE397E8CE1
S1238CC01A1F40931F214F0F06DD50C6907E942EBD891BCE01DDBD958832628E01DC200B0C
S1238CE09F4D8D5C9F58D75639301F86229701970230019F629F58C6FF5CA680270C9101E1
S1238D002704910226F381222702301F9F64D756DE62118301DD22078DC69E62BD8E189EFE
S1238D200B8C00DE2605C61E7E844E9656A700DC58ED0286FF97069F0D9F5230059F0B39CE
S1238D400F074F3406DC23A3E0109321250ADD239E2330019F253584C61A030727CA8D0420
S1238D60350420DE9E279F234F5FDD4B9E219F478E00B69C0B27048D3220F89E1B9C1D2730
S1238D80048D2220F89F419E419C1F2735EC02D341DD41A6012AF0E60458CB053A9C4127FD
S1238DA0E88D0820F8A60130022A14E6842710EC02109323220910934723049F4BDD473034
S1238DC005399E4B27FB4FE6845AD347DD439E239F41BD84289E4BDC45ED029E45301F7E46
S1238DE08D66DC523406BD89FBBD891E35109F62E6849E52EB842405C61C7E844EBD8CE0DC
S1238E009E62E6848D109E4D8D228D0C9E628D1CBD8D1F7E8940AE02DE255C2004A680A7BB
S1238E20C05A26F9DF2539BD891E9E52E6848D182613AE07301F9C2326083404D323DD23FD
S1238E403504300139AE02399C0D26079F0B301B9F0D4F398D037E8CC68DCC0F065D39BD62
S1238E608EE1C601BD8D409653BD8CE4A78432627E8D1F8D0220DF8DE0275EE684398D4837
S1238E804FE1842303E6844F3406BD8CE29E4D8D9B35043A3504BD8E1820D58D2BA08440A3
S1238EA020DFC6FFD7539D8181292705BD8A458D2D8D1527245F4AA18424CD1F89E084507E
S1238EC0D15323C4D65320C0BD8A3FEEE4AE659F4DA664E66432671F357E8C1D9D7BBD895D
S1238EE019BD8BBC4D26F20E81BD8E59102702F5DE829F823AA68434526F849D81BD94BE00
S1238F003552A784DF82398D079F2BBD8A4520CEBD891996542BC2964F819022BCBD94745A
S1238F209E52398DEEE6847E8CC68DDB9E2BE784393401BD8763BD84F39F66350127129D59
S1238F4081271381AA26099D7B2706BD8763270639CEFFFFDF2B32629E66BD910CBD81623E
S1238F60EC8426037E846D9F66EC0210932B22F4BD9578BD91589E668D10AE9F0066CE007C
S1238F80E1A6C027D5BD915D20F73004108E00E1A68027512B15813A260DE684C18427F083
S1238FA0C18327EC8C86218D3020E5CE80AF81FF2604A6803345847F334A6DC427E7A0C4F9
S1238FC02AF6ABC4EE414A2B066DC02AFC20F7A6C48D066DC02AF820B7108C01DA240684A2
S1238FE07FA7A06FA4399E82CE00E00F430F44A68027210D43270FBD8B7524188130250421
S1239000813923100F438120270A9742812227380D442719A7C02706813A27CF20D16FC06A
S12390206FC01F308300DE8E00DF9F8239813F2604868720DF81272613CC3A83EDC10F4227
S1239040A68027D0914227CCA7C020F481302504813C25C0301F34500F41CE80AF0F42338E
S12390604AA6C4273110AE41AEE4E6A0E08027FAC180263832623540DA4296412606C1843C
S12390802606863AEDC12094E7C0C18626020C44C18227AA2086CE80B4034126C03550A607
S12390A080A7C0BD8B7525EC034320E80C424A27AE313FE6A02AFC20AF274D8D0139814055
S12390C02605BD81652004812326079D812739BD8A45BDE272273E81A22753812C27378120
S12390E03B2760BD892E960634022606BD9585BD8CE98D573504BD80FB5D26089D81812C84
S123910027148D549D8126CF860D2051BD80FB27F7966C26F339BD80FB270AD66CD16B2562
S1239120068DE5201ED66CD06A24FC502010BD8EDC81291026F918BD80FBD06C23058D1800
S12391405A26FB9D7B7E90D5BD8CEBBD8E2A5C5A27C3A6808D0720F786208C863F7E803155
S12391608E966C2009BD92DB035403622003BD92DB5D102702808E005C1F895D276CD04F48
S12391802769250A974F966197548E004F50C1F82F594F6401BD9266D6622A0B6301630237
S12391A06303630443890097639653996097539652995F97529651995E97519650995D974A
S12391C0505D2A4425028D5D5F9650262E965197509652975196539752966397530F63CB36
S12391E008C1282DE44F974F9754398D6D5F20A85C086309530952095109502AF3964F3488
S123920004A0E0974F23DE8C2508086386009763200C0C4F272806500651065206532404DF
S12392208D0D27EE39035403500351035203539E5230019F5226069E5030019F5039C60A44
S12392407E844E8E0012A6049763A603A704A602A703A601A702965BA701CB082FE8966304
S1239260C008270C6701660266036604465C26F43981000000008D6327608D78860097132A
S1239280971497159716D6538D22D663D78AD6528D1AD663D789D6518D12D663D788D65068
S12392A08D0CD663D787BD93B77E91C82795439613562726241696169B6097169615995F20
S12392C097159614995E97149613995D46971306140615061606634F20D539EC0197618A5D
S12392E080DD5DD661D854D762EC03DD5FA684975CD64F394D27169B4F464928108B809791
S12393004F270C966297543996544320023262102AFED27E923EBD940B270D8B0225F40F2B
S123932062BD91790C4F27EB398420000000BD940B8E93295FD762BD93C08C8D9E27730017
S12393404F8DB10C4F27CC8E0013C604D703C6019650915D26139651915E260D9652915F34
S12393602607965391602601431FA859240AE7800A032B34272EC6011F8A250E0860095F8F
S1239380095E095D25E32BC820DF966090539760965F9252975F965E9251975E965D9250C2
S12393A0975D20D8C64020D0565656D7638D087E91C8C6147E844E9E139F509E159F523978
S12393C03402EC0197548A80DD500F63E684AE039F52D74F35828E004520068E00408C9EF8
S12393E03B964FA78496548A7F9450A7019651A702DE52EF0339966197549E5C9F4F0F6378
S1239400965E975196549E5F9F5239DC4FDD5C9E519F5E9E539F604D39D64F2708D65459BE
S1239420C6FF250150398DF1D7500F51C68896508080D74FDC73DD52976397547E91C40F10
S12394405439E68427D3E601D8542BD1D64FE184261DE601CA7FD450E1012613D651E102C2
S1239460260DD652E1032607D653E00426013956D85420ABD64F273DC0A096542A05035B62
S1239480BD92278E004FC1F82E06BD925A0F5B390F5B96544906507E9266D64FC1A0241D0C
S12394A08DD2D7639654D754808086A0974F965397017E91C4D750D751D752D753399E73AE
S12394C09F549F4F9F519F529F479F452564BD9BFB812D260403552004812B26049D7B25B9
S12394E051812E2728814526289D7B256481AA270E812D270A81A92708812B2704200603CC
S1239500489D7B254C0D48270800472004034626CC96479045974727122A09BD932E0C477F
S123952026F92007BD93160A4726F996552A8E7E9695D645D046D7453402BD93163504C0DD
S1239540308D022098BD93DBBD94288E00407E916ED6475858DB475880303404ABE0974709
S1239560209F9B3EBC1FFD9E6E6B27FD9E6E6B28008E83EF8D0CDC68DD50C69043BD943217
S12395808D037E9148CE01DE8620D6542A02862DA7C0DF6497548630D64F102700C64FC107
S12395A08022088E956CBD927686F797458E9567BD944C2E0F8E9562BD944C2E0EBD931628
S12395C00A4520F1BD932E0C4520E2BD9160BD9474C60196458B0A2B09810B24054A1F89D1
S12395E086024A4A9747D7452E0DDE64862EA7C05D27048630A7C08E9671C6809653AB03A2
S123960097539652A90297529651A90197519650A98497505C565928E32403C00B50CB2F1B
S123962030041F98847FA7C00A452604862EA7C053C4808C969526C4A6C2813027FA812E1C
S12396402602335F862BD647271C2A03862D50A7428645A741862F4CC00A24FBCB3AED4350
S12396606F452004A7C46F418E01DE398000000000FA0A1F0000989680FFF0BDC000018609
S1239680A0FFFFD8F0000003E8FFFFFF9C0000000AFFFFFFFF964F27020354399F64BD93E5
S12396A0DB8D058D088E00407E92769F64BD93D69E64E680D7559F648DEE9E6430059F64DB
S12396C0BD916E8E00450A5526EE39BD94192B1F27158D10BD93DB8D0E8E00408DCA8E92B3
S12396E071BD916E7E949A9E9E9F509EA09F52BE971C9F5DBE971E9F5FBD927CDC89C365FD
S12397008BDDA0DD52DC87C9B08905DD9EDD500F548680974F961597637E91C840E64DAB13
S1239720BD940B8E9765D661BD9335BD940B8DB40F62965CD64FBD91688E976ABD916596D0
S12397405434022A09BD916096542B05030ABD96958E976ABD916E35024D2A03BD96958E19
S1239760976F7E969C83490FDAA27F000000000584E61A2D1B862807FBF887996889018747
S12397802335DFE186A55DE72883490FDAA2A154468F138F524389CD8E97CBBD916E7E97A7
S12397A020BD93DB0F0A8DF68E004ABD93E18E0040BD93C00F54960A8D0C0D4F1027FA7E30
S12397C08E004A7E933B34027E974E81490FDAA2965434022A028D24964F3402818125052F
S12397E08E92718DDE8E9800BD969C3502818125068E97CBBD916535024D2A037E969539BA
S12398000B76B383BDD3791EF4A6F57B83FCB0107C0C1F67CA7CDE53CBC17D1464704C7DDE
S1239820B7EA517A7D6330887E7E9244993A7E4CCC91C77FAAAAAA138100000000037F5E9C
S123984056CB7980139B0B6480763893168238AA3B20803504F334813504F3348080000076
S12398600080317217F8BD9419102FF3B08E9852964F808034028680974FBD916E8E9857AE
S1239880BD933B8E9271BD91658E983DBD969C8E985CBD916E3504BD95458E98617E927688
S12398A0BD940B8E966CBD93C027674D26037E91E68E004ABD93E15F96612A10BD949A8E9D
S12398C0004A9661BD944C260343D601BD93F83404BD98668E004ABD92768D36350246103B
S12398E025FDB2398138AA3B29077134583E5674167EB31B772FEEE3857A1D841C2A7C63E6
S123990059580A7E75FDE7C6803172181081000000008E98E4BD9276BD93DB964F81882512
S1239920037E9308BD949A96018B8127F44A34028E0040BD91658E98E9BD96AB0F623502A8
S1239940BD92F439BD94192B037E949A03548DF97E9695BD9D81326286019797BD84F31055
S123996025ED6BBD8F8A1F208300E2D796DC2BBD9578BD91588E00E1D69726255FBD9AA784
S1239980BDE48C250B80303402860A3DEBE020EDC001C90181412605BD910820BB814C263F
S12399A00B8D310F97BD910820C33262810D260D8D22BD91088E00E19F827E849C81452786
S12399C0F181512606BD91087E846D8D0220AD812026108CC6F9A6842708BD803130015AFF
S12399E026F439814426486D8427F78D045A26F7390A96311F3121A621A7A426F839814918
S1239A0027138158270D8148265C6F841F108300E2D7968DBFBD9AA7810D278E811B272547
S1239A20810826228C00E127EC8D458DC420E6814326CB6D84270EBD9AA7250220F5A7806C
S1239A408D375A26EE39D696C1F9260220C734106D8026FCE682E701ACE426F83262A78056
S1239A608D170C9620AF810826128D045A26FB398C00E127D0301F86087E8031814B27055F
S1239A80805327013934028D1E3402A68427166D6126068DE430012003BD99F1A684A1E45B
S1239AA026E95A26E635A0BD801F817F24F9815F2602861B810D270E811B270A81082706F0
S1239AC0812025E31A0139864F978B398600D6781D7E8CC7BD8A42DC1F3406BD8B2ABD8A1C
S1239AE03F35061E109C1F26517E8CC79D7BBD8A42BD8B2A3410EC021093212304932723AA
S1239B0012E684BD8D403410AE62BD8E163550AF423440BD8F0B34045D271FC6FF812927D4
S1239B2003BD8F0B3404BD8A3FC6B1BD8A478D2E1F13AE62A684A06124037E8C1D4CA1E4BD
S1239B402402A7E4A6611E89AE025A3A4D270DA1E42302A6E41F891E31BD81943596BD89CF
S1239B602E7E8E27BD8A42BD8EDE3404BD8A45BD892EBD8A3F96062605BD8EE12003BD8EAF
S1239B80773404E661BD8CE235062705A7805A26FB7E8E6EBD8A42BD892EC6013404960685
S1239BA02610BD8EE1E7E42791BD8A45BD892EBD891E9E523410BD8A45BD9B5E3414BD8A53
S1239BC03FAE63BD8E2C3404E1662523A661271CE6665A3A3184EE62E661A6E4A0664CA100
S1239BE061250CA680A1C0260C5A26F7E666215F32677E8CC66C66302120D98126265C32F3
S1239C00620F520F538E00529D7B814F2712814827239D81200C81381022EE33C6038D2A31
S1239C209D7B25F20F500F510F060F630F54C6A0D74F7E91C89D7B250BBD8B7525E681470D
S1239C4024E28007C6048D0220EB680169841025F5EC5A26F58030AB01A7013935400F0667
S1239C609E829D7B8126279981B3275E81FF26089D7B8183102700AB9F826EC49E68300152
S1239C8026D9C6167E844EAE9F00828CFF83102700748D238DE6BD8A42C680D708BD8B2ACA
S1239CA08D25BD8A3FC6B1BD8A479E4BDC82ED84DC39ED027E86DCC6B3BD8A47C680D7089B
S1239CC08A80BD8B2F9F4B7E891B8DEB3410BD8A3A8DF43540C632AE4227A9109E82EEC426
S1239CE0DF82A6043402EC84EE023476BD93E1BD89193576ED84EF023502A7049D81102642
S1239D00ED4D109F82399D7B8D0934108D2D3540AFC4395F9D7B240680301F899D7B9E8C93
S1239D20583A398DEEAE843410BD8A3A8E004F96062707BD8E2A9E52960639C6B1BD8A47FC
S1239D407E8F101027EED6BD8763BD84F39F929D81271081AA263B9D7B27048D242004865C
S1239D60FF972BDE928CEEC4ECC42706EC42932B23F49E928D15BD85139E92BD84E37E8413
S1239D806DBD87637E819CA6C0A78011931B26F79F1B39BD9C7C9D7B8122260BBD8A1CC6CA
S1239DA03BBD8A47BD914B327EBD88183262BD8B2A9F3BBD891E8E00E04FBD8CEF7E87A052
S123E000BD87639E2B399E909F2B7E84F3BD8518CC000ADD94DD8E5FDD909D8124068DE0D9
S123E0209F949D81271BBD8A4524068DD39F909D81270EBD8A4524068DC69F8E2749BD81CD
S123E0409C8DC39F929E948DBF9C92253A8D1CBDE0E1BD84E18DAF9F928D3A8D0F8D36BDFB
S123E060E17CBD8518BD84E17E846D864F97979E92DC948D150D972602ED02AE848D0BD3B7
S123E0808E250481FA25EE7E8C1D3406EC84350626023262399E19301F30018DED30033022
S123E0A001A68427F49F0F4A270C4A272A4A26EF8603A78020E7EC016A0227014FE6036A17
S123E0C00427015FED01DD2BBD84F39E0F25E1DC476C80ED8420C66F84AE01AE029F472016
S123E0E0EA9E1920049E8230018D9F300230019F829D7B4D27EF2AF99E8281FF27EF81A5DC
S123E10027128184270E818126E79D7B81A3270481A426DB9D7B25049D8120D79E82341032
S123E120BD87639E82A682BDE48C25F930011F10E061C0052720250A3384503085BD9D8B24
S123E14020149F479E1B9F435030859F419F1BBD84269E459F8235108601A784A702A704B1
S123E160D62B2604C6016C02E701D62C2604C6016C04E7039D81812C279A209C9E19301FB8
S123E1803001EC02DD68BDE08A30033001A68427EF4A271B800226F334108EE1D9BD914803
S123E1A0AEE4EC01BD9578BD9571BD910835103410EC01DD52BD9C24BD95853540C6053090
S123E1C001A68427055AA7C020F530C45D27BE31C433C5BD9D8B30A420B3554C2000BD8F52
S123E1E0138E01DDC60434045F860408530952594A26F85D260AA6E44A27058C01DD270C10
S123E200CB30C1392302CB07E7806F8435045A26D532628E01DC7E8CEB860197985ABDE382
S123E220BA9D8110270093D792BD892EBD891E9E529F4DD698BD8E80BD914B9E52D698E00B
S123E240845A102B014FBD915820F6D7929F0F86029798A684812527C4812026070C98306A
S123E260015A26EF9E0FD6928625BDE3BABD8031202981B42701393262BD8930BD891EC68F
S123E2803BBD8A479E529F942006969627089E940F96E68426037E8C1DAE020F990F98A6D7
S123E2A08081211027FF728123275B5A2616BDE3BABD80319D8126D296962603BD91089EAD
S123E2C0947E8E2C812B2609BDE3BA8608979920CC812E274E81251027FF70A184268B81C8
S123E2E0242719812A26F696998A209799C1022511A6018124260B5A30010C9896998A1078
S123E300979930010C980F970C985A2749A680812E271E812327F1812C262196998A409786
S123E3209920E5A68481231026FF3F8601979730010C975A2720A680812327F5815E2616CE
S123E340A1842612A101260EA102260AC1042506C00430040C99301F0C9896998508261839
S123E3600A985D2713A684802D270681FE260986088A049A9997995A9D811027FF3CD792DC
S123E380BD891996989B9781111022A890BDE3C7301FBD91480F969D81270D9796813B276B
S123E3A005BD8A4520029D7B9E94E684D092AE023AD6921026FEE47EE2B43402862B0D9985
S123E3C02703BD80313582CE01DFC620969985082702C62B0D542A040F54C62DE7C0C630FE
S123E3E0E7C08401102601078E956CBD944C2B15BD9585A68026FCA682A7018C01DE26F7CC
S123E4008625A78439964F97472703BDE5AF9647102B0081409B988009BDE4CCBDE645BD04
S123E420E5E49647BDE6639647BDE62B96972602335F4ABDE4CCBDE5674D2706C12A27024C
S123E440E7C06FC48E01DE30019F0F963A901090982738A684812027EE812A27EA4F34027A
S123E460A680812D27F8812B27F4812427F08130260EA6018D1625083502A78226FA20C75F
S123E48035024D26FB9E0F8625A7823981302504803A80C639969727014A9B472B014F34D6
S123E4A0022A0A3402BD932E35024C20F49647A0E097478B092B199698800990478D0DBDDF
S123E4C0E645201D34028630A7C035024A2AF53996988DF8BDE62F86F790478DEF0F450FEC
S123E4E096BDE5E496972602DE399B4716FF43964F34022703BDE5AF969727014A9B987F6F
S123E50001DED699C40426037301DEBB01DE800934022A0A3402BD932E35024C20F4A6E404
S123E5202B014F409B984CBB01DE97450F96BDE5E43502BDE66396972602335FE6E02709E2
S123E540D647CB09D098F001DE862B5D2A03862D50A7418645A7C1862F4CC00A24FBCB3A47
S123E560EDC16FC47EE4368E01DFE68434048620D699C52035042708862AC12026021F894B
S123E5803404A780E6842710C145270CC13027F2C12C27EEC12E26048630A7829699851076
S123E5A02704C624E782840435042602E7823934404F9747D64FC18022118E956CBD9276C0
S123E5C09647800920ECBD932E0C478E9567BD944C2EF38E9562BD944C2E07BD93160A479E
S123E5E020F135C03440BD9160BD947435408E9671C6808D369653AB0397539652A902976C
S123E600529651A90197519650A98497505C565928E32403C00B50CB2F30041F98847FA74A
S123E620C053C4808C969526CA6FC40A452609DF39862EA7C00F96390A9626088603979692
S123E640862CA7C03996478B0A97454C800324FC8B05979696998440260297963934028D26
S11DE660CA35024A2B0A34028630A7C0A6E026ED3981891027B71C7E8A4F8C
S9030000FC
