:100000000C9442120C946A120C946A120C946A12A8
:100010000C946A120C946A120C946A120C946A1270
:100020000C946A120C946A120C946A120C946A1260
:100030000C946A120C9429130C946A120C946A1290
:100040000C946A120C946A120C946A120C946A1240
:100050000C946A120C946A120C946A120C946A1230
:100060000C946A120C946A12E0218F218F218F2147
:100070008F218F218F218F218F218F218F218F2100
:100080008F218F218F218F21DE218F218F218F21A1
:100090008F218F218F218F218F218F218F218F21E0
:1000A0008F218F218F218F218F21E6218F218F2179
:1000B0008F218F218F21E221E4218F21DC21C82192
:1000C000322725249E26BF272524C926252425241A
:1000D0007B27252425246A26252425243626AE259B
:1000E00025240B267B25C8242524252425246A24A1
:1000F0000000000000000000000000000000000000
:1001000000000000000000000000000000000000EF
:10011000E0E0E0E01C1C1C1CE0E0E0E01C1C1C1CFF
:10012000E0E0E0E01C1C1C1CE0E0E0E01C1C1C1CEF
:10013000FCFCFCFCE000001CE000001CE000001CDB
:10014000E000001CE000001CE000001CFCFCFCFCCB
:10015000FCFCFCFCFCFCFCFCFCFCFCFCFCFCFCFCDF
:10016000FCFCFCFCFCFCFCFCFCFCFCFCFCFCFCFCCF
:10017000E0984C34984C34E0E0984C34984C34E09F
:10018000E0984C34984C34E0E0984C34984C34E08F
:10019000FFFFFFFFFFFFFFFFFFFFFFFFFFFFFFFF6F
:1001A000F3E5D8CDC2B9B1A9A29B95908B86817D8C
:1001B0007975726F6C696663615E5C5A5856545209
:1001C000504F4D4C4A49474645444241403F3E3DD1
:1001D0003C3B3A39383837363535343332323130C2
:1001E000302F2F2E2E2D2C2C2B2B2A2A2929292853
:1001F00028272726262625252524242423232322B1
:100200002222212121202020201F1F1F1F1E1E1EF1
:100210001E1D1D1D1D1C1C1C1C1C1B1B1B1B1B1A1F
:100220001A1A1A1A19191919191918181818181840
:100230001717171717171716161616161616151559
:100240001515151515151414141414141414141369
:100250001313131313131313131212121212121275
:10026000121212121111111111111111111111117A
:10027000101010101010101010101010100F0F0F81
:100280000F0F0F0F0F0F0F0F0F0F0F0F0F0E0E0E81
:10029000000000000000000000000000000000005E
:1002A000000000000000000000FCE01C001C1CE03E
:1002B000FC1C001C1C1C1C1C001C00FCE0000000A2
:1002C00000FCE01CFCFC1C1C1C1CFCFC1C001C1C82
:1002D000FCFC00FCE000000000000000E0E01CFC72
:1002E000FC1CFCFC1CFCFC00FCE0001C00000000F2
:1002F000000000001C0000FCE01CFCFC1CFCFC00DE
:10030000FCE0001C00000000001C0000FCE000FC01
:10031000E0001C001CFCFC1CFCFC001C000000009D
:10032000000000001C0000FCE01CFCFC1CFCFC00AD
:100330001C0000FCE00000000000000000000000C5
:100340000000FC0000FC00000000000000000000B5
:10035000FCFCFCFCFCFCFCFCFCFC00FCFC00FCFCD5
:10036000FCFCFCFCFCFCFCFC0000000000001CFC95
:10037000E01C00E01C00E01CFCE0000000000000AD
:10038000FCFCFCFCFCFCE0001CE0FC1CE0FC1CE0B9
:10039000001CFCFCFCFCFCFC000000001CFC000041
:1003A000FC00FC1C1C00E01C00E000FC0000000045
:1003B00000FCE01C001C1C001C00FCE0001C0000F9
:1003C000FCE0001C00000000001C00001CE0001C01
:1003D0001C001C0000FC001CFC001CE000000000D5
:1003E0000000FC00FC1C00E0FC00FC1C00E0FC1C0D
:1003F000E0FC1CE0000000000000001C1C1C00FCD5
:10040000E01CE0FC00FCE01C1C1C000000000000E4
:1004100000E00000FC0000FCE000FCFC00FCE00050
:10042000FC0000E0000000000000E0001CE000FC18
:10043000E01CFCE000FCE0001CE00000E00000002C
:10044000001C0000FCE01CFCFC001C001CFCFC0070
:10045000FCE0001C0000000000E0E000E0E000E044
:10046000E000E0E000E0E000000000E0E00000006C
:1004700000FCFC1C1C1C1C1C1C00FC1C001C1C008C
:100480001C1C001C1C00000000FCE01C001C00FCEC
:100490000000E0E0001CE01C001C00FCE00000008C
:1004A0000000000000000000000000000000001C30
:1004B000FCE01CFCE0000000001C0000FCE01CFC58
:1004C000FC001C001CFCFC00FCE0001C0000FCE02C
:1004D000001C0000FCE01CFCFC001C00001C0000D8
:1004E0001C00001C00000000001C00001C00001C80
:1004F00000001C001CFCFC00FCE0001C00000000D4
:10050000000000001C00001CE01CFCFC001CE000C3
:100510001C00000000000000000000001C0000FCA7
:10052000001CFCFC00FC00001C000000000000009F
:100530000000000000000000001C00001C00001C67
:1005400000001CFCFC00000000000000E0E000E0F7
:10055000E01CFCFC00E0E000E0E000000000000027
:10056000001C00001C0000FCE000FCE01CFCFC1C6B
:10057000FCFC0000000000001CFCFC1CFCFC00FC5F
:10058000E000FCE0001C00001C0000000000000077
:10059000000000000000000000000000000000005B
:1005A0000000000000000000001C0000FCE000FC57
:1005B000E0001C00001C00000000001C0000000007
:1005C0001CE0FC1CE0FC1C00E0000000000000003F
:1005D000000000000000000000000000E0E01CFC43
:1005E000FC00E0E000E0E01CFCFC00E0E0000000BB
:1005F00000E00000FCE01C000000FC000000E01C2B
:10060000FC00001C000000001CE01C1CE01C0000A2
:10061000E0001C0000E0001C00FC1C00FC000000CE
:1006200000E0001C1C001C1C0000E0001C1C1C1C2A
:1006300000E000FC1C00000000FC0000FC0000E0EA
:1006400000000000000000000000000000000000AA
:10065000001C0000E00000E00000E00000E00000FE
:10066000E000001C0000000000E000001C00001C76
:1006700000001C00001C00001C0000E00000000046
:1006800000000000E0E000FCE01CFCFC00FCE000DE
:10069000E0E0000000000000000000001C00001C62
:1006A000001CFCFC001C00001C00000000000000FE
:1006B000000000000000000000000000000000003A
:1006C000FC0000FC0000E000000000000000000052
:1006D000001CFCFC00000000000000000000000006
:1006E000000000000000000000000000000000000A
:1006F000FC0000FC0000000000000000001C0000E6
:10070000E0001C0000E0001C0000000000000000F1
:1007100000FCE01C001C1C00FC1C1C1C1CE01C1C25
:10072000001C00FCE0000000001C0000FC00001C9D
:1007300000001C00001C00001C0000FCE000000089
:1007400000FCE01C001C00001C001CE000E0001C81
:1007500000001CFCFC00000000FCE01C001C000071
:100760001C00FCE000001C1C001C00FCE000000061
:100770000000E0001CE000E0E01C00E01CFCFC00CD
:1007800000E00000E00000001CFCFC1C00001C005D
:10079000001CFCE000001C1C001C00FCE000000031
:1007A000001CE000E0001C00001CFCE01C001C1C05
:1007B000001C00FCE00000001CFCFC00001C000011
:1007C000E0001C0000E00000E00000E0000000008D
:1007D00000FCE01C001C1C001C00FCE01C001C1C9D
:1007E000001C00FCE000000000FCE01C001C1C00E1
:1007F0001C00FCFC00001C0000E000FC00000000ED
:1008000000000000000000FC0000FC0000000000F0
:10081000FC0000FC0000000000000000000000FCE4
:100820000000FC0000000000FC0000FC0000E000F4
:100830000000E0001C0000E0001C000000E00000E0
:100840001C000000E00000000000000000001CFC94
:10085000FC0000000000001CFCFC00000000000088
:1008600000E000001C000000E000001C0000E000B0
:100870001C0000E00000000000FCE01C001C000068
:100880001C001CE0001C00000000001C0000000018
:1008900000FCE01C001C1C1CFC1C1C1C1C1CFC1C6C
:1008A000000000FCE000000000FCE01C001C1C003C
:1008B0001C1C001C1CFCFC1C001C1C001C00000060
:1008C0001CFCE01C001C1C001C1CFCE01C001C1C74
:1008D000001C1CFCE000000000FCE01C001C1C00D4
:1008E000001C00001C00001C001C00FCE0000000BC
:1008F0001CFCE01C001C1C001C1C001C1C001C1C04
:10090000001C1CFCE00000001CFCFC1C00001C0087
:10091000001CFCE01C00001C00001CFCFC00000093
:100920001CFCFC1C00001C00001CFCE01C00001C4B
:1009300000001C000000000000FCE01C001C1C006B
:10094000001C1CFC1C001C1C001C00FCFC0000000B
:100950001C001C1C001C1C001C1CFCFC1C001C1C87
:10096000001C1C001C00000000FCE0001C00001C1F
:1009700000001C00001C00001C0000FCE000000047
:1009800000001C00001C00001C00001C1C001C1CA3
:10099000001C00FCE00000001C001C1C00E01C1CF3
:1009A000001CE0001C1C001C00E01C001C000000DF
:1009B0001C00001C00001C00001C00001C00001C8F
:1009C00000001CFCFC0000001C001C1CE0FC1C1CAB
:1009D0001C1C001C1C001C1C001C1C001C0000001B
:1009E0001C001C1CE01C1C1C1C1C00FC1C001C1CF7
:1009F000001C1C001C00000000FCE01C001C1C0073
:100A00001C1C001C1C001C1C001C00FCE000000046
:100A10001CFCE01C001C1C001C1CFCE01C00001C3E
:100A200000001C000000000000FCE01C001C1C007A
:100A30001C1C001C1C1C1C1C00E000FC1C000000FA
:100A40001CFCE01C001C1C001C1CFCE01C00E01C2E
:100A5000001C1C001C00000000FCE01C001C1C0012
:100A60000000FCE000001C1C001C00FCE00000007A
:100A70001CFCFC001C00001C00001C00001C0000F2
:100A80001C00001C000000001C001C1C001C1C00A2
:100A90001C1C001C1C001C1C001C00FCE0000000B6
:100AA0001C001C1C001C1C001C1C001C1C001C002E
:100AB000E0E0001C000000001C001C1C001C1C1CB2
:100AC0001C1C1C1C1C1C1C1C1C1C00E0E00000004E
:100AD0001C001C1C001C00E0E0001C0000E0E01CEE
:100AE000001C1C001C0000001C001C1C001C1C0026
:100AF0001C00E0E0001C00001C00001C00000000C6
:100B00001CFCE00000E0001C0000E0001C00001CD9
:100B100000001CFCE000000000FCE000E00000E041
:100B20000000E00000E00000E00000FCE000000049
:100B30000000001C000000E000001C000000E000BD
:100B4000001C00000000000000FCE00000E00000CD
:100B5000E00000E00000E00000E000FCE000000039
:100B6000001C0000E0E01C001C0000000000000071
:100B70000000000000000000000000000000000075
:100B800000000000000000000000000000FCFCFC71
:100B900000FC0000FC00001C000000000000000041
:100BA000000000000000000000000000000000FC49
:100BB000E000001C00FCFC1C001C00FCFC00000011
:100BC0001C00001C00001CFCE01C001C1C001C1C69
:100BD000001C1CFCE000000000000000000000FC05
:100BE000E01C001C1C00001C001C00FCE0000000BD
:100BF00000001C00001C00FCFC1C001C1C001C1C39
:100C0000001C00FCFC00000000000000000000FCD4
:100C1000E01C001C1CFCE01C000000FCE0000000CC
:100C2000001CE000E00000E0001CFCE000E0000030
:100C3000E00000E00000000000000000000000FCF8
:100C4000FC1C001C1C001C00FCFC00001C00FCE048
:100C50001C00001C00001CFC001C00E01C00E01C30
:100C600000E01C00E0000000001C00000000001C70
:100C700000001C00001C00001C00001CE000000024
:100C80000000E0000000001CE00000E00000E000C8
:100C900000E01C00E000FC001C00001C00001C0028
:100CA000E01C1C001CE0001C1C001C00E0000000FC
:100CB000001C00001C00001C00001C00001C0000A8
:100CC0001C00001CE00000000000000000001CE010
:100CD000E01C1C1C1C1C1C1C001C1C001C0000001C
:100CE0000000000000001CFC001C00E01C00E01CD8
:100CF00000E01C00E000000000000000000000FC1C
:100D0000E01C001C1C001C1C001C00FCE00000007F
:100D10000000000000001CFCE01C001C1C001C1C4F
:100D2000001C1CFCE01C000000000000000000FC97
:100D3000FC1C001C1C001C1C001C00FCFC00001CFB
:100D40000000000000001C1CE000E01C00E00000AF
:100D5000E0001CFC0000000000000000000000FC9F
:100D6000E01C000000FCE000001C00FCE0000000B3
:100D700000000000E0001CFCE000E00000E00000DB
:100D8000E0E0001C000000000000000000001C006B
:100D9000E01C00E01C00E01C1CE000E0E0000000A3
:100DA0000000000000001C001C1C001C1C001C009B
:100DB000E0E0001C000000000000000000001C003B
:100DC0001C1C001C1C1C1C1CFCFC00E0E0000000A7
:100DD0000000000000001C00E01C00E000FC001C03
:100DE00000E01C00E00000000000000000001C000B
:100DF000E01C00E01C00E000FCE0001C001CE00027
:100E00000000000000001CFCE00000E000FC001CF2
:100E100000001CFCE0000000001CE000E00000E01E
:100E2000001CE00000E00000E000001CE00000000A
:100E3000001C00001C00001C00000000001C000042
:100E40001C00001C0000000000FC000000E000008E
:100E5000E00000FC0000E00000E000FC00000000FA
:100E600000E0E01C1C00000000000000000000008A
:100E70000000000000000000001C0000FCE01CE07E
:100E8000FC1C001C1C001C1CFCFC000000000000E2
:100E9000000000000013000000000000000000003F
:100EA00000000000007131000000797361773200AA
:100EB0000063786465343300002076667472350010
:100EC000006E6268677A360000006D6A7537380018
:100ED000002C6B696F303900002E2D6C00702700DC
:100EE00000000000005E000000000D000024000073
:100EF000003C000000000800003100343700000012
:100F0000302E323536380300002B332D2A390000BD
:100F100000000000000000000013000000000000BE
:100F2000000000000000000000512B000000595399
:100F3000415722000043584445002A0000205646ED
:100F400054522500004E4248475A260000004D4AA0
:100F5000552F2800003B4B494F3D2900003A5F4C7C
:100F600000503F00000000000060000000000D2164
:100F700000A30000003E0000000008000031003423
:100F800037000000302E323536380300002B332D69
:100F90002A390000000000000000000000130000DB
:100FA0000000000000000000000000000000000041
:100FB00000000000000040000000000000002300CE
:100FC0000000000000000000000000000000000021
:100FD00000000000007C0000000000000000000095
:100FE000000000000000000000007B005B7E0000AD
:100FF00000000D5D007D0000005C000000000800A6
:101000000031003437000000302E3235363803000E
:10101000002B332D2A39000000000000001CFC00CA
:1010200000E000E01C00E0E01C1C1CE01C00FC00D8
:1010300000E00000001CFCE000000000001CE000DC
:1010400000E01C001C0000E01CFCFCE01C0000E0B8
:101050001C0000E01C0000E0000000001CFCFC0084
:1010600000E000E000E000E000FCFC0000E000E048
:1010700000E000E01CFCFC0000000000001CFC0084
:1010800000E000E01C0000001C0000001C0000004C
:1010900000E000E0001CFC00000000001CFCE00080
:1010A00000E01C0000E000E000E000E000E000E004
:1010B00000E01C001CFCE000000000001CFCFCE048
:1010C0001C0000001C0000001CFCE0001C000000D4
:1010D0001C0000001CFCFCE0000000001CFCFCE00C
:1010E0001C0000001C0000001CFCE0001C000000B4
:1010F0001C0000001C00000000000000001CFC00A0
:1011000000E000E01C0000001C00FCE01C0000E00F
:1011100000E000E0001CFC00000000001C0000E0FB
:101120001C0000E01C0000E01CFCFCE01C0000E0D7
:101130001C0000E01C0000E000000000001CFC009F
:101140000000E0000000E0000000E0000000E0001F
:101150000000E000001CFC00000000000000FCE0BB
:1011600000001C0000001C0000001C0000001C000F
:101170001C001C0000FCE000000000001C0000E05F
:101180001C001C001C00E0001CFC00001C00E00017
:101190001C001C001C0000E0000000001C000000FF
:1011A0001C0000001C0000001C0000001C000000CF
:1011B0001C0000001CFCFCE0000000001C0000E023
:1011C0001CE01CE01C1CE0E01C1CE0E01C0000E03B
:1011D0001C0000E01C0000E0000000001C0000E01B
:1011E0001CE000E01C1C00E01C00E0E01C001CE017
:1011F0001C0000E01C0000E000000000001CE000FB
:1012000000E01C001C0000E01C0000E01C0000E0EE
:1012100000E01C00001CE000000000001CFCFC00C2
:101220001C0000E01C0000E01CFCFC001C00000096
:101230001C0000001C00000000000000001CE0007A
:1012400000E01C001C0000E01C0000E01C00E0E0CE
:1012500000E01C00001CE0E0000000001CFCFC00A2
:101260001C0000E01C0000E01CFCFC001C00E00076
:101270001C001C001C0000E00000000000FCFC0042
:101280001C0000E01C00000000FCFC00000000E06E
:101290001C0000E000FCFC000000000000FCFCE082
:1012A0000000E0000000E0000000E0000000E000BE
:1012B0000000E0000000E000000000001C0000E072
:1012C0001C0000E01C0000E01C0000E01C0000E02E
:1012D0001C0000E000FCFC00000000001C0000E01E
:1012E0001C0000E01C0000E000E01C0000E01C000E
:1012F000001CE000001CE000000000001C0000E0FA
:101300001C0000E01C0000E01C1CE0E01C1CE0E0F5
:101310001CE01CE01C0000E0000000001C0000E0DD
:101320001C0000E000E01C00001CE00000E01C00CD
:101330001C0000E01C0000E00000000000E000E0F5
:1013400000E000E000E000E0001CFC000000E00025
:101350000000E0000000E000000000001CFCFCE0D9
:10136000000000E000001C00001CE00000E00000A5
:101370001C0000001CFCFCE00000000000FCFC0065
:1013800000E0000000E0000000E0000000E00000DD
:1013900000E0000000FCFC00000000000000000075
:1013A0001C00000000E00000001C00000000E00045
:1013B00000001C00000000E00000000000FCFC0039
:1013C00000001C0000001C0000001C0000001C00AD
:1013D00000001C0000FCFC000000000000000000F9
:1013E0000000E000001CFC0000E0E0E00000E00085
:1013F0000000E0000000E0000000E000000000004D
:1014000000000000001C000000E000001CFCFCFCD0
:1014100000E00000001C00000000000000000000D0
:1014200000000000000000000000000000000000BC
:101430000000000000000000000000000000E000CC
:101440000000E0000000E0000000E00000000000FC
:10145000000000000000E0000000000000E01C00B0
:1014600000E01C0000E01C00000000000000000084
:1014700000000000000000000000000000E01C0070
:1014800000E01C001CFCFCE000E01C001CFCFCE07C
:1014900000E01C0000E01C00000000000000E00074
:1014A000001CFCE000E0E000001CFC000000E0E0AC
:1014B00000FCFC000000E000000000000000000054
:1014C0001CE000E01CE01C000000E000001C00002C
:1014D00000E01CE01C001CE00000000000FC00001C
:1014E0001C00E0001C00E00000FC00001C00E0E02C
:1014F0001C001C0000FCE0E00000000000001C00DC
:101500000000E000001C00000000000000000000DF
:1015100000000000000000000000000000001C00AF
:101520000000E000001C0000001C0000001C000087
:101530000000E00000001C000000000000E00000CF
:10154000001C00000000E0000000E0000000E000DF
:10155000001C000000E00000000000000000E000AF
:1015600000E0E0E0001CFC0000FCFCE0001CFC00D3
:1015700000E0E0E00000E0000000000000000000EB
:101580000000E0000000E00000FCFCE00000E000E3
:101590000000E0000000000000000000000000006B
:1015A000000000000000000000000000000000003B
:1015B0000000E0000000E000001C0000000000004F
:1015C00000000000000000001CFCFCE00000000027
:1015D000000000000000000000000000000000000B
:1015E00000000000000000000000000000000000FB
:1015F000001CE000001CE0000000000000000000F3
:10160000000000E000001C000000E000001C0000E2
:1016100000E000001C0000000000000000FCFC00D6
:101620001C0000E01C001CE01C1CE0E01CE000E0D2
:101630001C0000E000FCFC00000000000000E000D6
:10164000001CE00000E0E0000000E0000000E0001E
:101650000000E00000FCFCE00000000000FCFC00DA
:101660001C0000E0000000E00000FC0000FC0000A6
:101670001C0000001CFCFCE00000000000FCFC0062
:101680001C0000E0000000E0001CFC00000000E086
:101690001C0000E000FCFC000000000000001C003A
:1016A0000000FC00001C1C0000E01C001CFCFCE016
:1016B00000001C0000001C00000000001CFCFCE0FE
:1016C0001C0000001CFCE00000001C00000000E00A
:1016D0001C001C0000FCE00000000000001CFC00DE
:1016E00000E000001C0000001CFCFC001C0000E0EE
:1016F0001C0000E000FCFC00000000001CFCFCE002
:101700001C0000E000001C000000E000001C0000C5
:10171000001C0000001C00000000000000FCFC0099
:101720001C0000E01C0000E000FCFC001C0000E0CD
:101730001C0000E000FCFC000000000000FCFC00BD
:101740001C0000E01C0000E000FCFCE0000000E0E9
:1017500000001C0000FCE000000000000000000091
:10176000000000000000E000000000000000000099
:101770000000E00000000000000000000000000089
:10178000000000000000E000000000000000000079
:101790000000E0000000E000001C00000000FCE091
:1017A000001CE00000FC00001CE0000000FC000049
:1017B000001CE0000000FCE0000000000000000051
:1017C000000000001CFCFCE0000000001CFCFCE031
:1017D0000000000000000000000000001CFC0000F1
:1017E000001CE0000000FC0000001CE00000FC0009
:1017F000001CE0001CFC00000000000000FCFC00DD
:101800001C0000E0000000E00000FC00001C0000E4
:1018100000000000001C00000000000000000000AC
:10182000000000000000000000000000FCFCFCFCC8
:101830000000000000000000000000000000E000C8
:10184000001CFC0000FCFCE01CFCFCFC1CFCFCFC88
:10185000001CFC0000FCFCE000000000001C00007C
:10186000001C0000001C0000001C0000001C000008
:10187000001C0000001C0000001C00000000000014
:101880000000000000000000FCFCFCFC0000000068
:101890000000000000000000000000000000000048
:1018A00000000000FCFCFCFC000000000000000048
:1018B0000000000000000000000000000000000028
:1018C000FCFCFCFC00000000000000000000000028
:1018D0000000000000000000000000000000000008
:1018E00000000000000000000000000000000000F8
:1018F000FCFCFCFC000000000000000000E0000018
:1019000000E0000000E0000000E0000000E0000057
:1019100000E0000000E0000000E0000000001C000B
:1019200000001C0000001C0000001C0000001C0047
:1019300000001C0000001C0000001C000000000053
:10194000000000000000000000000000FCE00000BB
:10195000001C00000000E0000000E0000000E000CB
:101960000000E0000000E00000001C00000000FC9F
:101970000000000000000000000000000000E00087
:101980000000E0000000E000001C0000FCE000009F
:10199000000000000000000000000000E000000067
:1019A000E0000000E0000000E0000000E0000000B7
:1019B000E0000000E0000000FCFCFCFCE000000097
:1019C0001C00000000E00000001C00000000E0001F
:1019D00000001C00000000E00000001C0000001CD3
:1019E000000000E000001C000000E000001C0000FF
:1019F00000E000001C000000E0000000FCFCFCFC1B
:101A0000E0000000E0000000E0000000E000000056
:101A1000E0000000E0000000E0000000FCFCFCFC36
:101A20000000001C0000001C0000001C0000001C46
:101A30000000001C0000001C0000001C0000000052
:101A400000FCFC001CFCFCE01CFCFCE01CFCFCE0C2
:101A50001CFCFCE000FCFC0000000000000000009A
:101A60000000000000000000000000000000000076
:101A700000000000FCFCFCFC0000000000FC1CE07E
:101A80001CFCFCFC1CFCFCFC1CFCFCFC00FCFCE04E
:101A9000001CFC000000E000000000001C00000032
:101AA0001C0000001C0000001C0000001C000000C6
:101AB0001C0000001C0000001C00000000000000D2
:101AC000000000000000000000000000000000FC1A
:101AD00000001C000000E0000000E000E000001C2E
:101AE0001C0000E000E01C00001CE000001CE00006
:101AF00000E01C001C0000E0E000001C00000000F2
:101B000000FCFC001C0000E01C0000E01C0000E0E9
:101B10001C0000E000FCFC00000000000000E000F1
:101B2000001CFC0000E0E0E01CFC1CFC00E0E0E02D
:101B30000000E0000000E00000000000000000E005
:101B4000000000E0000000E0000000E0000000E015
:101B5000000000E0000000E0000000E00000E00005
:101B6000001CFC0000FCFCE01CFCFCFC00FCFCE09D
:101B7000001CFC000000E000000000000000E0008D
:101B80000000E0000000E0000000E000FCFCFCFCC5
:101B90000000E0000000E0000000E000E0E00000E5
:101BA0001C1C0000E0E000001C1C0000E0E0000045
:101BB0001C1C0000E0E000001C1C00000000E00015
:101BC0000000E0000000E0000000E0000000E00095
:101BD0000000E0000000E0000000E0000000000065
:101BE000000000000000001C00FCFCE01C1C1C00AD
:101BF000001C1C00001C1C0000000000FCFCFCFC85
:101C00001CFCFCFC00FCFCFC001CFCFC0000FCFCC4
:101C100000001CFC000000FC0000001C0000000094
:101C200000000000000000000000000000000000B4
:101C3000000000000000000000000000FCFC0000AC
:101C4000FCFC0000FCFC0000FCFC0000FCFC0000B4
:101C5000FCFC0000FCFC0000FCFC0000000000009C
:101C6000000000000000000000000000FCFCFCFC84
:101C7000FCFCFCFCFCFCFCFCFCFCFCFCFCFCFCFCA4
:101C80000000000000000000000000000000000054
:101C90000000000000000000000000000000000044
:101CA0000000000000000000000000000000000034
:101CB0000000000000000000FCFCFCFCE000000054
:101CC000E0000000E0000000E0000000E000000094
:101CD000E0000000E0000000E0000000E0E0E0E0E4
:101CE0001C1C1C1CE0E0E0E01C1C1C1CE0E0E0E014
:101CF0001C1C1C1CE0E0E0E01C1C1C1C0000001C68
:101D00000000001C0000001C0000001C0000001C63
:101D10000000001C0000001C0000001C000000006F
:101D2000000000000000000000000000E0E0E0E033
:101D30001C1C1C1CE0E0E0E01C1C1C1CFCFCFCFC53
:101D4000FCFCFCE0FCFCFC00FCFCE000FCFC0000FB
:101D5000FCE00000FC000000E0000000000000FCCF
:101D6000000000FC000000FC000000FC000000FC83
:101D7000000000FC000000FC000000FC0000E0008F
:101D80000000E0000000E0000000E0000000FCFCBB
:101D90000000E0000000E0000000E00000000000A3
:101DA0000000000000000000000000000000FCFC3B
:101DB0000000FCFC0000FCFC0000FCFC0000E0005B
:101DC0000000E0000000E0000000E0000000FCFC7B
:101DD0000000000000000000000000000000000003
:101DE000000000000000000000000000FCFCE0001B
:101DF0000000E0000000E0000000E0000000000043
:101E000000000000000000000000000000000000D2
:101E100000000000FCFCFCFCFCFCFCFC00000000E2
:101E20000000000000000000000000000000FCFCBA
:101E30000000E0000000E0000000E0000000E00022
:101E40000000E0000000E0000000E000FCFCFCFC02
:101E50000000000000000000000000000000000082
:101E6000000000000000000000000000FCFCFCFC82
:101E70000000E0000000E0000000E0000000E000E2
:101E80000000E0000000E0000000E000FCFCE000DA
:101E90000000E0000000E0000000E000FC000000A6
:101EA000FC000000FC000000FC000000FC00000042
:101EB000FC000000FC000000FC000000FCE0000052
:101EC000FCE00000FCE00000FCE00000FCE00000A2
:101ED000FCE00000FCE00000FCE0000000001CFC56
:101EE00000001CFC00001CFC00001CFC00001CFC92
:101EF00000001CFC00001CFC00001CFCFCFCFCFCAA
:101F0000FCFCFCFC000000000000000000000000E1
:101F1000000000000000000000000000FCFCFCFCD1
:101F2000FCFCFCFCFCFCFCFC0000000000000000D1
:101F300000000000000000000000000000000000A1
:101F40000000000000000000000000000000000091
:101F5000FCFCFCFCFCFCFCFCFCFCFCFC0000001C95
:101F60000000001C0000001C0000001C0000001C01
:101F70000000001C0000001CFCFCFCFC0000000039
:101F8000000000000000000000000000FCFC000059
:101F9000FCFC0000FCFC0000FCFC00000000FCFC61
:101FA0000000FCFC0000FCFC0000FCFC0000000049
:101FB0000000000000000000000000000000E00041
:101FC0000000E0000000E0000000E000FCFCE00099
:101FD000000000000000000000000000FCFC000009
:101FE000FCFC0000FCFC0000FCFC00000000000009
:101FF000000000000000000000000000FCFC0000E9
:10200000FCFC0000FCFC0000FCFC00000000FCFCF0
:102010000000FCFC0000FCFC0000FCFC7377207658
:10202000312E322E302E300D000000000000000056
:1020300000000000000000000000000000000000A0
:102040000000000000000000000000000000000090
:102050000000000000000000000000000000000080
:102060000000000000000000000000000000000070
:102480004E207D2811241FBECFEFD8E0DEBFCDBF88
:1024900011E0A0E0B1E0E6E7F1E502C005900D92A1
:1024A000A830B107D9F727E0A8E0B1E001C01D923C
:1024B000AF38B207E1F712E1C2E4D2E104C02197DC
:1024C000FE010E94A428C034D107C9F70E949E23B0
:1024D0000C94B9280C940000FC011182108208951C
:1024E000FC011182108208950F931F93CF93DF9305
:1024F000582FE62F403268F1862F8D7F813051F0C2
:10250000653041F099EF960F923020F06A3011F06B
:102510006C3019F5EF5F41E0ED3010F05F5FE1E006
:1025200057FD25C050931D06E0931E0640931F06DD
:1025300080911D065813F6CF80911E06E813F2CF46
:1025400080911F068413EECFDF91CF911F910F91E1
:1025500008954F3171F4862F8D7F8430D9F2893000
:10256000C9F2E230C9F641E0E3E057FFDBCF51E0CA
:10257000D9CF4E31B1F34D3179F6623069F6C82FBB
:10258000D0E0C454D84F8E0116950795169507953F
:10259000C801880F991F880F991FC817D90709F418
:1025A000BFCF9E01329522952F7023273F7023279E
:1025B000AEE3BAE00E94AA2820E931E0BC01629FA4
:1025C000C001639F900D729F900D1124C817D90709
:1025D00051F69801ABE7B4E10E94AA289695879539
:1025E00064E6689F9001699F300D1124C217D307DC
:1025F00009F096CFB8CFCF93DF93C62FD42F4C33AB
:1026000010F0CF5FD0E0CC3310F08F5FC0E08831A6
:10261000A8F480932006C0932106D09322069091BF
:1026200020068913F6CF90912106C913F2CF90911D
:102630002206D913EECFDF91CF91089540911F0666
:1026400060911E0680911D064F5F0E94741280E00B
:10265000E0CF1F920F920FB60F921124FF920F93AB
:102660001F932F933F934F935F936F937F938F931A
:102670009F93AF93BF93CF93DF93EF93FF93BB27CA
:10268000A0914600A3700E944513FF91EF913696EA
:10269000EA0FFB1F099400000000000016B1107241
:1026A00006B12091D7058091020190910301019616
:1026B0009093030180930201803E914010F01092AC
:1026C000D705A091D905A695A695A6958091D9057F
:1026D0004091D8059091D7053091D4055DE1A59F33
:1026E000D0011124AA0FBB1FA85FBE4F8770849F23
:1026F000802D11240F921F92FF920F931F93F82E9B
:10270000092F132F1124033009F4E9C1013009F016
:1027100028C60000000000000000000000000000CB
:1027200000000000000000000000000000000000A9
:10273000289AED91FD910000EF0DF11D059000002C
:1027400000000BB80590CD91DD910BB8059000000D
:10275000CF0DD11DFE010BB8000000000590000058
:1027600000000BB80590CD91DD910BB805900000ED
:10277000CF0DD11DFE010BB8000000000590000038
:1027800000000BB80590CD91DD910BB805900000CD
:10279000CF0DD11DFE010BB8000000000590000018
:1027A00000000BB80590CD91DD910BB805900000AD
:1027B000CF0DD11DFE010BB80000000005900000F8
:1027C00000000BB80590CD91DD910BB8059000008D
:1027D000CF0DD11DFE010BB80000000005900000D8
:1027E00000000BB80590CD91DD910BB8059000006D
:1027F000CF0DD11DFE010BB80000000005900000B8
:1028000000000BB80590CD91DD910BB8059000004C
:10281000CF0DD11DFE010BB8000000000590000097
:1028200000000BB80590CD91DD910BB8059000002C
:10283000CF0DD11DFE010BB8000000000590000077
:1028400000000BB80590CD91DD910BB8059000000C
:10285000CF0DD11DFE010BB8000000000590000057
:1028600000000BB80590CD91DD910BB805900000EC
:10287000CF0DD11DFE010BB8000000000590000037
:1028800000000BB80590CD91DD910BB805900000CC
:10289000CF0DD11DFE010BB8000000000590000017
:1028A00000000BB80590CD91DD910BB805900000AC
:1028B000CF0DD11DFE010BB80000000005900000F7
:1028C00000000BB80590CD91DD910BB8059000008C
:1028D000CF0DD11DFE010BB80000000005900000D7
:1028E00000000BB80590CD91DD910BB8059000006C
:1028F000CF0DD11DFE010BB80000000005900000B7
:1029000000000BB80590CD91DD910BB8059000004B
:10291000CF0DD11DFE010BB8000000000590000096
:1029200000000BB80590CD91DD910BB8059000002B
:10293000CF0DD11DFE010BB8000000000590000076
:1029400000000BB80590CD91DD910BB8059000000B
:10295000CF0DD11DFE010BB8000000000590000056
:1029600000000BB80590CD91DD910BB805900000EB
:10297000CF0DD11DFE010BB8000000000590000036
:1029800000000BB80590CD91DD910BB805900000CB
:10299000CF0DD11DFE010BB8000000000590000016
:1029A00000000BB80590CD91DD910BB805900000AB
:1029B000CF0DD11DFE010BB80000000005900000F6
:1029C00000000BB80590CD91DD910BB8059000008B
:1029D000CF0DD11DFE010BB80000000005900000D6
:1029E00000000BB80590CD91DD910BB8059000006B
:1029F000CF0DD11DFE010BB80000000005900000B6
:102A000000000BB80590CD91DD910BB8059000004A
:102A1000CF0DD11DFE010BB8000000000590000095
:102A200000000BB80590CD91DD910BB8059000002A
:102A3000CF0DD11DFE010BB8000000000590000075
:102A400000000BB80590CD91DD910BB8059000000A
:102A5000CF0DD11DFE010BB8000000000590000055
:102A600000000BB80590CD91DD910BB805900000EA
:102A7000CF0DD11DFE010BB8000000000590000035
:102A800000000BB80590CD91DD910BB805900000CA
:102A9000CF0DD11DFE010BB8000000000590000015
:102AA00000000BB80590CD91DD910BB805900000AA
:102AB000CF0DD11DFE010BB80000000005900000F5
:102AC00000000BB80590CD91DD910BB8059000008A
:102AD000CF0DD11DFE010BB8000000003FC4ED91E9
:102AE000FD91EF0DF11DCD91DD91CF0DD11D3196F1
:102AF000FF23289A72F50000163038F03296000055
:102B000000000000000000001CC0143020F03196CE
:102B10000000000010C0123008F007C03197059087
:102B200000000000000000000BB80590000000004D
:102B3000000000000BB8059000000000000000003D
:102B40000BB805900000FE010000DD230BB892F1E8
:102B500047C0163038F03296000000000000000038
:102B600000001FC0143020F031960000000012C099
:102B7000123008F008C031970190000000000000FA
:102B8000000000000BB801900000000000000000F1
:102B900000000BB8019000000000000000000000E1
:102BA0000BB8019000000000FE010000DD230BB80F
:102BB0000AF016C00590000000000BB80590CD91FA
:102BC000000000000BB80590DD91CF0DD11D0BB8B2
:102BD0000590FE01DD23000000000BB8D2F02FC0ED
:102BE0000190000000000BB801900000CD910000A2
:102BF00000000BB801900000DD91CF0DD11D0BB886
:102C00000190FE010000DD23000000000BB8000071
:102C1000B2F40590000000000BB80590CD910000C3
:102C200000000BB80590DD91CF0DD11D0BB80590BC
:102C3000FE01DD23000000000BB8D2F02FC0019090
:102C4000000000000BB801900000CD9100000000D2
:102C50000BB801900000DD91CF0DD11D0BB8019094
:102C6000FE010000DD23000000000BB80000B2F4FC
:102C70000590000000000BB80590CD910000000009
:102C80000BB80590DD91CF0DD11D0BB80590FE015D
:102C9000DD23000000000BB8D2F02FC0019000002F
:102CA00000000BB801900000CD91000000000BB8AF
:102CB00001900000DD91CF0DD11D0BB80190FE01F8
:102CC0000000DD23000000000BB80000B2F4059006
:102CD000000000000BB80590CD91000000000BB87B
:102CE0000590DD91CF0DD11D0BB80590FE01DD23C0
:102CF000000000000BB8D2F02FC0019000000000CF
:102D00000BB801900000CD91000000000BB80190BD
:102D10000000DD91CF0DD11D0BB80190FE01000028
:102D2000DD23000000000BB80000B2F405900000A5
:102D300000000BB80590CD91000000000BB8059085
:102D4000DD91CF0DD11D0BB80590FE01DD230000F4
:102D500000000BB8D2F02FC00190000000000BB8AB
:102D600001900000CD91000000000BB80190000020
:102D7000DD91CF0DD11D0BB80190FE010000DD23C8
:102D8000000000000BB80000B2F405900000000045
:102D90000BB80590CD91000000000BB80590DD91B7
:102DA000CF0DD11D0BB80590FE01DD230000000002
:102DB0000BB8D2F02FC00190000000000BB80190BA
:102DC0000000CD91000000000BB801900000DD91E3
:102DD000CF0DD11D0BB80190FE010000DD230000D6
:102DE00000000BB80000B2F40590000000000BB822
:102DF0000590CD91000000000BB80590DD91CF0D3E
:102E0000D11D0BB80590FE01DD23000000000BB8BA
:102E1000D2F02FC00190000000000BB8019000001C
:102E2000CD91000000000BB801900000DD91CF0DA6
:102E3000D11D0BB80190FE010000DD230000000051
:102E40000BB80000B2F40590000000000BB805902C
:102E5000CD91000000000BB80590DD91CF0DD11D84
:102E60000BB80590FE01DD23000000000BB8D2F086
:102E70002FC00190000000000BB801900000CD9120
:102E8000000000000BB801900000DD91CF0DD11DB6
:102E90000BB80190FE010000DD23000000000BB81C
:102EA0000000B2F40590000000000BB80590CD9131
:102EB000000000000BB80590DD91CF0DD11D0BB8BF
:102EC0000590FE01DD23000000000BB8D2F02FC0FA
:102ED0000190000000000BB801900000CD910000AF
:102EE00000000BB801900000DD91CF0DD11D0BB893
:102EF0000190FE010000DD23000000000BB800007F
:102F0000B2F40590000000000BB80590CD910000D0
:102F100000000BB80590DD91CF0DD11D0BB80590C9
:102F2000FE01DD23000000000BB8D2F02FC001909D
:102F3000000000000BB801900000CD9100000000DF
:102F40000BB801900000DD91CF0DD11D0BB80190A1
:102F5000FE010000DD23000000000BB80000B2F409
:102F60000590000000000BB80590CD910000000016
:102F70000BB80590DD91CF0DD11D0BB80590FE016A
:102F8000DD23000000000BB8D2F02FC0019000003C
:102F900000000BB801900000CD91000000000BB8BC
:102FA00001900000DD91CF0DD11D0BB80190FE0105
:102FB0000000DD23000000000BB80000B2F4059013
:102FC000000000000BB80590CD91000000000BB888
:102FD0000590DD91CF0DD11D0BB80590FE01DD23CD
:102FE000000000000BB8D2F02FC0019000000000DC
:102FF0000BB801900000CD91000000000BB80190CB
:103000000000DD91CF0DD11D0BB80190FE01000035
:10301000DD23000000000BB80000B2F405900000B2
:1030200000000BB80590CD91000000000BB8059092
:10303000DD91CF0DD11D0BB80590FE01DD23000001
:1030400000000BB8D2F02FC00190000000000BB8B8
:1030500001900000CD91000000000BB8019000002D
:10306000DD91CF0DD11D0BB80190FE010000DD23D5
:10307000000000000BB80000B2F405900000000052
:103080000BB80590CD91000000000BB80590DD91C4
:10309000CF0DD11D0BB80590FE01DD23000000000F
:1030A0000BB8D2F02FC00190000000000BB80190C7
:1030B0000000CD91000000000BB801900000DD91F0
:1030C000CF0DD11D0BB80190FE010000DD230000E3
:1030D00000000BB80000B2F40590000000000BB82F
:1030E0000590CD91000000000BB80590DD91CF0D4B
:1030F000D11D0BB80590FE01DD23000000000BB8C8
:10310000D2F02FC00190000000000BB80190000029
:10311000CD91000000000BB801900000DD91CF0DB3
:10312000D11D0BB80190FE010000DD23000000005E
:103130000BB80000B2F40590000000000BB8059039
:10314000CD91000000000BB80590DD91CF0DD11D91
:103150000BB80590FE01DD23000000000BB8D2F093
:103160002FC00190000000000BB801900000CD912D
:10317000000000000BB801900000DD91CF0DD11DC3
:103180000BB80190FE010000DD23000000000BB829
:103190000000B2F40590000000000BB80590CD913E
:1031A000000000000BB80590DD91CF0DD11D0BB8CC
:1031B0000590FE01DD23000000000BB8D2F02FC007
:1031C0000190000000000BB801900000CD910000BC
:1031D00000000BB801900000DD91CF0DD11D0BB8A0
:1031E0000190FE010000DD23000000000BB800008C
:1031F000B2F40590000000000BB80590CD910000DE
:1032000000000BB80590DD91CF0DD11D0BB80590D6
:10321000FE01DD23000000000BB8D2F02FC00190AA
:10322000000000000BB801900000CD9100000000EC
:103230000BB801900000DD91CF0DD11D0BB80190AE
:10324000FE010000DD23000000000BB80000B2F416
:103250000590000000000BB80590CD910000000023
:103260000BB80590DD91CF0DD11D0BB80590FE0177
:10327000DD23000000000BB8D2F02FC00190000049
:1032800000000BB801900000CD91000000000BB8C9
:1032900001900000DD91CF0DD11D0BB80190FE0112
:1032A0000000DD23000000000BB80000B2F4059020
:1032B000000000000BB80590CD91000000000BB895
:1032C0000590DD91CF0DD11D0BB80590FE01DD23DA
:1032D000000000000BB8D2F02FC0019000000000E9
:1032E0000BB801900000CD91000000000BB80190D8
:1032F0000000DD91CF0DD11D0BB80190FE01000043
:10330000DD23000000000BB80000B2F4103039F1EA
:1033100005900BB805900000123019F100000BB8B1
:10332000059000001430E9F000000BB8000015C053
:103330001030B1F001900BB8019000000000123085
:1033400081F000000BB8019000000000143049F03B
:1033500000000BB8000000000000000000000000AA
:1033600000001BB828981F910F91FF901F900F909D
:103370002093D7058091020190910301803E9140F6
:10338000E8F5809104019091050101969093050163
:1033900080930401809124068F5F809324068330FC
:1033A00009F494C180910601882319F0112309F4CE
:1033B0008FC08091C00087FD95C08091F7059091E6
:1033C000F805891B8C3008F08BC0439810930601D8
:1033D000FF91EF91DF91CF91BF91AF919F918F912D
:1033E0007F916F915F914F913F912F911F910F911D
:1033F000FF900F900FBE0F901F90189580910401C1
:10340000909105018130910509F4A2C080910401D9
:1034100090910501039709F4E0C080910401909117
:10342000050101969093050180930401839709F4A7
:1034300018C180910401909105018E30924030F0C6
:1034400081E090E090930501809304018091C00099
:1034500085FF14C09091E5058091E605981771F0FD
:10346000E091E605F0E0EB51FA4F92818091E6059C
:103470008F5F8F708093E6059093C6008091CA0598
:10348000833009F466C108F041C0813009F435C1C8
:10349000823009F087CFA091CD05B091CE05E091A3
:1034A000CD05F091CE05EE0FFF1FAA0FBB1FA85F41
:1034B000BE4FEA5FFE4F9F01285C3F4F8D919D916B
:1034C000819391932E173F07C9F71092CA056ACFCF
:1034D00004FB662760F980EE95E00E94042176CF18
:1034E000439A74CF2091C6008091F7058F5F8F714A
:1034F0009091F805891709F469CFE091F705F0E09C
:10350000E950FA4F22838093F70560CF843009F4A5
:1035100005C1853009F046CF2091CD053091CE050B
:10352000220F331F285F3E4FA091CD05B091CE05ED
:10353000F9013296AA0FBB1FAC5BBE4F285331096D
:10354000929182919E938E932E173F07C9F7BDCF1C
:103550002A9A2091DA05211159CF4091DB0550912B
:10356000DC054115510509F439C1209125062111C9
:1035700030C0DA01BF77209126063091270657FD2B
:1035800055C1B9016F5F7F4F709327066093260680
:10359000FD01E20FF31F4081409325064F3F09F4E0
:1035A00065C1442309F407C12E5F3F4F30932706BE
:1035B00020932606A60FB71F8C91882309F44EC1CD
:1035C0008093B3008091B10087608093B100209117
:1035D000250621502093250619CF2A988091190697
:1035E00090911A06A0911B06B0911C064196A11D50
:1035F000B11D8093190690931A06A0931B06B093F1
:103600001C06809123068F5F809323068C3309F07C
:1036100004CF10922306F0902206F394D091210655
:1036200080912006FBE3FF1510F4DF5FF12CDC3303
:1036300010F08F5FD0E0883108F027C1809320061A
:10364000D0932106F0922206909120069813F6CF8F
:1036500090912106D913F2CF90912206F912EECF64
:10366000DCCE109203011092020110922406909178
:10367000D5058091D605890F8093D9058091CF0516
:103680008111D7CE809128068F5F809328068E31D6
:1036900009F47BC0809128068C3309F0CACE809152
:1036A000000190910101019671F0E0910001F0910B
:1036B0000101EE0FFF1FE85FFE4F8091D205909150
:1036C000D3059183808310922806B3CE8091D905CB
:1036D0008F5F8093D9058091D5052091D90590E021
:1036E00081569F4F30E08217930724F48091D505CF
:1036F0008093D9051092240655CEE091CD05F09126
:10370000CE05EE0FFF1FE85FFE4F8091CB05909135
:10371000CC05918380831092CA0544CEA091CD053B
:10372000B091CE05E091CD05F091CE05EE0FFF1FD3
:10373000AA0FBB1FA85FBE4FE253FF4F9F01265C3D
:103740003F4F8D919D9181939193E217F307C9F7B4
:10375000BCCE2091CD053091CE05220F331F285FBE
:103760003E4FA091CD05B091CE05F9013296AA0F3A
:10377000BB1FA45FBE4F26533109929182919E9345
:103780008E932E173F07C9F7A0CE8091000190912C
:103790000101019609F47ECFE0910001F091010151
:1037A000EE0FFF1FE85FFE4F8091D0059091D1058D
:1037B000918380836FCF1092DC051092DB0510920D
:1037C00027061092260681E0809325068091B1009D
:1037D000887F8093B10020912506FBCE8091DE0585
:1037E0009091DF05892B09F411CE8091DD058823A6
:1037F00059F08091DD058093B3008091B10087601E
:103800008093B1001092DD058091DE059091DF0577
:1038100001979093DF058093DE05892B09F0F6CDA3
:103820008091B100887F8093B100F0CDC9010196ED
:10383000FD01E20FF31FE491E0932506EF3F81F1D4
:10384000EE2309F4B8CF2E5F3F4F30932706209325
:103850002606FD01E80FF91F8491AFCE8091B100DB
:10386000887F8093B10020912506B3CE90932706E0
:10387000809326068C9180932506882309F49BCF9C
:1038800061E070E022E030E091CE40911F0660914F
:103890001E0680911D064F5F0E94741280E0CECEFE
:1038A000FD01849180932506882309F484CF81E06B
:1038B00090E022E030E0C9CF1092D70510922206A6
:1038C000109221061092200610921D0681E080932E
:1038D0001F0680931E060895DC011092BC0083E051
:1038E0008093D8051092D7058091D705813021F1BA
:1038F00082E012968C93129780E992E011969C9345
:103900008E938AB183708AB912968C91129780FF38
:1039100006C08AB180698AB912968C91129781FF8C
:1039200006C08AB188648AB912968C91129782FF78
:1039300003C08AB184628AB9E8E0F1E02D913C913C
:1039400011973D5F2193319385E0EA3CF807B1F789
:1039500081E08093D7058093CF052FEF3FEF309321
:103960000101209300012D913C9111972851374F6F
:103970003093D1052093D0052D913C913D5F30933C
:10398000D3052093D2051092CF051092D505109241
:10399000D40594B1956094B997B19F7C97B9109272
:1039A0006E0014BC85BD17BC18BC16BC219A92E8E9
:1039B000909380009AE1909381002EE730E030935D
:1039C0008700209386002FE030E030938900209319
:1039D000880086BB80936F00239A92E49093B00096
:1039E0008093B3008091B100887F8093B1008FEC09
:1039F0008093C4001092C50088E18093C1003B9A77
:103A00007894289808956091D7052FEF260F2330DA
:103A100008F008950C945B202FEF260F233010F44C
:103A20000C945B2008958091D705813031F083306C
:103A300011F485E1089580E008958DE10895CF9314
:103A4000DF93CDB7DEB728970FB6F894DEBF0FBE71
:103A5000CDBF9C838B836D834E8338872F838E816C
:103A6000882F90E04DE1489F9001499F300D11242F
:103A70008D81882F90E0820F931F9A838983909184
:103A8000CA0581E0992309F480E0882309F0F7CF83
:103A900089819A819093CE058093CD058F819885F9
:103AA0009093CC058093CB0581E08093CA050000FC
:103AB00028960FB6F894DEBF0FBECDBFDF91CF9131
:103AC0000895CF93DF93CDB7DEB728970FB6F8945C
:103AD000DEBF0FBECDBF9C838B836D834E83388743
:103AE0002F838E81882F90E04DE1489F9001499F60
:103AF000300D11248D81882F90E0820F931F9A83BF
:103B000089839091CA0581E0992309F480E0882394
:103B100009F0F7CF89819A819093CE058093CD05E6
:103B20008F81988590689093CC058093CB0581E038
:103B30008093CA05000028960FB6F894DEBF0FBE2A
:103B4000CDBFDF91CF910895DC01ED91FC91DF01B4
:103B500058E1259FA00DB11D11249D010C94611DFC
:103B600081E08093CF05222321F08091D705813019
:103B700049F08FEF9FEF9093010180930001109225
:103B8000CF05089570E08DE1489F600D711D1124EF
:103B900070930101609300011092CF050895809108
:103BA000000190910101019679F081E08093CF05A9
:103BB00070E08DE1489F600D711D1124709301012B
:103BC000609300011092CF0508958091D705813050
:103BD00019F066706093D40508958091D7058130FF
:103BE00019F067706093D5050895643130F4660F5D
:103BF000660F660F6093D605089588E98093D60511
:103C00000895CF93DF9300D000D01F92CDB7DEB7D9
:103C10009B838A837D836C8319828091DB059091DD
:103C2000DC05892B69F481E08093DA058C819D8124
:103C30009093DC058093DB051092DA0581E089839F
:103C400089810F900F900F900F900F90DF91CF917F
:103C50000895CF93DF93CDB7DEB728970FB6F894CA
:103C6000DEBF0FBECDBF9E838D836F8348871982D1
:103C70008091DE059091DF0521E0892B09F020E09D
:103C8000222321F181E08093DA058F81882F90E053
:103C900080579E4F9B838A838A819B81FC018491FC
:103CA0008C838C818093DD058885282F30E0C901C5
:103CB000880F991F820F931F880F991F9093DF051C
:103CC0008093DE051092DA0581E089838981289648
:103CD0000FB6F894DEBF0FBECDBFDF91CF91089530
:103CE00080EE95E00C94112280EE95E00E942A224D
:103CF0000895CB01A0E0B0E0880F991FAA1FBB1F59
:103D0000880F991FAA1FBB1F9C01AD01220F331FF3
:103D1000441F551F220F331F441F551FDA01C901CD
:103D2000B695A79597958795BC01CD01785B87419E
:103D30009E4F0E948228215031092093C400309365
:103D4000C50008952091F7059091F80581E02913A9
:103D5000089580E00895E7EFF5E080819181891B67
:103D60000895CF93DF9300D0CDB7DEB71A82FB0161
:103D7000949199838091E505911106C080E00F90A0
:103D80000F90DF91CF9108958F5F8F702091E6059E
:103D90008217E1F020E0A091E505B0E0AB51BA4F09
:103DA00012969C938093E5058091E5052F5FA1E035
:103DB000B0E0AC0FBD1FA20FB11D9C91992331F053
:103DC0008F5F8F703091E6053813E5CF3196D0CFF5
:103DD0009091E505FB0120812223C9F09F5F9F7030
:103DE0008091E605981799F080E0E091E505F0E014
:103DF000EB51FA4F22839093E5059091E5058F5F93
:103E0000FB01E80FF11D2081211103C0089580E01E
:103E100008959F5F9F703091E6053913E6CF0895AE
:103E20008091E5058F5F8F709091E605891751F0BD
:103E3000E091E505F0E0EB51FA4F62838093E505F0
:103E400081E0089580E008959091F8058091F7054C
:103E5000981769F0E091F805F0E0E950FA4F828197
:103E60009091F8059F5F9F719093F805089580E009
:103E70000895CF93DF9300D000D000D0CDB7DEB748
:103E80009E838D838091190690911A06A0911B063E
:103E9000B0911C0689839A83AB83BC8380911906F9
:103EA00090911A06A0911B06B0911C0661E0298131
:103EB0003A814B815C81281739074A075B0709F46F
:103EC00060E0662369F08091190690911A06A0912E
:103ED0001B06B0911C0689839A83AB83BC83DECF1B
:103EE00089819A81AB81BC81BC01CD0126960FB638
:103EF000F894DEBF0FBECDBFDF91CF910895CF9371
:103F0000DF9300D000D01F92CDB7DEB79A838983AC
:103F10006B834C832D834D816C818B810E94741245
:103F200000000F900F900F900F900F90DF91CF91A6
:103F30000895CF93DF9300D000D01F92CDB7DEB7A6
:103F40009A8389836B834C832D834D816C818B8114
:103F50000E94FB1200000F900F900F900F900F9097
:103F6000DF91CF910895CF93DF9300D000D01F92BF
:103F7000CDB7DEB79D838C8380911D0689838091A8
:103F80001E068A8380911F068B8390911D0689816E
:103F9000981751F490911E068A81981729F49091F0
:103FA0001F068B81981711F081E001C080E0882303
:103FB00009F0E2CF8981882F90E09C01322F2227DF
:103FC000330F8A81882F90E08F709927880F991F6F
:103FD00082959295907F9827807F9827282B392B60
:103FE0008B81882F90E08F719927822B932B0F90D4
:103FF0000F900F900F900F90DF91CF910895CF9376
:10400000DF9300D000D01F92CDB7DEB79D838C83A5
:10401000809120068983809121068A8380912206DF
:104020008B83909120068981981751F490912106F5
:104030008A81981729F4909122068B81981711F0A4
:1040400081E001C080E0882309F0E2CF8981882FD8
:1040500090E09C01322F2227330F330F330F8A81D8
:10406000882F90E08F739927880F991F82959295DA
:10407000907F9827807F9827282B392B8B818695D6
:10408000882F90E08F719927822B932B0F900F90A0
:104090000F900F900F90DF91CF91089580EE95E0F3
:1040A0000E94FB2085EE95E00E946C1287EF95E060
:1040B0000E9470120895CF93DF93EC01613009F4F0
:1040C00061C084E08093D8051092D7058091D70510
:1040D0006817B9F087E08A8380E992E09983888342
:1040E0008AB183708AB98A8180FF04C08AB18069ED
:1040F0008AB98A8181FD7AC082FF03C08AB1846255
:104100008AB9E8E0F1E020E030E0A0E3B1E060E768
:1041100071E00DC07183608340E751E050684193C6
:1041200051932F5F3F4F213682E0380739F020FD51
:10413000F1CFB183A08340E351E0F0CF83E08093DF
:10414000D70581E08093CF058FEF9FEF909301011A
:1041500080930001888199818851974F9093D10570
:104160008093D005888199819D5F9093D30580933A
:10417000D2051092CF051092D5051092D405DF918B
:10418000CF91089583E08093D8051092D705809150
:10419000D7058130D9F082E08A8380E992E0998363
:1041A00088838AB183708AB98A8180FF04C08AB10A
:1041B00080698AB98A8181FF04C08AB188648AB91A
:1041C0008A8182FF03C08AB184628AB9E8E0F1E0A3
:1041D0008AEC95E0288139813D5F219331938E17D8
:1041E0009F07C1F781E08093D705ABCF8AB1886480
:1041F0008AB98A8181CFFC0180E99EE09183808326
:10420000148213821282089580912A06893058F40C
:104210002091290630E035952795611121C090E065
:10422000292B209329068F5F80932A068B30B8F0C4
:1042300080912C068F5F883008F080E090912B06EB
:10424000891749F0E82FF0E090912906E35DF94FD6
:10425000908380932C061092290610922A060895C6
:1042600090E8DECFDC0130E490912B0680912C06A3
:10427000981791F19F5F983088F5E92FF0E0E35DA2
:10428000F94F208190932B06222331F1203F51F1E9
:10429000203E09F457C012969C91129790FF2AC0B5
:1042A000892F8E7F12968C931297223109F452C077
:1042B000293509F459C0243109F460C02131A1F62F
:1042C00091FFD2CF9C7E12969C93129790912B06D1
:1042D00080912C069813CECF80E00895E0E0F0E0C6
:1042E00090E0CDCF12968C911297816012968C93AC
:1042F0001297BACF91FF13C09D7F12969C9312978D
:10430000213109F440C0422F50E0FA01EA54F1098A
:10431000EC32F10520F4EC5CFF4F0C94A428283516
:10432000F1F0223131F1293541F0243109F051C049
:10433000906212969C93129797CF986012969C93D6
:10434000129792CF12968C911297826012968C934C
:1043500012978ACF9A7F12969C93129785CF9327B4
:1043600012969C93129780CF967F12969C931297E9
:104370007BCF946012969C93129776CF9E7D129677
:104380009C93129771CF906112969C9312976CCF69
:104390008EE596FF05C02FE9280F2A3108F48052D8
:1043A00095FF16C09FEB980F9A3108F19FE9980F7F
:1043B0009A3170F48056089581E1EBCF8DE0E9CF1A
:1043C0008FE2E7CF8CE0E5CF82E1E3CF89E0E1CF78
:1043D000089594FF0EC0243808F07ECF30E0285FA7
:1043E0003E4FED91FC91E20FF31F8491D2CF8054A8
:1043F0000895892F8C7061F0243808F06DCF30E07B
:104400002C573F4FED91FC91E20FF31F8491C1CFE8
:10441000243808F061CFED91FC91E20FF11D8491F9
:10442000B8CFCF93DF93FC012381211103C02481F6
:10443000222321F081E0DF91CF910895EC010E94C9
:104440003221982F8B8381E09111F5CF80E0DF91AD
:10445000CF910895FC018481882319F0148290E0A3
:1044600008958381882319F0138290E00895CF0185
:104470000E9432218111F3CF8FEF9FEF0895CF93E8
:10448000DF9300D000D000D0CDB7DEB78E8380910F
:104490003806909139060E94391FDC01CB01865005
:1044A0009F4FAF4FBF4F89839A83AB83BC8380916B
:1044B0003806909139060E94AB1E8D839D818E81B6
:1044C000981798F480913806909139060E94391F08
:1044D0009B01AC0189819A81AB81BC812817390786
:1044E0004A075B0710F481E001C080E0882309F0EF
:1044F000DECF81E02D819E81291708F480E0269689
:104500000FB6F894DEBF0FBECDBFDF91CF910895F7
:10451000CF93DF9300D000D01F92CDB7DEB79B833F
:104520008A837D836C83198289818032B0F48C8187
:104530009D819C012F5F3F4F3D832C832A813B81CE
:10454000A9014F5F5F4F5B834A83F9012081FC0122
:10455000208389818F5F8983E7CF00000F900F90C0
:104560000F900F900F90DF91CF910895DF93D0912E
:104570007C07883009F477C08D3009F452C0282FA9
:104580004D2F60917B0780913806909139060E94EB
:10459000A41D60917B076F5F60937B0740917C0750
:1045A00080917D07681730F010927B074F5F409332
:1045B0007C0760E090917E07491708F445C010928F
:1045C0007C0710927A07DD2309F46DC061E069175A
:1045D00008F045C060937A078091380690913906BB
:1045E0000E94F51D80917D07882381F0D0E020E2B4
:1045F00040917C076D2F80913806909139060E947A
:10460000A41DDF5F80917D07D81788F340917C0758
:1046100060917B078091380690913906DF910C9468
:10462000CF1D20E24D2F60917B078091380690913D
:1046300039060E94A41D10927B0740917C074F5FB2
:1046400040937C0760E0ACCFD41721F380917A07C8
:104650008F3F01F361E0680F691708F4BBCF109238
:104660007A0760E0B9CF20E24D2F60917B078091FF
:104670003806909139060E94A41D60917B074091F5
:104680007C07662309F48CCF615060937B0720E29E
:1046900080913806909139060E94A41D60917B0795
:1046A00040917C077DCF60917B0740E08091380688
:1046B00090913906DF910C94CF1DDF9365E58091D1
:1046C0003806909139060E94101F6DE680913806D9
:1046D000909139060E94101F8091380690913906FA
:1046E0000E94B31FD82F692F809138069091390608
:1046F0000E94101F6D2F80913806909139060E94FC
:10470000101F80913806909139060E94FF1FD82F04
:10471000692F80913806909139060E94101F6D2FE5
:1047200080913806909139060E94101F6DE08091AB
:10473000380690913906DF910C94101FCF93DF93C8
:10474000CDB7DEB7C45AD1090FB6F894DEBF0FBE9D
:10475000CDBF8FEF80937A0710927C0710927B0772
:1047600010928B0710928C0710928D0710928E0773
:1047700095E5909380078BE68093810711E3109372
:10478000820780E2809383078DE0809384071092F4
:1047900085079093860791E69093870790E390931F
:1047A00088078093890710928A0785E396E09093A3
:1047B0003906809338060E946C1C81E080937F0745
:1047C00080913806909139060E94131D80937D07D1
:1047D00084E180937E0760E071EE809138069091CD
:1047E00039060E94791E6CE170E280913806909142
:1047F00039060E94B11E66E877E0809138069091F4
:1048000039060E94E81E1093880766E877E08091D9
:104810003806909139060E94E81E9E012F5F3F4F97
:104820007901AE014F575F4F5A0180E890E29C0139
:10483000990F440B550BCF55DF4F288339834A839B
:104840005B83C15AD0400FEF1EC080913806909113
:1048500039060E94701E81118AC08091380690919D
:1048600039060E94391F2B013C0180918B079091E2
:104870008C07A0918D07B0918E0784159505A6052C
:10488000B70508F4F9C380913806909139060E9463
:10489000A21E8823D1F280913806909139060E9499
:1048A000241F843491F681E00E943F22882369F21C
:1048B00080913806909139060E94241F90E0FC01F7
:1048C000E156F109E831F10508F0BFCFE05AFF4F9A
:1048D0000C94A42881E00E943F22882309F4B5CFDC
:1048E00080913806909139060E94241FD82E81E0CD
:1048F0000E943F22882309F4A8CF80913806909126
:1049000039060E94241FC82E81E00E943F2288237E
:1049100009F49BCF80913806909139060E94241F9C
:104920008D3009F092CF80ED8D0D883008F08DCF5D
:1049300030EDD32EDC0C37E03D1508F486CF682F20
:10494000667080913806909139060E94E51D6D2DA4
:1049500080913806909139060E94ED1D80913806AD
:10496000909139060E94701E882309F476CF8091B9
:104970003806909139060E94741E8093830760E880
:1049800077E080913806909139060E94E81E65CF45
:1049900081E00E943F22882309F457CF8091380696
:1049A000909139060E94241F8153803208F04DCF28
:1049B0004701282E312C6101FFEFCF1ADF0ACE0C00
:1049C000DF1C0CC080913806909139060E94241F8C
:1049D000F40181934F01CE16DF0629F081E00E9499
:1049E0003F228111EFCF81E00E943F22882309F40A
:1049F0002CCF80913806909139060E94241F8D306B
:104A000009F023CF80917F07882309F110927F0757
:104A100063E080913806909139060E940C1D8091C8
:104A20003806909139060E94131D80937D07F4E1AA
:104A3000F0937E0760E080913806909139060E94DD
:104A4000F51D00937A0710927C0710927B07409126
:104A50007C07670141012FEF821A920A8E0C9F1C7E
:104A60002AC060917B0781E0860F80937B07F0E28C
:104A70002F9F90011124245E3F4E80913806909123
:104A800039060E94611D40917C0790917B078091BF
:104A90007D07981728F010927B074F5F40937C07A3
:104AA00080917E07481718F010927C0740E0C814E8
:104AB000D90409F4CACEF60121916F0127FFD1CFA5
:104AC000203E08F001C320582032F8F660917B07A1
:104AD00081E0860F80937B0750E2259F900111248F
:104AE00020583F4D80913806909139060E94611DF3
:104AF00040917C07CACF81E00E943F22882309F4BD
:104B0000A4CE80913806909139060E94241FD82E99
:104B100081E00E943F22882309F497CE80913806D5
:104B2000909139060E94241F8D3009F08ECE80EDC1
:104B30008D0D8A3008F089CEE0E28E9FC0011124ED
:104B40009C01265C394F6901B6018091380690912D
:104B500039060E94011E8823B9F377CE81E00E94B6
:104B60003F22882309F471CE80913806909139064E
:104B70000E94241FC82E81E00E943F22882309F44E
:104B800064CE80913806909139060E94241FD82E59
:104B900081E00E943F22882309F457CE8091380695
:104BA000909139060E94241F8D3009F04ECE4FE2BD
:104BB0004C1508F04ACE2C2D30E02F52310980914F
:104BC0007D0790E0821793070CF43FCE4D1508F057
:104BD0003CCE20917E078D2D90E08F97422F50E0A4
:104BE000481759070CF431CE80ED8C0D80937B076C
:104BF00090ED9D0D90937C0780917A078F3F09F48B
:104C000024CE890F80937C07821708F41ECE821B66
:104C100080937C071ACE81E00E943F22882309F40A
:104C200014CE80913806909139060E94241FD82E08
:104C300081E00E943F22882309F407CE5FE25D15E0
:104C400008F003CE80913806909139060E94241F07
:104C50008D3009F0FACD60ED6D0D60937A0780918B
:104C60003806909139060E94F51DEFCD81E00E9433
:104C70003F22882309F4E9CD8091380690913906C6
:104C80000E94241FD82E81E00E943F22882309F42D
:104C9000DCCD80913806909139060E94241FC82EE1
:104CA00081E00E943F22882309F4CFCD809138060D
:104CB000909139060E94241F8D3009F0C6CD4C2DED
:104CC0006D2D80913806909139060E94291E882307
:104CD000B1F3BBCD81E00E943F22882309F4B5CD1A
:104CE00080913806909139060E94241F81E00E942D
:104CF0003F22882309F4A9CD809138069091390686
:104D00000E94241F8D3009F0A0CD8091380690912B
:104D100039060E94031D10927C0710927B07809138
:104D20007A078F3F09F491CD60E080913806909129
:104D300039060E94F51D00937A0787CD81E00E9415
:104D40003F22882309F481CD80913806909139065D
:104D50000E94241FD82E81E00E943F22882309F45C
:104D600074CD80913806909139060E94241F8D30B1
:104D700009F06BCD21E032E6D31220E040917C07B0
:104D800060917B0780913806909139060E94B01D92
:104D90005CCD81E00E943F22882309F456CD8091AA
:104DA0003806909139060E94241F8153803108F003
:104DB0004CCD4701282E312C61014FEFC41AD40A83
:104DC000CE0CDF1C0CC080913806909139060E94F1
:104DD000241FF40181934F01CE16DF0629F081E0F4
:104DE0000E943F228111EFCF81E00E943F22882361
:104DF00009F42BCD80913806909139060E94241F2A
:104E00008D3009F022CD80917F0781111BC081E098
:104E100080937F0761E080913806909139060E9467
:104E20000C1D80913806909139060E94131D8093C5
:104E30007D07F4E1F0937E0700937A0710927C07D8
:104E400010927B07470161012FEFC21AD20ACE0CE4
:104E5000DF1CF40181914F010E94B622C814D904CD
:104E6000C1F7F3CC81E00E943F22882309F4EDCC06
:104E700080913806909139060E94241FC82E81E047
:104E80000E943F22882309F4E0CC8091380690915B
:104E900039060E94241FD82E81E00E943F228823D9
:104EA00009F4D3CC80913806909139060E94241FD2
:104EB00020ED922E980E81E00E943F22882309F473
:104EC000C4CC80913806909139060E94241F8D3001
:104ED00009F0BBCC40ED4D0D59F0992049F060ED43
:104EE0006C0D292D80913806909139060E947F1F04
:104EF0000E945D23AACC81E00E943F22882309F40E
:104F0000A4CC80913806909139060E94241FD82E97
:104F100081E00E943F22882309F497CC80913806D3
:104F2000909139060E94241FC82E81E00E943F22E2
:104F3000882309F48ACC80913806909139060E9422
:104F4000241F90ED992E980E81E00E943F22882325
:104F500009F47BCC80913806909139060E94241F79
:104F60008D3009F072CC40ED4C0D60ED6D0D292DAA
:104F700080913806909139060E94991FB9CF81E03F
:104F80000E943F22882309F460CC809138069091DA
:104F900039060E94241FC82E81E00E943F228823E8
:104FA00009F453CC80913806909139060E94241F51
:104FB000382E8FEC8C0D803208F047CC4501C82E7E
:104FC000D12C9FEFC91AD90ACA0CDB1C0CC08091E6
:104FD0003806909139060E94241FF40181934F01F5
:104FE000CE16DF0629F081E00E943F228111EFCF2B
:104FF00081E00E943F22882309F427CC8091380663
:10500000909139060E94241F8D3009F01ECC37FE86
:105010001CCCFFEDF31508F448C080E8830D803206
:1050200008F013CC20E2829FC00111249C0120587B
:105030003F4D2078D7012E193F09F901EA0FFB1FD8
:10504000E491ED93AA16BB06C1F78F779927D70194
:10505000A80FB91F80E2F50101900D928A95E1F742
:10506000A701CF55DF4F688179818A819B81C15A21
:10507000D0400E94003EE9CB1093880766E877E0B5
:1050800080913806909139060E94E81ED301C20132
:1050900088519C4FAF4FBF4F80938B0790938C07E5
:1050A000A0938D07B0938E07EECB60E2630D6A305C
:1050B00008F0CBCB30E2639FB0011124665C794FDE
:1050C000C5010E948822C1CB205E2A3008F0DDCCC9
:1050D00060917B0781E0860F80937B0780E2289FA9
:1050E00090011124265C394F809138069091390641
:1050F0000E941F1D40917C07C8CC85E396E00E946A
:105100005C1C0895A1E21A2EAA1BBB1BFD010DC059
:10511000AA1FBB1FEE1FFF1FA217B307E407F50767
:1051200020F0A21BB30BE40BF50B661F771F881F43
:10513000991F1A9469F760957095809590959B01D9
:10514000AC01BD01CF010895EE0FFF1F0590F49152
:10515000E02D0994A29FB001B39FC001A39F700DE1
:10516000811D1124911DB29F700D811D1124911D6F
:065170000895F894FFCF42
:08517600FFFFE0010D02010042
:107C0000CF93DF93CDB7DEB72C970FB6F894DEBFD6
:107C10000FBECDBF6F83788789879A875C874B8734
:107C20008FE590E0FC0180818B83F89488E290E0FE
:107C3000FC018081882F90E08870992721E0892BB2
:107C400009F420E02C839C8181E08927882349F076
:107C500088E290E028E230E0F90120812860FC0110
:107C600020838FE390E0FC018081882F90E0827078
:107C7000992721E0892B09F420E0222309F0F1CF94
:107C80008F81988523E0FC0120935700E89587E5D4
:107C900090E0FC018081882F90E08170992721E09D
:107CA000892B09F420E0222309F0F1CF1A821982EE
:107CB00089819A8180389105B0F58B859C859C01DE
:107CC0002F5F3F4F3C872B87FC018081882F90E0FE
:107CD0009E838D838B859C859C012F5F3F4F3C87C6
:107CE0002B87FC018081882F90E0982F88279C01AA
:107CF0008D819E81820F931F9E838D832F81388576
:107D000089819A81820F931F41E02D813E81FC0180
:107D1000090140935700E895112489819A810296C0
:107D20009A838983C5CF8F81988525E0FC012093B4
:107D30005700E89587E590E0FC018081882F90E06E
:107D40008170992721E0892B09F420E0222309F092
:107D5000F1CF81E180935700E8959C8181E08927EC
:107D6000882349F088E290E028E230E0F9012081A0
:107D7000277FFC01208378948FE590E02B81FC0124
:107D8000208300002C960FB6F894DEBF0FBECDBF47
:067D9000DF91CF91089580
:00000001FF
